:10000000F8FF0020110400007B3F00007B3F000050
:100010007B3F00007B3F00007B3F00007B3F0000F8
:100020007B3F00007B3F00007B3F00007B3F0000E8
:100030007B3F00007B3F00007B3F00007B3F0000D8
:100040007B3F00007B3F00007B3F00007B3F0000C8
:10040000FFFFFFFFFFFFFFFFFFFFFFFFFEFFFFFFFD
:1004100062B60AF0BDFCFEE710B5DFF8A41B086861
:100420000028FAD00C685FF0FF30086001F09BFBF9
:1004300010BD80B5DFF88C0B016851F0010101603F
:1004400001F09CFB01BDF8B5DFF87C5B2A00782148
:10045000BC2001F0C7FB0100DFF8702B10780028EA
:1004600034D0002006003000C0B278282CDA0020FA
:1004700004002000C0B2BC2824DABC203300DBB268
:1004800043432B442700FFB2DB5D0F00FFB2BB42AA
:100490000BD3DFF83C3B3700FFB200FB07F01844FA
:1004A0002300DBB2FF27C7540AE0DFF8243B370004
:1004B000FFB200FB07F018442300DBB20027C7544B
:1004C000641CD6E7761CCEE700201070F1BD2DE944
:1004D000F04FFCB0DFF8FC0A01685E220024002324
:1004E000002500200600F6B2782E23DA00260DF152
:1004F000BC0E80465FFA88F80EF80860BC26EE460F
:1005000080465FFA88F80EF808605E26DFF8C8EAD1
:1005100080465FFA88F80EF808600600F6B27600AA
:100520003C3E0DF5BC7E80465FFA88F80EF8086008
:10053000401CD7E75FF0770E7046C0B25A28C0F271
:100540007D817046C0B2772801D1160005E0DFF842
:10055000880A7646F6B2304446783000C0B20328A6
:1005600001DA022006003000C0B202282DDBBC27D1
:10057000DFF85C8A7046C0B278434044B1465FFA07
:1005800089F910F80900FF281DD17046C0B27843E0
:100590004044B1465FFA89F9484410F8010C00283C
:1005A00011D17046C0B207FB00F708EB0700370017
:1005B000FFB2384410F8020C002804D12FA8774667
:1005C000FFB2C65501E0761ECDE77046C0B277286F
:1005D00001D1170005E0DFF8000A7746FFB2384482
:1005E00047783800C0B2BA2801DBBA2007003800CB
:1005F000C0B2BB282BDABC26DFF8D4897046C0B263
:1006000070434044B9465FFA89F910F80900FF28A1
:100610001BD17046C0B270434044B9465FFA89F9B5
:1006200048444078002810D17046C0B206FB00F65E
:1006300008EB06003E00F6B230448078002804D172
:1006400068467646F6B2875501E07F1CCFE72FAEAD
:100650007046C0B2305C00281ED06846F0465FFA93
:1006600088F810F80880B8F1BC0F15D0F0465FFA92
:1006700088F816F80860F0465FFA88F810F8080065
:100680008019022690FBF6F0DFF84C69F0465FFA1D
:1006900088F806F80800BBE07046C0B2305C00285D
:1006A0004AD06846F0465FFA88F810F80880B8F13A
:1006B000BC0F41D15B1CF0465FFA88F810F8088047
:1006C0007046C0B2305CB8EB00086846F1465FFA8D
:1006D00089F9484490F801902FA8F2465FFA8AFA07
:1006E00050444078B9EB000919F10D09C8450CDBFD
:1006F000DFF8E4087646F6B2064476780A36F04625
:100700005FFA88F800F8086082E07046C0B2365C94
:100710005EA8F0465FFA88F810F808005FF002085B
:1007200090FBF8F086190A36DFF8AC08F0465FFA5D
:1007300088F800F808606BE07046C0B2305C0028B2
:1007400045D1E8467046C0B218F80000BC283ED03B
:10075000641C7046C0B218F800907046C0B2305C9D
:10076000B9EB000968467646F6B2304446782FA8C1
:10077000F2465FFA8AFA50444078361A0D36B1458F
:100780000CDBDFF854087646F6B2064476780A3E6B
:10079000F0465FFA88F800F8086039E07046C0B2A9
:1007A00018F800605EA8F0465FFA88F810F80800B4
:1007B0005FF0020890FBF8F0361AB6F10A00DFF895
:1007C0001868F0465FFA88F806F8080020E07046DE
:1007D000C0B2305C00281BD168467646F6B2805D18
:1007E000BC2815D16D1C7046C0B2772805D1DFF842
:1007F000E8077646F6B282550AE0DFF8DC0776466F
:10080000F6B206447679F0465FFA88F800F8086098
:10081000DFF8C40790F877607E2E02DB7E200200AE
:1008200009E090F87760402E02DA3F20020002E0F3
:1008300090F877000200BEF1010E7DE65A263000E6
:10084000C0B2002800F0B8832FA8B6465FFA8EFE2B
:1008500070444078002800F0CA806846B6465FFAC7
:100860008EFE70444078BC2800F0C1802FA8B646A8
:100870005FFA8EFE704440780D30BA2801DBBA274B
:1008800005E02FA83700FFB2384447780D372FA86E
:10089000B6465FFA8EFE704440780D38022802DAC0
:1008A0005FF0010C07E02FA8B4465FFA8CFC6044AF
:1008B0004078B0F10D0C3800E646C0B25FFA8EFE0B
:1008C000704533D35FF0BC0EDFF804873000C0B250
:1008D0000EFB00F04044B9465FFA89F910F80900B0
:1008E000FF2821D13000C0B20EFB00F04044B946D1
:1008F0005FFA89F9484410F8010C002814D130003F
:10090000C0B20EFB00FE08EB0E00BE465FFA8EFE84
:10091000704410F8020C002806D12FA8B6465FFAE2
:100920008EFE00F80E7001E07F1EC4E76846B646F2
:100930005FFA8EFE704440780D38022801DA0127F4
:1009400006E068463700FFB238444078B0F10D0742
:100950006846B6465FFA8EFE704440780D30BA287D
:1009600002DB5FF0BA0C08E06846B4465FFA8CFC24
:10097000604490F801C01CF10D0C6046BE46C0B248
:100980005FFA8EFE7045C0F019825FF0BC0EDFF892
:1009900040863000C0B20EFB00F04044B9465FFA1A
:1009A00089F910F80900FF281FD13000C0B20EFBF2
:1009B00000F04044B9465FFA89F94844407800287D
:1009C00013D13000C0B20EFB00FE08EB0E00BE4695
:1009D0005FFA8EFE70448078002806D16846B646DD
:1009E0005FFA8EFE00F80E70E8E17F1CC5E72FA8C5
:1009F000B6465FFA8EFE70444078002800F0A8806A
:100A00006846B6465FFA8EFE70444078BC2840F0D7
:100A10009F802FA8B6465FFA8EFE704440780D3056
:100A2000BA2802DB5FF0BA0E07E02FA83700FFB24A
:100A3000384490F801E01EF10D0E2FA83700FFB2E8
:100A4000384440780D38022802DA5FF0010C06E0E5
:100A50002FA83700FFB238444078B0F10D0C704633
:100A60006746C0B2FFB2B8422FD3BC27DFF860851B
:100A70003000C0B278434044F1465FFA89F910F87B
:100A80000900FF281ED13000C0B278434044F1462F
:100A90005FFA89F9484410F8010C002812D130009F
:100AA000C0B207FB00F708EB07007746FFB23844F7
:100AB00010F8020C002805D12FA83700FFB200F86B
:100AC00007E002E0BEF1010EC9E7DFF80C053700D0
:100AD000FFB2384447783800C0B2BA2801DBBA20E8
:100AE00007003800C0B2BB2880F268815FF0BC0EFE
:100AF000DFF8DC843000C0B20EFB00F04044B946A1
:100B00005FFA89F910F80900FF281FD13000C0B240
:100B10000EFB00F04044B9465FFA89F9484440783A
:100B2000002813D13000C0B20EFB00FE08EB0E000F
:100B3000BE465FFA8EFE70448078002806D1684673
:100B4000B6465FFA8EFE00F80E7037E17F1CC8E7EC
:100B50002FA8B6465FFA8EFE70444078002840F019
:100B6000A8806846B6465FFA8EFE70444078BC287E
:100B700000F09F806846B6465FFA8EFE704440786B
:100B80000D38022802DA5FF0010E06E068463700F1
:100B9000FFB238444078B0F10D0E68463700FFB21E
:100BA000384440780D30BA2802DB5FF0BA0C07E019
:100BB00068463700FFB2384490F801C01CF10D0CB4
:100BC00060467746C0B2FFB2B8422DD3BC27DFF8EB
:100BD00000843000C0B278434044F1465FFA89F99E
:100BE00010F80900FF281CD13000C0B278434044FF
:100BF000F1465FFA89F948444078002811D1300065
:100C0000C0B207FB00F708EB07007746FFB2384495
:100C10008078002805D168463700FFB200F807E069
:100C200002E01EF1010ECBE7DFF8AC033700FFB2A4
:100C3000384447783800C0B2022801DA02200700A1
:100C40003800C0B20228C0F2B9805FF0BC0EDFF8F5
:100C500080833000C0B20EFB00F04044B9465FFA1A
:100C600089F910F80900FF2821D13000C0B20EFB2D
:100C700000F04044B9465FFA89F9484410F8010C85
:100C8000002814D13000C0B20EFB00FE08EB0E00AD
:100C9000BE465FFA8EFE704410F8020C002806D1A2
:100CA0002FA8B6465FFA8EFE00F80E7086E07F1E13
:100CB000C6E72FA8B6465FFA8EFE7044407800283B
:100CC0007CD16846B6465FFA8EFE70444078BC28F8
:100CD00074D1DFF804E33000C0B2704490F80180B2
:100CE0004046C0B202282FDBBC27DFF8E492300078
:100CF000C0B278434844C2465FFA8AFA10F80A0044
:100D0000FF281ED13000C0B278434844C2465FFA83
:100D10008AFA504410F8010C002812D13000C0B2F9
:100D200007FB00F709EB07004746FFB2384410F80D
:100D3000020C002805D12FA83700FFB200F8078069
:100D400002E0B8F10108CBE73000C0B27044477848
:100D50003800C0B2BB2831DA5FF0BC0EDFF8708219
:100D60003000C0B20EFB00F04044B9465FFA89F98A
:100D700010F80900FF281FD13000C0B20EFB00F0B0
:100D80004044B9465FFA89F948444078002813D1B5
:100D90003000C0B20EFB00FE08EB0E00BE465FFA4C
:100DA0008EFE70448078002806D16846B6465FFA09
:100DB0008EFE00F80E7001E07F1CC9E7EE460DF1D3
:100DC000BC083000C0B21EF800903000C0B218F865
:100DD0000000B9EB00096846B2465FFA8AFA50444F
:100DE00090F801A02FA8B3465FFA8BFB58444078D7
:100DF000BAEB000A1AF10D0AD1450CDB7648B6466B
:100E00005FFA8EFE86449EF805E0B0465FFA88F8E9
:100E100000F808E0CEE03000C0B218F8000000286A
:100E20001CD03000C0B21EF80000BC2816D0300024
:100E3000C0B218F80000B0465FFA88F81EF808E063
:100E40001EEB00005FF0020E90FBFEF0DFF888E181
:100E5000B0465FFA88F80EF80800ABE03000C0B288
:100E600018F80000002843D03000C0B21EF800007F
:100E7000BC283DD15B1C2FA8B6465FFA8EFE70449D
:100E80004078002819D0DFF850E13000C0B270443B
:100E900090F801903000C0B218F8000010EB09097A
:100EA0002FA8B0465FFA88F840444078B9EB0009B3
:100EB0003000C0B20EF800907CE04748B6465FFABA
:100EC0008EFE10F80EE00DF5BC78B1465FFA89F998
:100ED00018F809805FF0020998FBF9F818F1050885
:100EE00018EB0E0EB0465FFA88F800F808E061E0F3
:100EF0003000C0B218F80000002842D13000C0B263
:100F00001EF80000BC283CD0641C6846B0465FFA5E
:100F100088F840444078BC2819D0DFF8BC80300005
:100F2000C0B2404490F801903000C0B21EF80000FA
:100F300010EB09096846B6465FFA8EFE70444078A9
:100F4000B9EB00093000C0B208F8009032E0300080
:100F5000C0B21EF800E05EA8B0465FFA88F810F84C
:100F600008005FF0020890FBF8F0BEEB000EBEF147
:100F70000500DFF864E0B0465FFA88F80EF8080074
:100F800018E03000C0B218F80000002812D130007C
:100F9000C0B21EF80000BC280CD16D1C0E48B6462D
:100FA0005FFA8EFE86449EF805E0B0465FFA88F848
:100FB00000F808E0761E42E47CB0BDE8F08F000047
:100FC000A090044024800040FC6BFF1F1BC9FF1F42
:100FD000140FFF1F6CBB00003467FF1F2DE9F84F93
:100FE000FEB0DFF8E409006801905E208DF8000093
:100FF0005FF0000B5FF0000A5FF00009DFF8CC59EA
:10100000DFF8CC0903682A00DFF8C8090168DFF8B7
:10101000C809006801F047F800200100C9B278292A
:1010200019DA002131AA0300DBB2D154BC2102AA93
:101030000300DBB2D1545E21DFF8A0290300DBB24C
:10104000D1540100C9B249003C3960AA0300DBB2A7
:10105000D154401CE1E777263000C0B25A28C0F2D4
:1010600076813000C0B2772802D19DF8001005E0EB
:10107000DFF868093100C9B2084441780800C0B2FD
:10108000032801DA022001000800C0B2022828DB90
:10109000BC223000C0B2504328440B00DBB2C05C1D
:1010A000FF281CD13000C0B2504328440B00DBB2F3
:1010B000184410F8010C002811D13000C0B202FB16
:1010C00000F205EB02000A00D2B2104410F8020C44
:1010D000002804D131A83200D2B2815401E0491E67
:1010E000D2E73000C0B2772802D19DF8004005E079
:1010F000DFF8E8083200D2B2104444782000C0B2D1
:10110000BA2801DBBA2004002000C0B2BB2826DACE
:10111000BC213000C0B2484328442200D2B2805CD7
:10112000FF281AD13000C0B2484328442200D2B26E
:1011300010444078002810D13000C0B201FB00F10B
:1011400005EB01002100C9B208448078002804D1D1
:1011500002A83100C9B2445401E0641CD4E731A9AB
:101160003000C0B2085C002815D002A83200D2B20C
:10117000825CBC2A0FD03200D2B2895C3200D2B27B
:10118000805C4018022190FBF1F0DFF8501832002B
:10119000D2B28854A0E03000C0B2085C002839D038
:1011A00002A83200D2B2825CBC2A33D11AF1010A01
:1011B0003200D2B2825C3000C0B2085C121A02A8BF
:1011C0003300DBB21844437831A83700FFB238440B
:1011D00040781B1A0D339A420ADBDFF80008310011
:1011E000C9B2014449780A313200D2B2815473E065
:1011F0003000C0B2095C60A83200D2B2805C02222A
:1012000090FBF2F041180A31DFF8D0073200D2B279
:10121000815461E03000C0B2085C00283AD102AAD3
:101220003000C0B2105CBC2834D01BF1010B300080
:10123000C0B2135C3000C0B2085C1B1A02A83100B7
:10124000C9B20844417831A83700FFB23844407829
:10125000091A0D318B420ADBDFF880073100C9B271
:10126000014449780A393200D2B2815434E0300066
:10127000C0B2115C60A83200D2B2805C022290FB46
:10128000F2F0091AB1F10A00DFF850173200D2B2B9
:10129000885421E03000C0B2085C00281CD102A8AC
:1012A0003100C9B2405CBC2816D119F101093000E7
:1012B000C0B2772807D19DF80000DFF82017320070
:1012C000D2B2885408E0DFF814073100C9B20144F3
:1012D00049793200D2B28154DFF8007797F877006D
:1012E0007E2803DB7E208DF800000BE097F8770066
:1012F000402803DA3F208DF8000003E097F87700DC
:101300008DF800003000C0B200F080FF0022DFF84E
:10131000D03600F0A5FF01F079F8C0B21230ADF878
:1013200006003000C0B2385C00F070FFDFF8B42671
:10133000DFF8B43600F094FF01F068F8C0B2ADF801
:1013400004001F21019800F07DFD761E84E65A27D7
:101350003800C0B2002800F0338331A83900C9B288
:1013600008444078002800F0AA8002A83900C9B2D9
:1013700008444078BC2800F0A28031A83900C9B2E6
:10138000084440780D30BA2801DBBA2105E031A8C5
:101390003900C9B2084441780D3131A83A00D2B2BF
:1013A000104440780D38022801DA012206E031A805
:1013B0003A00D2B210444078B0F10D020800130098
:1013C000C0B2DBB2984228D3BC233800C0B2584325
:1013D00028440C00E4B2005DFF281CD13800C0B2E4
:1013E000584328440C00E4B2204410F8010C0028B3
:1013F00011D13800C0B203FB00F305EB03000B0072
:10140000DBB2184410F8020C002804D131A83B00CC
:10141000DBB2C15401E0491ED0E702A83B00DBB2B9
:10142000184440780D38022801DA012406E002A8A9
:101430003900C9B208444078B0F10D0402A839005F
:10144000C9B2084440780D30BA2802DB5FF0BA0810
:1014500007E002A83900C9B2084490F8018018F1E9
:101460000D0840462100C0B2C9B28842C0F0C9810F
:10147000BC213800C0B2484328442200D2B2805C6C
:10148000FF281AD13800C0B2484328442200D2B203
:1014900010444078002810D13800C0B201FB00F1A0
:1014A00005EB01002100C9B208448078002804D16E
:1014B00002A83900C9B24454A3E1641CD1E731A8A1
:1014C0003900C9B208444078002800F0918002A891
:1014D0003900C9B208444078BC2840F0898031A85E
:1014E0003900C9B2084440780D30BA2801DBBA216E
:1014F00005E031A83900C9B2084441780D3131A85E
:101500003A00D2B2104440780D38022802DA5FF077
:10151000010806E031A83A00D2B210444078B0F198
:101520000D0808004246C0B2D2B2904228D3BC2275
:101530003800C0B2504328440B00DBB2C05CFF2827
:101540001CD13800C0B2504328440B00DBB2184411
:1015500010F8010C002811D13800C0B202FB00F2D3
:1015600005EB02000A00D2B2104410F8020C002869
:1015700004D131A83A00D2B2815401E0491ED0E72B
:10158000DFF858043A00D2B2104444782000C0B2C8
:10159000BA2801DBBA2004002000C0B2BB2880F2C8
:1015A0003081BC213800C0B2484328442200D2B266
:1015B000805CFF281AD13800C0B24843284422007A
:1015C000D2B210444078002810D13800C0B201FBDC
:1015D00000F105EB01002100C9B208448078002821
:1015E00004D102A83900C9B244540AE1641CD3E70B
:1015F00031A83900C9B208444078002840F09280F0
:1016000002A83900C9B208444078BC2800F08A809A
:1016100002A83900C9B2084440780D38022801DA1E
:10162000012106E002A83900C9B208444078B0F1AF
:101630000D0102A83A00D2B2104440780D30BA2809
:1016400002DB5FF0BA0807E002A83A00D2B2104409
:1016500090F8018018F10D0840460A00C0B2D2B2DD
:10166000904226D3BC223800C0B2504328440B001D
:10167000DBB2C05CFF281AD13800C0B25043284406
:101680000B00DBB218444078002810D13800C0B2FB
:1016900002FB00F205EB02000A00D2B2104480788F
:1016A000002804D102A83A00D2B2815401E0491CBA
:1016B000D2E7CA483A00D2B2104444782000C0B2FF
:1016C000022801DA022004002000C0B20228C0F281
:1016D0009880BC213800C0B2484328442200D2B2CE
:1016E000805CFF281CD13800C0B248432844220047
:1016F000D2B2104410F8010C002811D13800C0B249
:1017000001FB00F105EB01002100C9B2084410F80B
:10171000020C002804D131A83900C9B2445470E049
:10172000641ED1E731A83900C9B2084440780028C6
:1017300067D102A83900C9B208444078BC2860D1FA
:10174000A6493800C0B2084442781000C0B202284E
:1017500028DBBC233800C0B2584328441400E4B24C
:10176000005DFF281CD13800C0B258432844140043
:10177000E4B2204410F8010C002811D13800C0B2A6
:1017800003FB00F305EB03001300DBB2184410F871
:10179000020C002804D131A83B00DBB2C25401E0A6
:1017A000521ED2E73800C0B2084444782000C0B2CC
:1017B000BB2826DABC213800C0B2484328442200A6
:1017C000D2B2805CFF281AD13800C0B24843284406
:1017D0002200D2B210444078002810D13800C0B2A4
:1017E00001FB00F105EB01002100C9B2084480783B
:1017F000002804D102A83900C9B2445401E0641C95
:10180000D4E702A931AA3800C0B20B5C3800C0B2DC
:10181000105C1B1A02A83E00F6B23044467831A88C
:10182000BC465FFA8CFC60444078361A0D36B342F1
:1018300008DB6A483900C9B2014449793A00D2B29A
:1018400081549AE03800C0B2105C002813D03800F0
:10185000C0B2085CBC280ED03800C0B2105C3A00A0
:10186000D2B2895C0818022190FBF1F05B493A0082
:10187000D2B2885481E03800C0B2105C002831D068
:101880003800C0B2085CBC282CD11AF1010A31A87A
:101890003900C9B208444078002812D04F493800B6
:1018A000C0B2084443783800C0B2105CC31831A8F5
:1018B0003A00D2B2104440781B1A3800C0B20B5420
:1018C0005BE046483900C9B2415C60AA3B00DBB22C
:1018D000D25C022392FBF3F2521D51183A00D2B2AD
:1018E00081544AE03800C0B2105C002831D1380081
:1018F000C0B2085CBC282CD01BF1010B02A83A0036
:10190000D2B210444078BC2812D0344A3800C0B259
:10191000104443783800C0B2085CC31802A83900EC
:10192000C9B2084440781B1A3800C0B2135424E0EE
:101930003800C0B2095C60A83A00D2B2805C0222D2
:1019400090FBF2F0091A481F24493A00D2B2885499
:1019500013E03800C0B2105C00280ED13800C0B2CD
:10196000085CBC2809D119F101091C483900C9B229
:10197000014449793A00D2B281543800C0B200F033
:1019800045FC0022164B00F06BFC00F03FFDC0B29E
:101990001230ADF8060011483900C9B2405C00F0C1
:1019A00035FC104A104B00F05BFC00F02FFDC0B27C
:1019B000ADF804001F21019800F044FA7F1EC7E42F
:1019C0007FB0BDE8F08F000070BB0000140FFF1F58
:1019D0001804FF1F1004FF1F1404FF1F3467FF1FAC
:1019E0000000E83FC3F5285C8FC2E53F012210F0FC
:1019F0001F018A406E4903005BB25B0941F8232056
:101A00007047012210F01F018A406A4903005BB24F
:101A10005B0941F82320704710B4020052B2002A3B
:101A200009D50A01644B040064B214F00F04234486
:101A300003F8042C04E00A01604B040064B21A5558
:101A400010BC704770B45E4C256801268640354353
:101A500025605C4C1D006D046D0C060076B27601AD
:101A60002644F5821D006D046D0C060076B27601E9
:101A70002644F58305006DB26D01615105006DB21C
:101A80006D012C442261504C256855F001052560FC
:101A900070BC704778B585B05FF4E131052000F087
:101AA000D3FCFF248DF80C4003AD002068700A20A1
:101AB000A8703220E8704FF41676300080B2000A29
:101AC00028716E711E20A8715A20E871082203A99E
:101AD000052000F0C2FD8DF80C4002206870002047
:101AE000A8700020E870002028712020687135203F
:101AF000A8715A20E871082203A9052000F0ADFD65
:101B000072B601200290BC200190002000901B239F
:101B10002E4A2F49002000F0EDFD2E491B2000F039
:101B2000DFFE294C206840084000206024480168FE
:101B300051F0010101600020FFF758FF206850F0CC
:101B4000010020605B20FFF75CFF23491D2000F0AF
:101B5000C7FE01215B20FFF75FFF5B20FFF746FF19
:101B600062B606B070BD80B500201C490880BC2359
:101B7000164A17490020FFF765FF01BD10B5174C45
:101B80002088401C20802088782809DABC230F494F
:101B90002288BC2042430A440D490020FFF752FF2F
:101BA0002088782802DB01200D49087010BD000054
:101BB00000E100E080E100E018ED00E000E400E07A
:101BC00024800040009000400C800040FC6BFF1F10
:101BD00050F00F400201020002010A0012C9FF1F6B
:101BE0001BC9FF1F2DE9F64F87B0040000200690A7
:101BF00000275FF000085FF0000A002004905FF00B
:101C0000000B002003900020029000200190002093
:101C1000059000200021B1F5807F05DA00223F4BBE
:101C200043F82120491CF6E7002607998E4216DA70
:101C300000210D00A54210DA3849089A04FB06532A
:101C4000D25C089B04FB065C13F80C3051F823307F
:101C50005B1C41F822306D1CECE7761CE5E70021A7
:101C6000FF290ADA2D4A52F8210000FB017752F8C9
:101C7000210010EB0808491CF2E75FF00009B9F1F8
:101C8000FE0F46DA254951F8290010EB0A0AB8EB95
:101C90000A00049051F8290000FB09BB584600F0E7
:101CA0007BFE0090504600F077FE0100009800F0A7
:101CB00085FE0390B7EB0B0000F06EFE00900498D9
:101CC00000F06AFE0100009800F078FE029004988F
:101CD00000FB0AF000F060FE00900398029900F00B
:101CE000EBFE009900F028FF00900398029900F0A5
:101CF000E3FE009900F020FF01900598019900F0A3
:101D000087FF03D201980590CDF8189019F10109C9
:101D1000B5E7069809B0BDE8F08F00BFFC67FF1F6C
:101D20001CB5DFF8C004046800F084FF02F091F8ED
:101D3000ADF8000002F08AF8ADF802000022009928
:101D4000200000F001F813BDF2B504001500009961
:101D5000200001F0AEFFBDF80010BDF802004143C5
:101D6000DFF8840401220260DFF88024002313607E
:101D7000DFF87C3400261E60DFF878642C2737708B
:101D8000DFF874745FF0000CC7F800C05FF0010C5E
:101D9000C7F800C05FF0010CC3F800C05FF0000C92
:101DA0008C453AD25FF0010EC0F800E05FF0010E02
:101DB000C2F800E05FF0000EC3F800E0AE461FFA84
:101DC0008EFE5FEA1E2E86F800E05FF0000EC7F878
:101DD00000E05FF0010EC7F800E05FF0010EC3F80D
:101DE00000E05FF0010EC0F800E05FF0010EC2F805
:101DF00000E05FF0000EC3F800E035705FF0000E09
:101E0000C7F800E05FF0010EC7F800E05FF0010ED8
:101E1000C3F800E01CF1010CC2E7F1BD38B50400C5
:101E2000DFF8D803056802F011F8ADF8020002F0FF
:101E300010F8ADF80000220092B200992800FFF7D8
:101E400083FF31BDF8B504000D00DFF8B403066868
:101E50003100200001F02DFFDFF88C03012101602B
:101E6000DFF8881300220A60DFF884230023136060
:101E7000DFF880332C271F70DFF87C735FF0000CD5
:101E8000C7F800C05FF0010CC7F800C05FF0010C9C
:101E9000C2F800C05FF0010CC0F800C05FF0010C98
:101EA000C1F800C05FF0000CC2F800C0AC461FFAD9
:101EB0008CFC5FEA1C2C83F800C05FF0000CC7F8B4
:101EC00000C05FF0010CC7F800C05FF0010CC2F861
:101ED00000C05FF0010CC0F800C0012008600020C5
:101EE00010601D70002038600120386001201060F3
:101EF000F1BD2DE9F14F0C0015001E00DFF80403C1
:101F0000D0F8009001F0A5FF0838BDF80010884215
:101F100006DB01F09BFF1038BDF80210884200DAA2
:101F2000BFE04946009801F0C4FEDFF8BC02012181
:101F30000160DFF8B81200220A60DFF8B422002343
:101F40001360DFF8B0325FF02C0C83F800C0DFF8CC
:101F5000A8C25FF0000ECCF800E05FF0010ECCF8F4
:101F600000E05FF0010EC2F800E05FF0000EF24604
:101F70005FFA8AFABAF1100F80F29380DFF888A234
:101F8000A3465FFA8BFB5FEA0B1B5BFA8EFBDA441E
:101F9000BAF5007A9AF800A057465FF0000AD046DA
:101FA000C2465FFA8AFABAF1080F77DA5FEA076A7F
:101FB00038D55FF0010AC0F800A05FF0010AC1F84F
:101FC00000A05FF0000AC2F800A0AA461FFA8AFA31
:101FD0005FEA1A2A83F800A05FF0000ACCF800A09C
:101FE0005FF0010ACCF800A05FF0010AC2F800A07F
:101FF0005FF0010AC0F800A05FF0010AC1F800A07C
:102000005FF0000AC2F800A01D705FF0000ACCF873
:1020100000A05FF0010ACCF800A05FF0010AC2F84E
:1020200000A037E05FF0010AC0F800A05FF0010AED
:10203000C1F800A05FF0000AC2F800A0B2461FFA83
:102040008AFA5FEA1A2A83F800A05FF0000ACCF847
:1020500000A05FF0010ACCF800A05FF0010AC2F80E
:1020600000A05FF0010AC0F800A05FF0010AC1F80B
:1020700000A05FF0000AC2F800A01E705FF0000A26
:10208000CCF800A05FF0010ACCF800A05FF0010AD4
:10209000C2F800A07F0018F1010881E71EF1010ECF
:1020A00065E7BDE8F18F2DE9FB4F82B01500A94629
:1020B0000399029801F0FDFDDFF82C110120086062
:1020C000DFF8282100201060DFF82431002018609C
:1020D000DFF820E12C208EF80000DFF81CA10020A2
:1020E000CAF800000120CAF80000012018605FF063
:1020F000000B5846BDF80EC080B260456ED2DC467B
:102100001FFA8CFCBDF8120000FB0CFCBDF80E00A1
:102110009CFBF0F0ADF80000BDF80000BDF810C069
:102120000CFB00F00190002007003800BDF80CC047
:1021300080B260454FD2BC461FFA8CFCBDF810003F
:1021400000FB0CFCBDF80C009CFBF0F080460198F5
:1021500010FA88F0060019F806C05FFA8CFC5FEAF6
:10216000DC0C5FFA8CFC19F80600C0B28008C0B223
:10217000400150EACC2019F806C05FFA8CFC5FEAF7
:10218000DC0C5FFA8CFC5CEA0000040001200860B3
:102190000120106000201860200080B2000A8EF834
:1021A00000000020CAF800000120CAF80000012049
:1021B00018600120086001201060002018608EF86F
:1021C00000400020CAF800000120CAF800000120E9
:1021D00018607F1CA9E71BF1010B8AE705B0BDE879
:1021E000F08F0000ACBB00002810FE433010FE430F
:1021F0002C10FE4380F00F402410FE43B0BB0000C3
:10220000B4BB0000B8BB000018A20000014648B1F2
:10221000B0FA80F18840C91CC1F58461090501EB61
:10222000D0214005704730B4002513E050F8042B4E
:10223000D30744BFA9F101039A18091F042942F8E2
:10224000045BFAD213468C0744BF15809B1CC90758
:1022500048BF1D7050F8041B0029E7D130BC7047FF
:10226000B0B581EA030C0CF0004C40F2FF7515EAA2
:1022700011541DBF15EA1357AC42AF4239E0E419BF
:1022800023EA455343F48013C90241F0004141EA77
:10229000505EC7021100A7FB020200284FF00000A9
:1022A000EEFB01204FF00001E3FB072118BF42F0D5
:1022B0000102401800214941E3FB0E01A4F58064AE
:1022C0000F0302D252004041494154F101046CDD38
:1022D000470872F1004250F1000051EB0451A1F5A2
:1022E00080115CBF41EA0C01B0BD4CEA05510020F1
:1022F000B0BD05EA1357AC4214BFAF4241E050EA0B
:10230000410E1CBF52EA430E02E061460020B0BD00
:1023100024423C441BD15FEA070EF6D0090302BFFA
:1023200001460020AEF1140EB1FA81F7AEEB0704BE
:1023300001FA07FE0C37C7F1200100FA07F7C84081
:102340004EEA000E23EA455343F48013A2E733F02C
:102350000043B3FA83F704BFB2FA82FE77440B3F1F
:10236000E41BB7F1200E2FBF02FA0EF3BB40C7F1FA
:10237000200E22FA0EFE38BF43EA0E03BA40641C58
:1023800082E750EA410E14BF52EA430E6FF000019B
:102390004FF4001717EB430F8ABF194617EB410F95
:1023A000B5E74CEA05510020B0BDD4F10104B4F109
:1023B00020070FDAC4F12007520828BF42F00102BB
:1023C00010FA07F501FA07F7E1BF2A43E040384366
:1023D000E1400FE0352C98DCC7F1200452EA4002BE
:1023E00020FA07F218BF42F0010231FA07F0A140CB
:1023F0000A43002172F1004250F1000051EB0C0140
:10240000B0BD0268531C036011707047C1F30A53DA
:1024100040F2FE329B1A14DDD3F120034FEAE17241
:1024200008DDC90241EA505141F00040D84080180F
:102430005040704703F2E13010B1D24382F00040C7
:1024400070470020704700002DE9F84304000D009C
:10245000200040B2002808D0022828D016D3042833
:1024600047D035D3052855D065E0DFF81402016860
:1024700051F4806101604FF44071662000F030FA41
:102480004FF44071672000F02BFA54E0DFF8F001C0
:10249000016851F4006101604FF44071432000F085
:1024A0001FFA4FF44071442000F01AFA43E0DFF8BD
:1024B000D001016851F4805101604FF440716320F4
:1024C00000F00EFA4FF44071622000F009FA32E099
:1024D000DFF8AC01016851F4005101604FF4407124
:1024E000502000F0FDF94FF44071512000F0F8F950
:1024F00021E0DFF89001016851F4806101604FF440
:1025000040714E2000F0ECF94FF440714F2000F084
:10251000E7F910E0DFF86C01016851F40061016037
:102520004FF44071892000F0DBF94FF440718820AE
:1025300000F0D6F9FFE7DFF85061200040B256F80E
:102540002000C07810F0F300210049B256F82110A5
:10255000C870200040B256F820008078210049B2AF
:1025600056F821108870200040B2002803D02000C7
:1025700040B2012806D1DFF8140107684FF47A70E1
:10258000474305E0DFF8080107684FF47A704743D6
:102590002801B7FBF0F8404680B2B0F5005F02DBDF
:1025A00041F6FF708046B7FBF5F9404680B2B9EBC3
:1025B0000019484680B2202803DBDC21354801F0B1
:1025C00071FC200040B256F82000007810F0E000C6
:1025D000C8F304210143220052B256F822201170A0
:1025E000210049B256F8211081F80180210049B23A
:1025F00056F82110897A11F0E00119F01F020A4300
:1026000023005BB256F823309A72220052B256F879
:102610002220127C52F0880223005BB256F823304D
:102620001A74220052B256F82220D27852F00C02CC
:1026300023005BB256F82330DA70BDE8F183124A0A
:1026400003005BB252F823301B791B06F7D5030059
:102650005BB252F82320D171704770B504000D00B1
:1026600016003000461E002809D095F90000010030
:1026700049B2200040B2FFF7E2FF6D1CF1E770BDE8
:102680003480044028800440200CFF1F1CC4FF1F1E
:1026900024C4FF1FDCB800002DE9F84304000D003E
:1026A0002000800910F00700C0B246012000103859
:1026B00010F03F00C0B2C70017EB0608EDB218EBF0
:1026C000C500B0F1010948464146C0B2C9B28842CE
:1026D0000ED3002200214046C0B201F077FC4FF437
:1026E00081714046C0B200F0FBF818F10108EAE73A
:1026F000BDE8F1832DE9F84F04000D0016001F001E
:102700009DF92880DDF82C90DDF830A0404640B2DD
:10271000002802D15FF0010B0FE0404640B20128D3
:1027200002D15FF0020B08E0404640B2022802D11D
:102730005FF0040B01E05FF0100B404640B2002850
:1027400005D15A48854202D35948A8421FD2404673
:1027500040B2012809D15548854206D35548A842C0
:1027600003D315F00300032811D1404640B20228DC
:1027700009D14E48854206D34F48A84203D315F0ED
:102780000300002803D061214C4801F08BFBB9F510
:10279000004F03D36321494801F084FB4848016896
:1027A00051F0020101604748016851F002010160E7
:1027B0004548210049B249014550210049B249012B
:1027C00001440E610021220052B252010244918064
:1027D0005946C9B2220052B2520102449182414686
:1027E00049B2090211F4E061424652B212F0070206
:1027F0001143220052B252010244D1804946490499
:10280000490C220052B252010244D1824946490485
:10281000490C220052B252010244D1832B490A686A
:1028200032F080020A605946C9B2220052B2520107
:10283000024491600021220052B252010244D16050
:102840005FEACA7102D4D9F1000100E00021220040
:1028500052B25201024491614CF20A01220052B27A
:102860005201104481833800C0B24009313050F029
:1028700080001749220052B2885416493800C0B26D
:1028800000F02EF85946C9B22800FFF705FF12499B
:1028900001220B6812FA04F083430B600F480168B1
:1028A000A2400A430260BDE8F18F000010F00F4023
:1028B00013F10F4012F10F4010F10F40FCB6000071
:1028C000408004403C800440009000400080004074
:1028D00000100240000101000C80004024800040F4
:1028E00030B42B4B1C684FF400750200D2B2520971
:1028F00095402C431C60274B0200D2B2521153F872
:102900002240012510F01F029540C4F8A05002009B
:10291000D2B2521153F822200300DBB213F01F038E
:1029200042F8231030BC704730B4194B1C684FF488
:1029300000750200D2B2520995402C431C60154B21
:102940000200D2B2521153F82240012510F01F02AA
:102950009540C4F8A05031F4E0610200D2B25211A7
:1029600053F822200400E4B214F01F0452F824208B
:1029700012F4E06211430200D2B2521153F8222045
:102980000300DBB213F01F0342F8231030BC704782
:10299000388004400C0CFF1FC2175040801AB0FA58
:1029A00080F10AD08840D1F19D01D20742EAC1519D
:1029B000020672F1004241EB1020704710B5FF2370
:1029C00013EAD0541DBF13EAD1529C429A4239E017
:1029D000A41ADA0780EA0103134042EA012142EA1D
:1029E0000020421A3CBF641E01EB4202090AB2FBFE
:1029F000F1FE01FB1E221202B2FBF1F001FB1022DC
:102A00006EF30F201202B2FBF1FE4EEA00207F347B
:102A100006DDFE2C24DA53EA500050EBC45010BD02
:102A2000D4F1020401FB1E2240F08071192C1DDC40
:102A300021FA04F0C4F12004A140114371F10042D5
:102A4000584110BD9C421ABF03EAD1529A420FE08E
:102A500080EA010E0EF00043400004D0490016D178
:102A600043F0FF4010BD490008BFD343180010BD1C
:102A70009C4205D1D21AF7D001F00041484010BD68
:102A80004A0212BF0846484000F0004010BD4AB953
:102A90000902B1FA81F2914044B1A418C00140F09A
:102AA00000409EE7C90141F0004152420002B0FAE5
:102AB00080F4A040141B94E790EA010F41F12883B1
:102AC00081F00041421A3CBF801A89184FF0004C37
:102AD000C0F3C752FF2A24D0C1F3C75313B3D21A8D
:102AE000D2F1190327DD4CEA01214CFA03F321EA64
:102AF0000303D140C20D4CEA0020401834BF20EA45
:102B00000C004CEA5000D20553EA006373EB0C0C46
:102B100052EB1020420012F1807F38BF7047C00D89
:102B2000C0057047490212BF9A4200EB5120F8E7F6
:102B3000D2F11703D9D57047FF2212EAD05C1DBF2E
:102B400012EAD153944593422BE09C44D30780EA88
:102B500001021A4043EA002043EA0121A1FB0030B0
:102B6000C04238BF40007CF17F010BDBFE294ADA0E
:102B70005B0842EAC15153EA006373F1004C51EB28
:102B800010207047D1F1080CDCF120012FDB5B082D
:102B900010FA01F10B4320FA0CF073F1004150419F
:102BA000704794451CBF02EAD153934280EA010268
:102BB00002F000421DD0400019D0490017D05BB987
:102BC000634514D00902B1FA81F39940BCEB030CC0
:102BD000C00140F00040C1E70002B0FA80FC10FAEA
:102BE0000CF0B3EB0C0CC90141F00041B6E710004A
:102BF000704740000AD0490008D010F1807F94BF90
:102C000011F1807F02E042F0FF407047D0437047EF
:102C10004FF0807C1CEB400F94BF1CEB410F05E094
:102C200040EA010C1CEB0C0F01D28842704718BF20
:102C3000814270472DE9F84300242000C0B20828E3
:102C400008DA0022012114F14000C0B201F0BEF9FF
:102C5000641CF2E700220121492001F0B7F90122AA
:102C600001214A2001F0B2F9012201214B2001F09B
:102C7000ADF9002201214C2001F0A8F90022012128
:102C80004D2001F0A3F94FF4A0714920FFF728FE71
:102C90004FF4A0714A20FFF723FE4FF4A0714B20A0
:102CA000FFF71EFE4FF4A0714C20FFF719FEDFF86E
:102CB000000A00210160012101604FF4FA7001F067
:102CC000ACFADFF8D85901202860DFF8D469002079
:102CD0003060DFF8D07900203860DFF8CC8911202F
:102CE00088F80000DFF8C4990020C9F8000001202E
:102CF000C9F8000001203860782001F08EFA012028
:102D000028600020306000203860B12088F8000082
:102D10000020C9F800000120C9F800000120386037
:102D2000012028600120306000203860052088F8EC
:102D300000000020C9F800000120C9F800000120AF
:102D400038600120286001203060002038603A207F
:102D500088F800000020C9F800000120C9F8000030
:102D60000120386001202860012030600020386098
:102D70003A2088F800000020C9F800000120C9F8B6
:102D80000000012038600120286000203060002011
:102D90003860B22088F800000020C9F80000012047
:102DA000C9F800000120386001202860012030604F
:102DB00000203860052088F800000020C9F80000D5
:102DC0000120C9F80000012038600120286001209E
:102DD0003060002038603A2088F800000020C9F8F0
:102DE00000000120C9F8000001203860012028609F
:102DF00001203060002038603A2088F80000002070
:102E0000C9F800000120C9F8000001203860012045
:102E100028600020306000203860B32088F800006F
:102E20000020C9F800000120C9F800000120386026
:102E3000012028600120306000203860052088F8DB
:102E400000000020C9F800000120C9F8000001209E
:102E500038600120286001203060002038603A206E
:102E600088F800000020C9F800000120C9F800001F
:102E70000120386001202860012030600020386087
:102E80003A2088F800000020C9F800000120C9F8A5
:102E900000000120386001202860012030600020FF
:102EA0003860052088F800000020C9F800000120E3
:102EB000C9F800000120386001202860012030603E
:102EC000002038603A2088F800000020C9F800008F
:102ED0000120C9F80000012038600120286001208D
:102EE0003060002038603A2088F800000020C9F8DF
:102EF00000000120C9F8000001203860012028608E
:102F00000020306000203860B42088F800000020E5
:102F1000C9F800000120C9F8000001203860012034
:102F200028600120306000203860072088F8000009
:102F30000020C9F800000120C9F800000120386015
:102F4000012028600020306000203860C02088F810
:102F500000000020C9F800000120C9F8000001208D
:102F6000386001202860012030600020386028206F
:102F700088F800000020C9F800000120C9F800000E
:102F80000120386001202860012030600020386076
:102F9000082088F800000020C9F800000120C9F8C6
:102FA00000000120386001202860012030600020EE
:102FB0003860842088F800000020C9F80000012053
:102FC000C9F800000120386001202860002030602E
:102FD00000203860C12088F800000020C9F80000F7
:102FE0000120C9F80000012038600120286001207C
:102FF000306000203860C02088F800000020C9F848
:1030000000000120C9F8000001203860012028607C
:103010000020306000203860C22088F800000020C6
:10302000C9F800000120C9F8000001203860012023
:10303000286001203060002038600C2088F80000F3
:103040000020C9F800000120C9F800000120386004
:10305000012028600120306000203860002088F8BE
:1030600000000020C9F800000120C9F8000001207C
:103070003860012028600020306000203860C320C4
:1030800088F800000020C9F800000120C9F80000FD
:103090000120386001202860012030600020386065
:1030A0008C2088F800000020C9F800000120C9F831
:1030B00000000120386001202860012030600020DD
:1030C00038602A2088F800000020C9F8000001209C
:1030D000C9F800000120386001202860002030601D
:1030E00000203860C42088F800000020C9F80000E3
:1030F0000120C9F80000012038600120286001206B
:103100003060002038608A2088F800000020C9F86C
:1031100000000120C9F8000001203860012028606B
:103120000120306000203860EE2088F80000002088
:10313000C9F800000120C9F8000001203860012012
:1031400028600020306000203860C52088F800002A
:103150000020C9F800000120C9F8000001203860F3
:103160000120286001203060002038600C2088F8A1
:1031700000000020C9F800000120C9F8000001206B
:103180003860012028600020306000203860E02096
:1031900088F800000020C9F800000120C9F80000EC
:1031A0000120386001202860012030600020386054
:1031B000052088F800000020C9F800000120C9F8A7
:1031C00000000120386001202860012030600020CC
:1031D00038601A2088F800000020C9F8000001209B
:1031E000C9F800000120386001202860012030600B
:1031F000002038600C2088F800000020C9F800008A
:103200000120C9F800000120386001202860012059
:103210003060002038600E2088F800000020C9F8D7
:1032200000000120C9F8000001203860012028605A
:1032300001203060002038603A2088F8000000202B
:10324000C9F800000120C9F8000001203860012001
:1032500028600120306000203860342088F80000A9
:103260000020C9F800000120C9F8000001203860E2
:103270000120286001203060002038602D2088F86F
:1032800000000020C9F800000120C9F8000001205A
:1032900038600120286001203060002038602F2035
:1032A00088F800000020C9F800000120C9F80000DB
:1032B0000120386001202860012030600020386043
:1032C0002D2088F800000020C9F800000120C9F86E
:1032D00000000120386001202860012030600020BB
:1032E00038602A2088F800000020C9F8000001207A
:1032F000C9F80000012038600120286001203060FA
:10330000002038602F2088F800000020C9F8000055
:103310000120C9F800000120386001202860012048
:103320003060002038603C2088F800000020C9F898
:1033300000000120C9F80000012038600120286049
:103340000120306000203860002088F80000002054
:10335000C9F800000120C9F80000012038600120F0
:1033600028600120306000203860012088F80000CB
:103370000020C9F800000120C9F8000001203860D1
:10338000012028600120306000203860022088F889
:1033900000000020C9F800000120C9F80000012049
:1033A0003860012028600120306000203860102043
:1033B00088F800000020C9F800000120C9F80000CA
:1033C0000120386001202860002030600020386033
:1033D000E12088F800000020C9F800000120C9F8A9
:1033E00000000120386001202860012030600020AA
:1033F0003860042088F800000020C9F8000001208F
:10340000C9F80000012038600120286001203060E8
:10341000002038601B2088F800000020C9F8000058
:103420000120C9F800000120386001202860012037
:103430003060002038600D2088F800000020C9F8B6
:1034400000000120C9F80000012038600120286038
:1034500001203060002038600E2088F80000002035
:10346000C9F800000120C9F80000012038600120DF
:10347000286001203060002038602D2088F800008E
:103480000020C9F800000120C9F8000001203860C0
:10349000012028600120306000203860292088F851
:1034A00000000020C9F800000120C9F80000012038
:1034B000386001202860012030600020386024201E
:1034C00088F800000020C9F800000120C9F80000B9
:1034D0000120386001202860012030600020386021
:1034E000292088F800000020C9F800000120C9F850
:1034F0000000012038600120286001203060002099
:103500003860282088F800000020C9F80000012059
:10351000C9F80000012038600120286001203060D7
:1035200000203860262088F800000020C9F800003C
:103530000120C9F800000120386001202860012026
:10354000306000203860312088F800000020C9F881
:1035500000000120C9F80000012038600120286027
:1035600001203060002038603B2088F800000020F7
:10357000C9F800000120C9F80000012038600120CE
:1035800028600120306000203860002088F80000AA
:103590000020C9F800000120C9F8000001203860AF
:1035A000012028600120306000203860002088F869
:1035B00000000020C9F800000120C9F80000012027
:1035C000386001202860012030600020386003202E
:1035D00088F800000020C9F800000120C9F80000A8
:1035E0000120386001202860012030600020386010
:1035F000122088F800000020C9F800000120C9F856
:103600000000012038600120286000203060002088
:1036100038603A2088F800000020C9F80000012036
:10362000C9F80000012038600120286001203060C6
:1036300000203860052088F800000020C9F800004C
:103640000120C9F800000120386001202860002016
:10365000306000203860292088F800000020C9F878
:1036600000000120C9F80000012038600120286016
:1036700000203060002038602C2088F800000020F6
:10368000C9F800000120C9F8000001203860DFF807
:10369000C807007800F00EF8BDE8F1832810FE435B
:1036A0003010FE432C10FE4380F00F402410FE43E8
:1036B0003410FE4370B504002000C0B2042804DBBF
:1036C000C821DFF8980700F0EDFBDFF88C070470E5
:1036D0002000C0B2002808D0022800F07C81C0F091
:1036E000BF80032800F03082E2E2DFF87407012196
:1036F0000160DFF8701700220A60DFF86C270023F2
:103700001360DFF8683736251D70DFF86457002630
:103710002E6001262E600126166001260660012615
:103720000E6000261660C8261E7000262E60012638
:103730002E60012616600126066000260E60002617
:1037400016602A261E7000262E6001262E60012695
:1037500016600126066001260E600026166000260F
:103760001E7000262E6001262E600126166001269E
:10377000066001260E600026166002261E700026D6
:103780002E6001262E6001261660012606600126A5
:103790000E600026166000261E7000262E60012690
:1037A0002E60012616600126066001260E600026A6
:1037B000166081261E7000262E6001262E600126CE
:1037C00016600126066000260E60002616602B2675
:1037D0001E7000262E6001262E600126166001262E
:1037E000066001260E600026166000261E70002668
:1037F0002E6001262E600126166001260660012635
:103800000E600026166003261E7000262E6001261C
:103810002E60012616600126066001260E60002635
:10382000166000261E7000262E6001262E600126DE
:1038300016600126066001200860002010608220CA
:10384000187000202860012028600120106080206E
:10385000DFF8201608808020DFF81C16088027E299
:10386000DFF8FC0501210160DFF8F81500220A608D
:10387000DFF8F42500231360DFF8F03536251D70DE
:10388000DFF8EC5500262E6001262E60012616601A
:103890000126066001260E6000261660A8261E700E
:1038A00000262E6001262E60012616600126066085
:1038B00000260E60002616602A261E7000262E6046
:1038C00001262E60012616600126066001260E6084
:1038D0000026166000261E7000262E6001262E602F
:1038E000012616600126066001260E60002616607D
:1038F00003261E7000262E6001262E60012616600B
:103900000126066001260E600026166000261E7045
:1039100000262E6001262E60012616600126066014
:1039200001260E600026166082261E7000262E607C
:1039300001262E60012616600126066000260E6014
:10394000002616602B261E7000262E6001262E6093
:10395000012616600126066001260E60002616600C
:1039600000261E7000262E6001262E60012616609D
:103970000126066001260E600026166002261E70D3
:1039800000262E6001262E600126166001260660A4
:1039900001260E600026166000261E7000262E608E
:1039A00001262E60012616600126066001200860AF
:1039B00000201060812018700020286001202860FD
:1039C000012010608020DFF8AC1408808020DFF830
:1039D000A81408806CE1DFF8880401210160DFF899
:1039E000841400220A60DFF8802400231360DFF8CB
:1039F0007C3436251D70DFF8785400262E600126B1
:103A00002E60012616600126066001260E60002643
:103A1000166008261E7000262E6001262E600126E4
:103A200016600126066000260E60002616602A2613
:103A30001E7000262E6001262E60012616600126CB
:103A4000066001260E600026166000261E70002605
:103A50002E6001262E6001261660012606600126D2
:103A60000E600026166002261E7000262E600126BB
:103A70002E60012616600126066001260E600026D3
:103A8000166000261E7000262E6001262E6001267C
:103A900016600126066001260E600026166081264B
:103AA0001E7000262E6001262E600126166001265B
:103AB000066000260E60002616602B261E7000266B
:103AC0002E6001262E600126166001260660012662
:103AD0000E600026166000261E7000262E6001264D
:103AE0002E60012616600126066001260E60002663
:103AF000166003261E7000262E6001262E60012609
:103B000016600126066001260E600026166000265B
:103B10001E7000262E6001262E60012616600126EA
:103B200006600120086000201060822018700020CC
:103B3000286001202860012010608020CD49088085
:103B40008020CD490880B3E0C54801210160C54906
:103B500000220A60C44A00231360C44B36251D703E
:103B6000C34D00262E6001262E6001261660012618
:103B7000066001260E600026166068261E7000266C
:103B80002E6001262E6001261660012606600026A2
:103B90000E60002616602A261E7000262E60012662
:103BA0002E60012616600126066001260E600026A2
:103BB000166000261E7000262E6001262E6001264B
:103BC00016600126066001260E6000261660032698
:103BD0001E7000262E6001262E600126166001262A
:103BE000066001260E600026166000261E70002664
:103BF0002E6001262E600126166001260660012631
:103C00000E600026166082261E7000262E60012699
:103C10002E60012616600126066000260E60002632
:103C200016602B261E7000262E6001262E600126AF
:103C300016600126066001260E600026166000262A
:103C40001E7000262E6001262E60012616600126B9
:103C5000066001260E600026166002261E700026F1
:103C60002E6001262E6001261660012606600126C0
:103C70000E600026166000261E7000262E600126AB
:103C80002E600126166001260660012008600020D3
:103C90001060812018700020286001202860012019
:103CA0001060802073490880802073490880FFE7F6
:103CB00070BD73B468480078C0070AD5BDF800002D
:103CC000C01CADF80000BDF80200801CADF8020079
:103CD00009E0BDF80000801CADF80000BDF802004E
:103CE000C01CADF802005E49012008605D4A00205A
:103CF00010605D4B002018605C4C2A2020705C4DE9
:103D00000020286001202860012018600120086040
:103D10000120106000201860BDF8000080B2000A89
:103D200020700020286001202860012018600120F8
:103D300008600120106000201860BDF800002070AD
:103D40000020286001202860012018600120086000
:103D50000120106000201860BDF80000BDF804606C
:103D600016FA80F0401E001220700020286001200A
:103D700028600120186001200860012010600020E8
:103D80001860BDF80060BDF804008619701E207030
:103D900000202860012028600120186001200860B0
:103DA00000201060002018602B2020700020286068
:103DB00001202860012018600120086001201060A7
:103DC00000201860BDF8020080B2000A20700020B8
:103DD000286001202860012018600120086001206F
:103DE000106000201860BDF80200207000202860DC
:103DF0000120286001201860012008600120106067
:103E000000201860BDF80200BDF8066016FA80F0C8
:103E1000401E001220700020286001202860012030
:103E20001860012008600120106000201860BDF8B3
:103E30000210BDF806004118481E207000202860BE
:103E4000012028600120186073BC70470948008871
:103E5000704709480088704720C9FF1F6CB50000F3
:103E60002810FE433010FE432C10FE4380F00F401C
:103E70002410FE434C0DFF1F4E0DFF1FDFF800F016
:103E8000850DFF1FDFF800F0AF0DFF1FBFF34F8F51
:103E900046490A6812F4E062454802430A60BFF3EB
:103EA0004F8FFEE738B504000D00002000F0CCF97C
:103EB0002A0021003F4800F007FA002000F0E4F952
:103EC0004FF47A7000F0A9F9F2E738B504000D005C
:103ED000210049B20320FEF7B2FB200032BD10B52D
:103EE0000024042000F004FA042000F03BFA00282B
:103EF00042D1002000F0A8F9042000F033FA012894
:103F000001D101200400002000F0BEF92A4800F091
:103F1000DBF94FF4FA7000F080F92000C0B20128FC
:103F2000EAD1042000F01EFA0028E5D1042000F0B8
:103F300019FA002806D1002000F0A6F9642000F04C
:103F40006CF9F3E7042000F00DFA012806D10020F7
:103F500000F09AF9322000F060F9F3E7174800F01A
:103F6000B3F9FFF78BFF642000F057F90020FFF74B
:103F700089FFFFF78BFFBFE710BD10B5104804683D
:103F8000012000F061F9012000F07EF90D492200C6
:103F9000D2B20F2042430A442100C9B20A4800F0BD
:103FA00093F94FF47A7000F038F9ECE70CED00E08B
:103FB0000400FA057CBA000024BB0000B0BA00007F
:103FC00004ED00E09C04FF1F18BA0000F8B50400DF
:103FD0000D0016004FF480712000C0B2FEF780FC87
:103FE000280040B2002812D144482100C9B249112A
:103FF00050F821102200D2B2521150F8220042692A
:10400000012314F01F0083409A434A6138E00121E4
:104010003A4A2000C0B2401152F820002300DBB21F
:104020005B1152F823305B6914F01F0711FA07F790
:104030003B4343613000C0B2002811D12000C0B220
:10404000401152F82000036814F01F00814033EA49
:1040500001012000C0B2401152F8200001600FE0C1
:104060002000C0B2401152F82000036814F01F0075
:10407000814019432000C0B2401152F82000016075
:10408000F1BD38B504001D4D2000C0B2401155F8F7
:104090002000406914F01F01C840C00703D47B21F1
:1040A0001748FFF7FFFE2000C0B2401155F820105E
:1040B000012214F01F008240CA6031BD38B50400EF
:1040C0000E4D2000C0B2401155F82000406914F098
:1040D0001F01C840C00703D58C210948FFF7E2FE45
:1040E0002000C0B2401155F82000006914F01F04F0
:1040F000E04010F0010032BD00000000B00BFF1FD7
:10410000BCB7000090EA010F7EF5DCAC81F0004105
:10411000431A4FF000423EBF5340C01AC91800BFB7
:10412000D3095FEAD05C13EB400F34BFB3EB410F10
:1041300040E07CEBD1530CD342EA012122D8D1EBF1
:10414000402009D3400A28BF5FEA500140EBCC5021
:104150007047401A15D04002B0FA80F2521C9040CD
:10416000400A4FEA3C23B3EB026384BF00EB7300C9
:1041700007E040F400001A16DB07C2F10102D0404C
:1041800018437047182BFCDC31FA03F202FA03F3F0
:10419000591A38BF42F00102D2EB40203CBF400028
:1041A000ACF1010C5FEACC5CC20572F100414CEB52
:1041B0005020704713EB400F0FD2C94209D0ACEB2F
:1041C000D153022B03DB4902172BDDDD70479143EE
:1041D000401AC042D5D10020704713EB410FD0D315
:1041E0006FF000007047000010B50400002C13D0E1
:1041F000B4F1807F03D329210E48FFF753FE0E4808
:10420000002101600D490C6000210D4A116005215B
:1042100001600168C903FCD510BD10B50400200081
:10422000441E002804D007480068FFF7DDFFF6E7CA
:1042300010BD000038B6000010E000E014E000E01F
:1042400018E000E01CC4FF1F10B50400200040B2BD
:10425000042808DA012201211A4823005BB2C05C5D
:10426000FFF7B4FE0FE0042004002000441E40B21B
:10427000002808D001220121124823005BB2C05C53
:10428000FFF7A4FEF1E710BD10B50400200040B216
:10429000042806DA0B48210049B2405CFFF7F1FE22
:1042A0000DE0042004002000441E40B2002806D087
:1042B0000448210049B2405CFFF7E3FEF3E710BD7C
:1042C00000000000400CFF1F0EB4C0B5024603A85A
:1042D00000210190009101AB0121044878440C3089
:1042E00000F00CF906BC5DF810FB00BF1778000069
:1042F00038B50400200040B208280EDA794D0022BB
:104300000021200040B2285CFFF760FE032120005E
:1043100040B2285CFEF708FB15E0082004002000EE
:10432000441E40B200280ED06E4D00220021200015
:1043300040B2285CFFF74AFE0321200040B2285C0F
:10434000FEF7F2FAEBE731BD10B504006548210035
:1043500049B2405CFFF7B2FE002801D1002000E026
:10436000012010BD10B50400200040B2FFF7ECFFA3
:1043700000280AD10A20FFF750FF200040B2FFF7C3
:10438000E3FF002801D1002000E0012010BD11B49E
:1043900055480178022920D0544A55499DF80030EB
:1043A0000C7802F814300B7802EB43029DF80130D0
:1043B00053700A78521C0A700A78142A01DB002212
:1043C0000A7009780A004B4B1B78D2B29A4202D18C
:1043D0000222027001E00122027011BC704710B489
:1043E0000100414A1078002801D100201FE03F4B16
:1043F0004048047813F814400C70047803EB44032D
:104400005B784B7003785B1C03700378142B01DB23
:1044100000230370364B1B7800781C00E4B2A042E6
:1044200002D10020107001E001201070012010BCAA
:10443000704738B50024200040B2082850DA200028
:1044400040B2FFF781FF002836D12B4D200040B24B
:10445000285C401C210049B26854200040B2285C0E
:1044600002283BDB200040B2285C022808D18DF8EE
:10447000004000208DF801000098FFF788FF2DE034
:10448000200040B2285C332828DB200040B2285CA2
:1044900033280CD18DF8004002208DF801000098DF
:1044A000FFF775FF0220210049B2685416E0022090
:1044B000210049B2685411E00F4D200040B2285C41
:1044C000022807DB8DF8004001208DF801000098DC
:1044D000FFF75DFF0020210049B26854641CAAE781
:1044E00031BD0000380CFF1F1EC9FF1F28C4FF1F6D
:1044F0001DC9FF1F1CC9FF1F50C4FF1F2DE9F0433A
:104500009FB000BF65A6269CDFF8E88A8DF83B4087
:10451000029100240B944FF0FF37044691461D464C
:104520000AE019F8011B0298A0470028029000F049
:10453000A1800B98401C0B9099F8000050B12528E1
:10454000EFD100210022059106920791089209916E
:104550000A9203E00B98A5E041F0010119F8010F60
:104560002028F9D023280CD02B2804D02D2805D0C2
:10457000302809D080E041F00201EFE741F004016A
:10458000ECE741F00801E9E741F01001E6E70D92A0
:104590000AE00D98404505DA00EB800002EB40028E
:1045A000303A0D9209F1010999F80020A2F130008A
:1045B0000A28EED399F800002E2818BF0C9726D1B0
:1045C00019F8010F2A2808D12868286009F1010983
:1045D00050F8042B28600C9219E02D280CBF09F12B
:1045E0000109002000220C920BE040B90C9A4245D0
:1045F00005DA02EB820203EB4203303B0C9309F134
:10460000010999F80030A3F130020A2AEDD3ADF880
:104610003810304699F8001000F084FE08B119F8FF
:10462000010B8DF83A009DF83A00682805D199F8F9
:10463000000068280CD1622106E06C2804BF99F8BC
:1046400000006C2804D171218DF83A1009F101099C
:1046500010A804902A4619F8013B6946204600F04C
:1046600061F838B910AA6946204600F091F900288F
:104670007FF562AF384615E02A2888D12A682A607B
:1046800052F8040B2A6000280D9003D540420D908B
:1046900041F0040109F101098CE70000686A6C74BB
:1046A0007A4C00001FB0BDE8F083622820D0682853
:1046B00011D06A2803D06C2827D0712825D108682A
:1046C000C01D20F007000860D0E900230830086012
:1046D000194610467047002A0A680A60106803D01D
:1046E000121D0A6000B217E0121D0A6080B217E0C6
:1046F000002A0A680A60106803D0121D0A6040B2DE
:104700000AE0121D0A60C0B20AE0002A0A680A60C4
:10471000106803D0121D0A60C1177047121D0A608D
:104720000021704770B51C460D46B4F125002E6976
:10473000114600F01B811C386AD0001F022867D97F
:10474000133843D0093863D0801E16D0401E1ED0C7
:10475000401E02285CD9001F19D0401F00F0838042
:10476000401E33D0401E00F0CD80C01E00F0DC8023
:10477000801E2BD0C01E29D0FEE06869421C6A61F1
:104780000A680A6052F8043B0A603354FEE095F868
:104790003A000122FFF789FFC5E900010023994291
:1047A00004DA6869411C69612D220DE0288F8107B8
:1047B00004D56869411C69612B2205E0C00722D538
:1047C0006869411C6961202232541CE095F83A0066
:1047D0000022FFF76AFFC5E9000195F838000107DC
:1047E00011D5D5E900230020834208BF82420AD0B8
:1047F00044F02000782806D1686930213154401CEB
:10480000421C6A613454214668693044E86087E09C
:104810000868C01D20F007000860D0E900230830B8
:104820000860C5E90023D5E90001C80F04D0686914
:10483000411C69612D220DE0288F810704D568692C
:10484000411C69612B2205E0C00704D56869411C41
:1048500069612022325468693044E8602146284664
:1048600000F0C8F992E005F13A02507820B14FF01B
:10487000FF340FF6502062E01078622808D06828D4
:1048800024D06A2812D06C282ED071280ED02BE0AC
:104890000A680A6052F8040B0A6020B94FF0FF342E
:1048A0000FF638204BE0E96A01706FE00A680A6091
:1048B00052F8040B0A6020B94FF0FF340FF61C20A9
:1048C0003DE0EA6AD317C0E900235FE00A680A60A6
:1048D00052F8040B0A6020B94FF0FF340FF6FC10B9
:1048E0002DE0E96A018051E00A680A6052F8040B81
:1048F0000A6020B94FF0FF340FF6E0101FE0E96ABC
:10490000016043E00A680A6052F8040B0A60002163
:1049100020F0000221F0FF33C5E90023EE6078218A
:10492000284600F0BBF831E00868086050F8044BF6
:104930000860EC603CB94FF0FF340FF6B81000F09F
:10494000FDFC201A70BD2E6B002E04D5204600F011
:1049500015FD044608E032460021204600F02AFDFD
:10496000002814BF041B3446AC610FE06869411C89
:1049700069612522325409E06969481C6861252271
:104980007254210002D0431C6B613454002070BD6E
:104990002DE9FC410F46064690467A6B7869396AE4
:1049A000BC6A121AB869521A796A121AF869521A4C
:1049B000121A97F83800141B41070FD42020002C3E
:1049C0008DF800000ADD254601236A463946304647
:1049D00000F060FC00285DD16D1EF5D17B69424678
:1049E0003946304600F056FC002853D130208DF86F
:1049F00000003D6A002D09DD01236A463946304634
:104A000000F048FC002845D16D1EF5D1BB69FA685D
:104A10003946304600F03EFC00283BD130208DF86E
:104A200000007D6A002D08DD01236A4639463046C4
:104A300000F030FC70BB6D1EF6D1F868B969FB69F7
:104A400042183946304600F025FC18BB30208DF85E
:104A50000000BD6A002D08DD01236A463946304654
:104A600000F018FCB0B96D1EF6D197F83800410778
:104A70000DD52020002C8DF8000008DD01236A46AA
:104A80003946304600F006FC20B9641EF6D10020FD
:104A9000BDE8F6814FF0FF30BDE8F6812DE9FC4717
:104AA00007468C463E69BCF16F0F08BF082405D04D
:104AB0004CF02000782814BF0A2410243C25D7E9A4
:104AC0000023BCF1640F18BFBCF1690F90469946F2
:104AD00006D100218B4203DAD8F1000869EB4909BD
:104AE0004FF0000AD14508BFD0451FD1386BE8B957
:104AF000082C4BD197F83800010747D530203B25CB
:104B000086F83B0042E000280ED597F8380000F008
:104B10001400102808D17B6B7969386A5B1A1B1A5C
:104B20009A1A002AC8BF3A62BDE8F3878DF800C020
:104B3000404649462246E31700F068FC3032D0B2C6
:104B40006D1E3A28019504DB9DF80000A0F151018B
:104B50008A187255404649462246E31700F056FC33
:104B600089468046D14508BFD04503D0F868711901
:104B70008842DDD3082C09D197F83800010705D504
:104B8000705D302802D06D1E30207055C5F13C029A
:104B9000BA617119F960386B8242B4DA821A3A62EA
:104BA0004FF6EF70398F01403987BDE8F3872DE963
:104BB000D04306460F4614464FF00008DFF83894FD
:104BC00012E0E00707D542464B4630463946FDF72E
:104BD00047FB06460F464046494642464B46FDF7D0
:104BE0003FFB641080468946002CEAD130463946A6
:104BF000BDE8D0832DE9F34F054641F020048DB088
:104C0000D5E90089612C02AE09D0286B002848BF85
:104C1000062003D408BF672C01D101202863D5E901
:104C2000002358004015401C0ED119030CD003205E
:104C3000A8619DF8381061391A2902D20FF2D061AB
:104C400011E00FF2D0610EE059004915491C0FD157
:104C500018030DD10320A8619DF8381061391A2975
:104C600014D30FF2B861E868032200F0E7FCD3E147
:104C7000194621F00043B3F5801F10460DD20027DE
:104C8000BB4208BFBA42019703D111E00FF288611D
:104C9000E9E701AA00F026FD0AE0DFF8607307EB00
:104CA0001352DFF85C3301921940DFF8583319438F
:104CB000C5E90001612C0ED1E86830210170821C29
:104CC000EA609DF8381061290CBF782158214170A5
:104CD0006869801C6861D5E900AB2BF000430020B7
:104CE0002AF00002834204BF8242002300F05B816D
:104CF000612C40F0AA80286B002847BF2121009139
:104D0000401C0090009F7F1C404649460022002323
:104D100000F020FDD94601998DF8082038BF89F0B0
:104D20000049091F002FD04601910DF1090040F301
:104D30004981B349DFF8D0B20C9106464046494656
:104D40000022002300F01EFD80F03B814800400D52
:104D500000F11C0211D0002A0FDD40F2FF708242E8
:104D600005DB09F0004040EA0B01002013E00C983D
:104D7000014041EA025140460DE029F00043002085
:104D800028F00002834208BF82420FBF40461C2227
:104D9000404600F00FFD80468946FDF737FBFF1FB8
:104DA000002F044609DD00F0A3FD02460B464046F5
:104DB000494600F0AFFD80468946F01D072104E01A
:104DC00004F00F0200F8012D2411002C01DD491E12
:104DD000F6D5491E5CBF002200F8012DF9D5ECE0A4
:104DE0000020194602AA0A4400E05B1E12F801499D
:104DF000491E8442F9D00F2804D10DF10900425C0C
:104E0000521C4254002904D50198001D02AE5B1CBF
:104E10000190591E12D49DF838007218A0F13A077B
:104E2000147804F130085FFA88F43A2CA8BFB8442B
:104E3000491E02F80189F3D58DF83800286B002847
:104E400040F1B080591E2963ACE04046494600223B
:104E5000002300F07FFC019938BF89F0004947F238
:104E600097504143694A91FBF2F20192D2F1070255
:104E700004DD40464946FFF79AFE0AE05242002010
:104E80006349FFF794FE02460B464046494600F050
:104E9000B3FD8046662C286BDFF878B106BF019F12
:104EA0000A3706273F18142FC8BF142730208DF863
:104EB000080089460DF1090000E03046002F34DD7E
:104EC00006464046494600F0BBFE01460A4606F14A
:104ED000080304200A26B2FBF6F606EB860EA2EBC8
:104EE0004E02303203F8012C0A22B6FBF2F202EB3A
:104EF000820EA6EB4E063036401E03F8026DE9D155
:104F0000083F002F03F10806D7DD0846FDF77EF9BC
:104F100002460B464046494600F0FCFC00225B4638
:104F2000FDF79EF980468946CBE70DF10901401A4D
:104F30000DF1090604E00199491E401E0191761CFD
:104F400031783029F7D0662C02D10199491C03E051
:104F5000652C0CBF012100212B6BCB189842B8BFE8
:104F6000431E002B1ED4834204DAF05C3528A8BF10
:104F7000392000DA30201946721E02EB010800E0E9
:104F80005B1E18F80199491E8145F9D0392802D1D4
:104F9000705C401C7054002904D50198401C1646D2
:104FA0005B1C0190019800B200901BB29DF8381074
:104FB0003246284600F034F82EE0C61D002F3FF799
:104FC000BDAE30460DF10901401A009903468842F2
:104FD000C8BF0B46002B0DF109063FF52FAF8342EA
:104FE000BFF6FEAE0DF10900C15C07297FF7F8AEF0
:104FF0000F20F6E6CBCCCC0C0000244002FCFFFFD7
:10500000FFFF0F800000E03F0000F07FA08601005E
:105010000000F03F84D797410FB0BDE8F08F00004B
:105020002DE9F84783B006468A461746984600F0B1
:105030001BFEB8F1000F406A356B90F8009002DC5F
:105040004FF00108B6A74AF02000BDF930406628AD
:1050500008BF641C15D0672840F0848014F1040F49
:10506000C0F28680AC4280F2838096F83800641CDF
:10507000010702D4A845B8BF454620B22D1A48BF43
:1050800000250FFA84FAF068B169BAF1000F25DC47
:105090004A1C30234354002D03DC96F838000107E6
:1050A00003D5F06800F80290521C15EB0A0FB8BF48
:1050B0006C4220B2441941424445B8BFA046B26197
:1050C00071620FFA88F5F561F068B3692A463946CE
:1050D000184400F0B3FA641BB462C4E022B29045F5
:1050E000084417DA4246394600F0A8FAB06940444D
:1050F000B061AAEB0801002D716203DC96F838104C
:105100000A0705D5F16801F80090F069401CF061CC
:10511000B562A8E0394600F091FAB069002D50441C
:10512000A8EB040803DC96F838100A0703D5F168E9
:1051300001F80090401CB0610FFA88F08542F368D6
:10514000B069B8BFA8460FFA88F207EB0A01184405
:1051500000F074FAB1690FFA88F00144B161281ABD
:10516000706280E0BAF1610F14D14FF0700A16E05E
:10517000A84504DA96F838100A0758BF45466D1E50
:1051800048BF0025BAF1670F14BF4FF0450A4FF032
:10519000650A04E0BAF1410F08BF4FF0500AB16947
:1051A000F368481CB061002D17F8012B5A5403DC3A
:1051B00096F838100A071BD5F168431CB36101F853
:1051C0000090002D14DDA8F101080FFA88F039468F
:1051D0008542F768B8BFA8460FFA88F2F81800F0C1
:1051E0002DFAB0690FFA88F108446D1AB061756242
:1051F000F068B1690844002C80F800A003D42B2289
:105200004270811C03E02D2141706442811C00200A
:105210006A460AE023460A2493FBF4F404EB84056F
:10522000A3EB450302F8013B401C24B2002CF1DC47
:10523000012806DC4AF02002652A04BF302201F86A
:10524000012B48B9302001F8010B07E0401E1DF882
:105250000030303301F8013B0028F7DCF268B06918
:105260001044091AF16196F8380000F01400102873
:105270000DD17269B169706A8A18F1698218B06AD1
:105280008A188218706B8242BCBF821A326204B0E4
:10529000BDE8F087F8B505460E4617461C460020C7
:1052A00074B117F8011BB068A847B06030B1F06A5C
:1052B000401CF0620020641EF3D1F2BD4FF0FF30BD
:1052C000F2BD00007072696E74665F733A20256EDD
:1052D00020646973616C6C6F776564007072696ECD
:1052E00074663A2062616420256E20617267756D74
:1052F000656E74007072696E74665F733A206261E5
:105300006420257320617267756D656E74000000FE
:105310006E616E004E414E00696E6600494E460059
:10532000300000000278C9B28A421AB11CBF10F8DE
:10533000012FF9E718BF00207047000080B500B9C1
:1053400006A005490B681BB122220021984701E005
:1053500000F08EFC222002BD0CC9FF1F636F6E732C
:10536000747261696E742068616E646C65723A2053
:10537000626164206D6573736167650000F101030C
:10538000810704D010F8011B820781B1FAD10268AD
:10539000A2F10131914311F0803104BF50F8042F84
:1053A000F6E709BAB1FA81F100EBD100401CC01A4E
:1053B00070470000C9B2830706D0521E22D310F8EE
:1053C000013B9942F7D11FE0083A13D302F10402DE
:1053D00041EA012141EA014150F8043B121F21BF7B
:1053E0004B40A3F1013C2CEA030C1CF0803FF3D0AE
:1053F000C9B2001F083210F8013B521E28BF91EAC3
:10540000030FF8D818BF0120401E7047BBBBE1B1A5
:10541000B2F5803F80F07E80022A1ED98C46B1FB17
:10542000F2F102FB11C31B0443EA1043B3FBF2FC8D
:1054300002FB1C3380B240EA0343B3FBF2F002FBF1
:10544000103240EA0C4000237047022A05D98446F6
:10545000B0FBF2F002FB10C270474AB105D100F078
:10546000010249085FEA30007047002200237047BC
:1054700000F002BC0B0002000021002070479042A7
:1054800071EB030CF6D3B3F5803F2FD2F0B5B3FA2E
:1054900083F7B1FA81F4A7F10F0E3D1B5340CEF113
:1054A000200602FA0EF2F3415340B5F10F0746D839
:1054B0000F3C2C444140C4F12006A040F141414042
:1054C000B1FBF3F603FB1611A2FB0645001BA94135
:1054D00002D2761E8018594180EA010221FA0EF3A9
:1054E00062FA0EF200215A403046F0BD30B4B1FBF2
:1054F000F3FC03FB1C11A2FB0C45001BA94103D2CA
:10550000ACF1010C8018594130BC02460B46604694
:1055100000217047B2F1807F65D3F0B5B2FA82F70F
:10552000B1FA81F4C7F10F063D1B22FA06F307F129
:10553000110EF24120355A40B5F10F07B8D941405C
:10554000C4F12006A040F1414140B1FBF3FC03FB54
:105550001C11A2FB0C45001BA94103D2BCF1010C9C
:10556000801859410F2F12D30F3FC90341EA504110
:10557000B1FBF3F603FB1611A2FB0645D4EBC030DA
:10558000A94102D2761E8018594146EACC3C07B3A5
:105590004140C7F12006B840F1414140B1FBF3F66C
:1055A00003FB1611A2FB0645001BA94102D2761E81
:1055B0008018594180EA010221FA0EF3C7F1200454
:1055C00062FA0EF20CFA07F05A402CFA04F130435A
:1055D000F0BD80EA010221FA0EF3002162FA0EF218
:1055E00060465A40F0BD8C46B1FBF2F102FB11C39C
:1055F0001B0243EA1063B3FBF2FC02FB1C331B02E9
:105600004CEA002043EA1063B3FBF2FC02FB1C33BC
:105610001B024CEA002043EA1063B3FBF2FC02FBDE
:105620001C331B024CEA002043EA1063B3FBF2FC7C
:1056300002FB1C324CEA00200023704762B38B0748
:1056400008D0521E11F8013B00F8013B00F0248005
:105650008B07F6D1830740F0208000BF103A07D3B4
:1056600030B4B1E83810103AA0E83810F9D230BCA4
:10567000530724BFB1E80810A0E8081044BF51F850
:10568000043B40F8043BD20724BF31F8022B20F83A
:10569000022B44BF0B7803707047121F17D35B00B7
:1056A00009D151F8043B20F8023B1B0C121F20F8D3
:1056B000023BF6D20BE051F8043B00F8013B1B0A19
:1056C00020F8023B1B0C121F00F8013BF3D238BF3D
:1056D000121D521E24BF11F8013B00F8013BF8D8FF
:1056E0007047000010B5144600F002F8226010BDAB
:1056F000C1F30A5343B14A0012F5001F28D2A3F2A6
:10570000FE32A1EB0251704750EA410C20D001F06B
:10571000004C31EA0C01B1FA81F204BFB0FA80F317
:10572000D2180B3AB2F120032CBF00FA03F19140DA
:1057300041EA0C013EBFC2F1200C20FA0CF31943E0
:105740009040524240F2FD33D21A01EB03517047B0
:10575000002270474FF4001C1CEB410F94BF1CEB60
:10576000430F09E041EA030C50EA4C0C52EA0C0CDE
:1057700003D2994208BF9042704714BF8B428242C5
:10578000704700004FF4001C1CEB410F94BF1CEB52
:10579000430F09E041EA030C50EA4C0C52EA0C0CAE
:1057A00003D28B4208BF8242704714BF9942904295
:1057B00070470000124254D440F2FF7C1CEA11539F
:1057C0000FD0634531D09B1863453CBF01EB0251BC
:1057D000704701F0004141EA0C510020AFF3008016
:1057E000704750EA410320D001F0004C91EA0C01CF
:1057F0001CD0B1FA81F30B3B9A420DD9D21A9940D1
:1058000051EA0C01C3F1200C20FA0CFC61449840D1
:10581000531C40F2FF7CD7E7914041EA0C01C2F1F2
:10582000200C20FA0CF3194390407047B0FA80F333
:105830001533202BE0D3202AEED3203A203B9A4286
:1058400009D9D21A00FA03F141EA0C010020531CD5
:1058500040F2FF7CB8E700FA02F141EA0C010020B7
:105860007047524240F2FF7C1CEA11530DD0634551
:10587000DBD0B2EB030C3CBFA1EB025170470CF143
:10588000010221EA035141F4801150EA410CCCD0CD
:1058900001F0004C352A27DC30B481EA0C01B2F16A
:1058A000200309DAC2F12003044601FA03F5D040CF
:1058B0002843D1409C400CE0C3F12002450020FA6F
:1058C00003F418BF44F0010421FA03F091400C43A3
:1058D000002174F1004550F1000051EB0C0124420D
:1058E00030BC7FF47BAF70476146002076E7000054
:1058F000C11768B14840401AB0FA80F29040D21CFB
:10590000C907C2F5846241EA025202EBD021400588
:105910007047000070B44FF0004591EA030F40F16A
:10592000B5816B40841A71EB030603D2001BB141B1
:10593000121973414FF4001C1CEB410F34BF7CEB78
:10594000430442E00C0DA4EB1356352E4FDC45EA20
:10595000C323DB0A45EAC121C912B6F120050DDDDA
:1059600063FA05F6EB4086EA0305124218BF45F0DC
:105970000105C01851F100010CD213E062FA06F5DE
:10598000F2405540F3415A40B340F3405A4080182A
:10599000594107D349085FEA30005FEA350528BF5F
:1059A00045F0010501F58011420875F1004250F102
:1059B000000041EB04514E0016F5001F70BC38BFCB
:1059C00070470020090D090570471CEB410F10D2EC
:1059D00052EA43060BD0BCEB410F05D80C0DAB438C
:1059E000661E342EB6DD02E0AB438018594170BC10
:1059F000704770BC70470000F0B540F2FF7581EA57
:105A0000030C0CF0004C15EA11541DBF15EA135796
:105A1000AC42AF42E5E0BC41C1F31301C3F3130351
:105A2000801A994143F4801304D2641E4000494116
:105A300080185941C90241EA5051B1FBF3F603FB0A
:105A40001611A2FB0675D7EBC020A94102D2761E23
:105A500080185941C90241EA5051B1FBF3FE03FBE2
:105A60001E11A2FB0E75D7EBC020A94103D2AEF1E7
:105A7000010E80185941890241EA9051760546EAA3
:105A80008E2EB1FBF3F603FB1611A2FB0675D7EBC6
:105A90008020A94102D2761E80185941C90241EAEC
:105AA00050514EEA060EB1FBF3F603FB1611A2FBB2
:105AB0000675D7EBC020A94102D2761E8018594145
:105AC000C90241EA5051B1FBF3F703FB1711A2FBE6
:105AD0000735D3EBC020A94167F100070CBF004296
:105AE00047F0010766F3D5274FEA1E31B80814F5D1
:105AF000806412DDBD0775F1004250EB0E5051EB92
:105B0000045111F5801F5CBF41EA0C01F0BD4CF05F
:105B10007F6141F0E0410020F0BDBD076D0840EA23
:105B20000E5041F48011D4F10104B4F120060ADAD8
:105B3000C4F120060200E04001FA06F3E1401843F8
:105B4000B24015430EE0342C13DCC6F1200445EAC4
:105B500040056D0820FA06F2154321FA06F0A1402F
:105B60000D43002175F1004250F1000051EB0C0192
:105B7000F0BD00205FEA0C01F0BDCFB992185B4187
:105B8000B3FA83F704BFB2FA82F6BF190B3FB7F13D
:105B900020062FBF02FA06F3BB40C7F1200622FA07
:105BA00006F638BF3343BA401CB1E419641E33E72C
:105BB0007F4231F00041B1FA81F404BFB0FA80F6BF
:105BC000A4190B3CB4F120062FBF00FA06F1A14046
:105BD000C4F1200620FA06F638BF3143A0403C1B32
:105BE0001AE7AC421ABF05EA1357AF4212E050EA77
:105BF00041061CBF52EA4306BFE750EA4107304660
:105C000061461CBF41EA0551F0BD52EA430C08BF92
:105C1000C143F0BD00204FF4001616EB410F98BFB2
:105C200016EB430F08BF16EB410F24BFC14305E03D
:105C300016EB430F0CBF61464CEA0551F0BD000066
:105C4000400D491840EA81200CD2490DA1F5806130
:105C5000491C40F0004005DBD1F11F0154BFC84092
:105C6000C01770470020704700487047140DFF1F91
:105C7000012000F0C1B800007047000070B44FF080
:105C8000004591EA030F7FF54DAE6B40841A71EB2E
:105C9000030604D26E40001BB141121973414FF448
:105CA000001C1CEB410F34BF7CEB430683E00C0D62
:105CB000A4EB1356362E00F37C80012E45EAC32355
:105CC00041DC43EA525312BFD20292025B08240520
:105CD00045EAC12141EA5051D2EBC020994125D477
:105CE00007D1B0FA80F610FA06F162D00020203613
:105CF00008E0B1FA81F6B140C6F1200220FA02F2C2
:105D00001143B0404FEAF474B4EB465434F001064A
:105D10004FEA74040AD8D6F50016760D04F0004454
:105D2000F04061FA06F25040F1404840C00A40EAB3
:105D3000415021F0004128BF5FEA500550F10000BA
:105D400044EBD12135E0DB0A45EAC121C90AB6F1AD
:105D500020050EDD42EA0242120CC5F1200603FACC
:105D600006F6EB4042EA06056D42984161F10001FA
:105D70000DE062FA06F5F240554063FA06FC82EA4D
:105D80000C02F3405A406D42904161EB030111F463
:105D9000801F05D1641E620502D06D00404149415B
:105DA00021F48011430875F1004350F1000041EBEC
:105DB000045170BC70471CEB410F15D223F0004317
:105DC00052EA43060BD04FEA4C0CBCEB410F04D80F
:105DD0000C0D661E342EB7DDEBE7801A994150EAB0
:105DE000410608BF0021E4E708BF1CEB430F28BFB2
:105DF0006FF00001DDE700002021090326311820A3
:105E0000ABBEF9E730B404000D0013005A1E002B9E
:105E100004D02B7823706D1C641CF6E730BC7047EF
:105E200010B4040013005A1E002B02D02170641C11
:105E3000F8E710BC704770B4040025000E00002085
:105E400013005A1E002B07D028783378C31A761C0B
:105E50006D1C1800002BF3D070BC704790F9002027
:105E6000002A05D090F900208A4201D0401CF5E7B5
:105E700090F900007047F8B505000C00EE6AA642E4
:105E800032D02879002821D00123320015F13001C9
