:10000000F8FF002011040000872300008723000070
:100010008723000087230000872300008723000038
:100020008723000087230000872300008723000028
:100030008723000087230000872300008723000018
:100040008723000087230000872300008723000008
:10040000FFFFFFFFFFFFFFFFFFFFFFFFFEFFFFFFFD
:1004100062B605F0D1FAFEE710B500200400E4B2A0
:10042000082C08DA0022012114F14000C0B201F0CA
:1004300009FE641CF3E700220121492001F002FEBD
:10044000012201214A2001F0FDFD012201214B2062
:1004500001F0F8FD002201214C2001F0F3FD002203
:1004600001214D2001F0EEFD4FF4A071492001F073
:100470007DFE4FF4A0714A2001F078FE4FF4A07188
:100480004B2001F073FE4FF4A0714C2001F06EFE82
:100490000020DFF8241D08600120DFF81C1D086023
:1004A0004FF4FA7001F0D9FE0120DFF8101D08604A
:1004B0000020DFF80C1D08600020DFF8081D086030
:1004C0001120DFF8041D08700020DFF8001D08600F
:1004D0000120DFF8F81C08600120DFF8E81C086044
:1004E000782001F0BAFE0120DFF8D01C086000205F
:1004F000DFF8CC1C08600020DFF8C81C0860B120C1
:10050000DFF8C41C08700020DFF8C01C0860012060
:10051000DFF8B81C08600120DFF8A81C0860012083
:10052000DFF8981C08600120DFF8941C08600020A8
:10053000DFF8901C08600520DFF88C1C0870002094
:10054000DFF8881C08600120DFF8801C08600120AB
:10055000DFF8701C08600120DFF8601C08600120D3
:10056000DFF85C1C08600020DFF8581C08603A20A7
:10057000DFF8541C08700020DFF8501C08600120D0
:10058000DFF8481C08600120DFF8381C08600120F3
:10059000DFF8281C08600120DFF8241C0860002018
:1005A000DFF8201C08603A20DFF81C1C08700020CF
:1005B000DFF8181C08600120DFF8101C086001201B
:1005C000DFF8001C08600120DFF8F01B0860002045
:1005D000DFF8EC1B08600020DFF8E81B0860B220A1
:1005E000DFF8E41B08700020DFF8E01B0860012042
:1005F000DFF8D81B08600120DFF8C81B0860012065
:10060000DFF8B81B08600120DFF8B41B0860002089
:10061000DFF8B01B08600520DFF8AC1B0870002075
:10062000DFF8A81B08600120DFF8A01B086001208C
:10063000DFF8901B08600120DFF8801B08600120B4
:10064000DFF87C1B08600020DFF8781B08603A2088
:10065000DFF8741B08700020DFF8701B08600120B1
:10066000DFF8681B08600120DFF8581B08600120D4
:10067000DFF8481B08600120DFF8441B08600020F9
:10068000DFF8401B08603A20DFF83C1B08700020B0
:10069000DFF8381B08600120DFF8301B08600120FC
:1006A000DFF8201B08600120DFF8101B0860002025
:1006B000DFF80C1B08600020DFF8081B0860B3207F
:1006C000DFF8041B08700020DFF8001B0860012021
:1006D000DFF8F81A08600120DFF8E81A0860012046
:1006E000DFF8D81A08600120DFF8D41A086000206B
:1006F000DFF8D01A08600520DFF8CC1A0870002057
:10070000DFF8C81A08600120DFF8C01A086001206D
:10071000DFF8B01A08600120DFF8A01A0860012095
:10072000DFF89C1A08600020DFF8981A08603A2069
:10073000DFF8941A08700020DFF8901A0860012092
:10074000DFF8881A08600120DFF8781A08600120B5
:10075000DFF8681A08600120DFF8641A08600020DA
:10076000DFF8601A08603A20DFF85C1A0870002091
:10077000DFF8581A08600120DFF8501A08600120DD
:10078000DFF8401A08600120DFF8301A0860012005
:10079000DFF82C1A08600020DFF8281A086005200E
:1007A000DFF8241A08700020DFF8201A0860012002
:1007B000DFF8181A08600120DFF8081A0860012025
:1007C000DFF8F81908600120DFF8F419086000204C
:1007D000DFF8F01908603A20DFF8EC190870002003
:1007E000DFF8E81908600120DFF8E019086001204F
:1007F000DFF8D01908600120DFF8C0190860012077
:10080000DFF8BC1908600020DFF8B81908603A204A
:10081000DFF8B41908700020DFF8B0190860012073
:10082000DFF8A81908600120DFF898190860012096
:10083000DFF8881908600020DFF8841908600020BC
:10084000DFF880190860B420DFF87C1908700020F8
:10085000DFF8781908600120DFF8701908600120BE
:10086000DFF8601908600120DFF8501908600120E6
:10087000DFF84C1908600020DFF8481908600720ED
:10088000DFF8441908700020DFF8401908600120E3
:10089000DFF8381908600120DFF828190860012006
:1008A000DFF8181908600020DFF81419086000202C
:1008B000DFF810190860C020DFF80C19087000205C
:1008C000DFF8081908600120DFF80019086001202E
:1008D000DFF8F01808600120DFF8E0180860012058
:1008E000DFF8DC1808600020DFF8D818086028203E
:1008F000DFF8D41808700020DFF8D0180860012055
:10090000DFF8C81808600120DFF8B8180860012077
:10091000DFF8A81808600120DFF8A418086000209C
:10092000DFF8A01808600820DFF89C180870002085
:10093000DFF8981808600120DFF89018086001209F
:10094000DFF8801808600120DFF8701808600120C7
:10095000DFF86C1808600020DFF868180860842051
:10096000DFF8641808700020DFF8601808600120C4
:10097000DFF8581808600120DFF8481808600120E7
:10098000DFF8381808600020DFF83418086000200D
:10099000DFF830180860C120DFF82C18087000203C
:1009A000DFF8281808600120DFF82018086001200F
:1009B000DFF8101808600120DFF800180860012037
:1009C000DFF8FC1708600020DFF8F8170860C02087
:1009D000DFF8F41708700020DFF8F0170860012036
:1009E000DFF8E81708600120DFF8D8170860012059
:1009F000DFF8C81708600020DFF8C417086000207F
:100A0000DFF8C0170860C220DFF8BC1708700020AC
:100A1000DFF8B81708600120DFF8B0170860012080
:100A2000DFF8A01708600120DFF8901708600120A8
:100A3000DFF88C1708600020DFF8881708600C20AA
:100A4000DFF8841708700020DFF8801708600120A5
:100A5000DFF8781708600120DFF8681708600120C8
:100A6000DFF8581708600120DFF8541708600020ED
:100A7000DFF8501708600020DFF84C1708700020DE
:100A8000DFF8481708600120DFF8401708600120F0
:100A9000DFF8301708600120DFF820170860002019
:100AA000DFF81C1708600020DFF818170860C32063
:100AB000DFF8141708700020DFF810170860012015
:100AC000DFF8081708600120DFF8F8160860012039
:100AD000DFF8E81608600120DFF8E416086000205F
:100AE000DFF8E01608608C20DFF8DC1608700020C4
:100AF000DFF8D81608600120DFF8D0160860012062
:100B0000DFF8C01608600120DFF8B0160860012089
:100B1000DFF8AC1608600020DFF8A81608602A206D
:100B2000DFF8A41608700020DFF8A0160860012086
:100B3000DFF8981608600120DFF8881608600120A9
:100B4000DFF8781608600020DFF8741608600020CF
:100B5000DFF870160860C420DFF86C1608700020FB
:100B6000DFF8681608600120DFF8601608600120D1
:100B7000DFF8501608600120DFF8401608600120F9
:100B8000DFF83C1608600020DFF8381608608A207D
:100B9000DFF8341608700020DFF8301608600120F6
:100BA000DFF8281608600120DFF818160860012019
:100BB000DFF8081608600120DFF80416086000203E
:100BC000DFF800160860EE20DFF8FC150870002042
:100BD000DFF8F81508600120DFF8F0150860012043
:100BE000DFF8E01508600120DFF8D015086000206C
:100BF000DFF8CC1508600020DFF8C8150860C520B4
:100C0000DFF8C41508700020DFF8C0150860012067
:100C1000DFF8B81508600120DFF8A815086001208A
:100C2000DFF8981508600120DFF8941508600020AF
:100C3000DFF8901508600C20DFF88C150870002094
:100C4000DFF8881508600120DFF8801508600120B2
:100C5000DFF8701508600120DFF8601508600020DB
:100C6000DFF85C1508600020DFF858150860E02008
:100C7000DFF8541508700020DFF8501508600120D7
:100C8000DFF8481508600120DFF8381508600120FA
:100C9000DFF8281508600120DFF82415086000201F
:100CA000DFF8201508600520DFF81C15087000200B
:100CB000DFF8181508600120DFF810150860012022
:100CC000DFF8001508600120DFF8F014086001204B
:100CD000DFF8EC1408600020DFF8E81408601A2040
:100CE000DFF8E41408700020DFF8E0140860012049
:100CF000DFF8D81408600120DFF8C814086001206C
:100D0000DFF8B81408600120DFF8B4140860002090
:100D1000DFF8B01408600C20DFF8AC140870002075
:100D2000DFF8A81408600120DFF8A0140860012093
:100D3000DFF8901408600120DFF8801408600120BB
:100D4000DFF87C1408600020DFF8781408600E20BB
:100D5000DFF8741408700020DFF8701408600120B8
:100D6000DFF8681408600120DFF8581408600120DB
:100D7000DFF8481408600120DFF844140860002000
:100D8000DFF8401408603A20DFF83C1408700020B7
:100D9000DFF8381408600120DFF830140860012003
:100DA000DFF8201408600120DFF81014086001202B
:100DB000DFF80C1408600020DFF808140860342005
:100DC000DFF8041408700020DFF800140860012028
:100DD000DFF8F81308600120DFF8E813086001204D
:100DE000DFF8D81308600120DFF8D4130860002072
:100DF000DFF8D01308602D20DFF8CC130870002036
:100E0000DFF8C81308600120DFF8C0130860012074
:100E1000DFF8B01308600120DFF8A013086001209C
:100E2000DFF89C1308600020DFF8981308602F207B
:100E3000DFF8941308700020DFF890130860012099
:100E4000DFF8881308600120DFF8781308600120BC
:100E5000DFF8681308600120DFF8641308600020E1
:100E6000DFF8601308602D20DFF85C1308700020A5
:100E7000DFF8581308600120DFF8501308600120E4
:100E8000DFF8401308600120DFF83013086001200C
:100E9000DFF82C1308600020DFF8281308602A20F0
:100EA000DFF8241308700020DFF820130860012009
:100EB000DFF8181308600120DFF80813086001202C
:100EC000DFF8F81208600120DFF8F4120860002053
:100ED000DFF8F01208602F20BB4908700020BB49E2
:100EE00008600120B94908600120B6490860012066
:100EF000B24908600120B24908600020B149086089
:100F00003C20B14908700020B04908600120AF4979
:100F100008600120AB4908600120A8490860012051
:100F2000A74908600020A74908600020A64908706A
:100F30000020A64908600120A44908600120A149B9
:100F4000086001209D49086001209D49086000203B
:100F50009C49086001209C49087000209B4908605A
:100F600001209A49086001209649086001209349B0
:100F70000860012092490860002092490860022020
:100F80009149087000209149086001208F4908604C
:100F900001208C49086001208849086001208849A7
:100FA00008600020874908601020874908700020E9
:100FB0008649086001208549086001208149086050
:100FC00001207E49086000207D49086000207D499D
:100FD0000860E1207C49087000207C4908600120FD
:100FE0007A49086001207749086001207349086048
:100FF000012073490860002072490860042072498A
:1010000008700020714908600120704908600120C3
:101010006C4908600120694908600120684908603E
:101020000020684908601B20674908700020674954
:1010300008600120654908600120624908600120BC
:101040005E49086001205E49086000205D49086033
:101050000D205D49087000205C49086001205B4953
:1010600008600120574908600120544908600120A8
:10107000534908600020534908600E205249087007
:1010800000205249086001205049086001204D4964
:101090000860012049490860012049490860002092
:1010A000484908602D2048490870002047490860D9
:1010B00001204649086001204249086001203F495B
:1010C000086001203E49086000203E490860292050
:1010D0003D49087000203D49086001203B490860F7
:1010E0000120384908600120344908600120344952
:1010F000086000203349086024203349087000202C
:101100003249086001203149086001202D490860FA
:1011100001202A4908600120294908600020294946
:10112000086029202849087000202849086001200B
:101130002649086001202349086001201F490860F2
:1011400001201F49086000201E49086028201E4910
:10115000087000201D49086001201C49086001201A
:1011600018490860012015490860012014490860E9
:1011700000201449086026201349087000201349F4
:10118000086001201149086001200E490860012013
:101190000A49086001200A490860002009490860DE
:1011A00031200949087000200849086001200749DA
:1011B0000860012003490BE03410FE432810FE4371
:1011C0003010FE432C10FE4380F00F402410FE43ED
:1011D00008600120DFF80C1C08600120DFF8081C03
:1011E00008600020DFF8041C08603B20DFF8001CCA
:1011F00008700020DFF8FC1B08600120DFF8F41BFA
:1012000008600120DFF8E41B08600120DFF8D41B30
:1012100008600120DFF8D01B08600020DFF8CC1B3D
:1012200008600020DFF8C81B08700020DFF8C41B2E
:1012300008600120DFF8BC1B08600120DFF8AC1B50
:1012400008600120DFF89C1B08600120DFF8981B74
:1012500008600020DFF8941B08600020DFF8901B76
:1012600008700020DFF88C1B08600120DFF8841B69
:1012700008600120DFF8741B08600120DFF8641BA0
:1012800008600120DFF8601B08600020DFF85C1BAD
:1012900008600320DFF8581B08700020DFF8541B9B
:1012A00008600120DFF84C1B08600120DFF83C1BC0
:1012B00008600120DFF82C1B08600120DFF8281BE4
:1012C00008600020DFF8241B08601220DFF8201BD4
:1012D00008700020DFF81C1B08600120DFF8141BD9
:1012E00008600120DFF8041B08600120DFF8F41A11
:1012F00008600020DFF8F01A08600020DFF8EC1A20
:1013000008603A20DFF8E81A08700020DFF8E41AD5
:1013100008600120DFF8DC1A08600120DFF8CC1A31
:1013200008600120DFF8BC1A08600120DFF8B81A55
:1013300008600020DFF8B41A08600520DFF8B01A52
:1013400008700020DFF8AC1A08600120DFF8A41A4A
:1013500008600120DFF8941A08600120DFF8841A81
:1013600008600020DFF8801A08600020DFF87C1A8F
:1013700008602920DFF8781A08700020DFF8741A56
:1013800008600120DFF86C1A08600120DFF85C1AA1
:1013900008600120DFF84C1A08600020DFF8481AC6
:1013A00008600020DFF8441A08602C20DFF8401A9B
:1013B00008700020DFF83C1A08600120DFF8341ABA
:1013C00008600120DFF8241A0860DFF8540C007868
:1013D00000F001F810BD10B50400E4B2042C04DBE9
:1013E000C821DFF8400C00F064FFDFF8340C047013
:1013F000E4B2002C09D0022C00F0B982C0F05E816A
:10140000032C00F0EA8300F0EBBC0120DFF8D419D4
:1014100008600020DFF8D01908600020DFF8CC1940
:1014200008603620DFF8C81908700020DFF8C419FA
:1014300008600120DFF8BC1908600120DFF8AC1952
:1014400008600120DFF89C1908600120DFF8981976
:1014500008600020DFF894190860C820DFF89019B0
:1014600008700020DFF88C1908600120DFF884196B
:1014700008600120DFF8741908600120DFF86419A2
:1014800008600020DFF8601908600020DFF85C19B0
:1014900008602A20DFF8581908700020DFF8541976
:1014A00008600120DFF84C1908600120DFF83C19C2
:1014B00008600120DFF82C1908600120DFF82819E6
:1014C00008600020DFF8241908600020DFF82019E8
:1014D00008700020DFF81C1908600120DFF81419DB
:1014E00008600120DFF8041908600120DFF8F41813
:1014F00008600120DFF8F01808600020DFF8EC1821
:1015000008600220DFF8E81808700020DFF8E4180F
:1015100008600120DFF8DC1808600120DFF8CC1833
:1015200008600120DFF8BC1808600120DFF8B81857
:1015300008600020DFF8B41808600020DFF8B01859
:1015400008700020DFF8AC1808600120DFF8A4184C
:1015500008600120DFF8941808600120DFF8841883
:1015600008600120DFF8801808600020DFF87C1890
:1015700008608120DFF8781808700020DFF8741800
:1015800008600120DFF86C1808600120DFF85C18A3
:1015900008600120DFF84C1808600020DFF84818C8
:1015A00008600020DFF8441808602B20DFF840189E
:1015B00008700020DFF83C1808600120DFF83418BC
:1015C00008600120DFF8241808600120DFF81418F3
:1015D00008600120DFF8101808600020DFF80C1800
:1015E00008600020DFF8081808700020DFF80418F1
:1015F00008600120DFF8FC1708600120DFF8EC1715
:1016000008600120DFF8DC1708600120DFF8D81738
:1016100008600020DFF8D41708600320DFF8D01737
:1016200008700020DFF8CC1708600120DFF8C4172D
:1016300008600120DFF8B41708600120DFF8A41764
:1016400008600120DFF8A01708600020DFF89C1771
:1016500008600020DFF8981708700020DFF8941762
:1016600008600120DFF88C1708600120DFF87C1784
:1016700008600120DFF86C1708600120DFF86817A8
:1016800008600020DFF8641708608220DFF8601728
:1016900008700020DFF85C1708600120DFF854179D
:1016A00008600120DFF8441708608020DFF878190F
:1016B00008808020DFF87419088091E30120DFF8AA
:1016C000241708600020DFF8201708600020DFF8EA
:1016D0001C1708603620DFF8181708700020DFF8A4
:1016E000141708600120DFF80C1708600120DFF8EC
:1016F000FC1608600120DFF8EC1608600120DFF816
:10170000E81608600020DFF8E4160860A820DFF87B
:10171000E01608700020DFF8DC1608600120DFF812
:10172000D41608600120DFF8C41608600120DFF835
:10173000B41608600020DFF8B01608600020DFF85B
:10174000AC1608602A20DFF8A81608700020DFF821
:10175000A41608600120DFF89C1608600120DFF85D
:101760008C1608600120DFF87C1608600120DFF885
:10177000781608600020DFF8741608600020DFF893
:10178000701608700020DFF86C1608600120DFF882
:10179000641608600120DFF8541608600120DFF8A5
:1017A000441608600120DFF8401608600020DFF8CA
:1017B0003C1608600320DFF8381608700020DFF8B8
:1017C000341608600120DFF82C1608600120DFF8CD
:1017D0001C1608600120DFF80C1608600120DFF8F5
:1017E000081608600020DFF8041608600020DFF803
:1017F000001608700020DFF8FC1508600120DFF8F3
:10180000F41508600120DFF8E41508600120DFF816
:10181000D41508600120DFF8D01508600020DFF83B
:10182000CC1508608220DFF8C81508700020DFF8AA
:10183000C41508600120DFF8BC1508600120DFF83E
:10184000AC1508600120DFF89C1508600020DFF867
:10185000981508600020DFF8941508602B20DFF849
:10186000901508700020DFF88C1508600120DFF863
:10187000841508600120DFF8741508600120DFF886
:10188000641508600120DFF8601508600020DFF8AB
:101890005C1508600020DFF8581508700020DFF89C
:1018A000541508600120DFF84C1508600120DFF8AE
:1018B0003C1508600120DFF82C1508600120DFF8D6
:1018C000281508600020DFF8241508600220DFF8E2
:1018D000201508700020DFF81C1508600120DFF8D3
:1018E000141508600120DFF8041508600120DFF8F6
:1018F000F41408600120DFF8F01408600020DFF81D
:10190000EC1408600020DFF8E81408700020DFF80D
:10191000E41408600120DFF8DC1408600120DFF81F
:10192000CC1408600120DFF8BC1408600120DFF847
:10193000B81408600020DFF8B41408608120DFF8D4
:10194000B01408700020DFF8AC1408600120DFF844
:10195000A41408600120DFF8941408608020DFF8E8
:10196000C81608808020DFF8C416088038E20120FD
:10197000DFF8701408600020DFF86C1408600020A5
:10198000DFF8681408603620DFF86414087000205F
:10199000DFF8601408600120DFF8581408600120A7
:1019A000DFF8481408600120DFF8381408600120CF
:1019B000DFF8341408600020DFF8301408600820D5
:1019C000DFF82C1408700020DFF8281408600120CC
:1019D000DFF8201408600120DFF8101408600120EF
:1019E000DFF8001408600020DFF8FC130860002016
:1019F000DFF8F81308602A20DFF8F41308700020DD
:101A0000DFF8F01308600120DFF8E8130860012018
:101A1000DFF8D81308600120DFF8C8130860012040
:101A2000DFF8C41308600020DFF8C013086000204E
:101A3000DFF8BC1308700020DFF8B813086001203D
:101A4000DFF8B01308600120DFF8A0130860012060
:101A5000DFF8901308600120DFF88C130860002085
:101A6000DFF8881308600220DFF884130870002074
:101A7000DFF8801308600120DFF878130860012088
:101A8000DFF8681308600120DFF8581308600120B0
:101A9000DFF8541308600020DFF8501308600020BE
:101AA000DFF84C1308700020DFF8481308600120AD
:101AB000DFF8401308600120DFF8301308600120D0
:101AC000DFF8201308600120DFF81C1308600020F5
:101AD000DFF8181308608120DFF814130870002065
:101AE000DFF8101308600120DFF8081308600120F8
:101AF000DFF8F81208600120BA4908600020BA49EE
:101B000008600020B94908602B20B94908700020FE
:101B1000B84908600120B74908600120B34908604E
:101B20000120B04908600120AF4908600020AF499A
:101B300008600020AE4908700020AE49086001200E
:101B4000AC4908600120A94908600120A549086046
:101B50000120A54908600020A44908600320A44989
:101B600008700020A34908600120A24908600120F4
:101B70009E49086001209B49086001209A4908603D
:101B800000209A490860002099490870002099496E
:101B900008600120974908600120944908600120ED
:101BA0009049086001209049086000208F49086032
:101BB00082208F49087000208E49086001208D49DD
:101BC00008600120894908608020DFF85C140880E3
:101BD0008020DFF85814088002E101208149086064
:101BE0000020814908600020804908603620804933
:101BF000087000207F49086001207E4908600120AC
:101C00007A49086001207749086001207649086018
:101C100000207649086068207549087000207549E1
:101C200008600120734908600120704908600120A4
:101C30006C49086000206C49086000206B4908600E
:101C40002A206B49087000206A4908600120694910
:101C50000860012065490860012062490860012090
:101C600061490860002061490860002060490870EF
:101C700000206049086001205E49086001205B493E
:101C8000086001205749086001205749086000207A
:101C900056490860032056490870002055490860DD
:101CA00001205449086001205049086001204D4935
:101CB000086001204C49086000204C490860002061
:101CC0004B49087000204B490860012049490860D1
:101CD000012046490860012042490860012042492C
:101CE00008600020414908608220414908700020B6
:101CF0004049086001203F49086001203B490860D5
:101D00000120384908600020374908600020374921
:101D100008602B20364908700020364908600120F1
:101D20003449086001203149086001202D490860CC
:101D300001202D49086000202C49086000202C4912
:101D4000087000202B49086001202A490860012002
:101D500026490860012023490860012022490860C3
:101D600000202249086002202149087000202149F2
:101D7000086001201F49086001201C4908600120FB
:101D800018490860012018490860002017490860B8
:101D900000201749087000201649086001201549E5
:101DA000086001201149086001200E4908600120E7
:101DB0000D49086000200D49086081200C49087019
:101DC00000200C49086001200A49086001200749E9
:101DD0000860802094490880802094490880FFE7AB
:101DE00010BD00002810FE433010FE432C10FE43AF
:101DF00080F00F402410FE4303B489480078C007E8
:101E00000AD5BDF80000C01CADF80000BDF8020006
:101E1000801CADF8020009E0BDF80000801CADF8A0
:101E20000000BDF80200C01CADF80200012080498E
:101E3000086000207F49086000207F4908602A2050
:101E40007E49087000207E49086001207C490860B6
:101E50000120794908600120754908600120754911
:101E60000860002074490860BDF8000080B2000AD4
:101E700072490870002072490860012070490860AA
:101E800001206D4908600120694908600120694905
:101E90000860002068490860BDF8000067490870C4
:101EA00000206749086001206549086001206249F7
:101EB000086001205E49086001205E49086000203A
:101EC0005D490860BDF80000BDF8041011FA80F00B
:101ED000401E00125949087000205949086001202D
:101EE00057490860012054490860012050490860A2
:101EF00001205049086000204F490860BDF80000EB
:101F0000BDF804100818401E4C49087000204C49C8
:101F1000086001204A490860012047490860012003
:101F20004349086000204349086000204249086096
:101F30002B20424908700020414908600120404997
:101F4000086001203C4908600120394908600120EF
:101F500038490860002038490860BDF8020080B2A6
:101F6000000A3649087000203549086001203449CC
:101F7000086001203049086001202D4908600120D7
:101F80002C49086000202C490860BDF802002B494C
:101F9000087000202A4908600120294908600120B2
:101FA0002549086001202249086001202149086074
:101FB000002021490860BDF80200BDF8061011FAA2
:101FC00080F0401E00121D49087000201C49086066
:101FD00001201B49086001201749086001201449AD
:101FE0000860012013490860002013490860BDF80B
:101FF0000200BDF806100818401E104908700020A5
:102000000F49086001200E49086001200A49086054
:1020100002B0704704480088704704480088704741
:102020007366FF1F485C0000000CFF1F020CFF1FBF
:102030002810FE433010FE432C10FE4380F00F406A
:102040002410FE4370B504000D0016004FF480719B
:102050002000C0B200F08AF86DB2002D11D14148C5
:10206000E4B2611150F821003E49E4B2621151F826
:1020700022104969012214F01F039A4091434161E3
:1020800036E03848E4B2611150F821003549E4B235
:10209000621151F822104969012214F01F039A407D
:1020A00011434161F6B2002E11D12E48E4B2611104
:1020B00050F821000068012114F01F02914088436C
:1020C0002849E4B2621151F82210086010E0254856
:1020D000E4B2611150F821000068012114F01F02E0
:1020E000914008431F49E4B2621151F82210086080
:1020F00070BD10B504001B48E4B2611150F8210016
:10210000406914F01F01C840C00703D47B21164862
:1021100000F0CFF81348E4B2611150F8210001211A
:1021200014F01F029140C16010BD10B504000D48AD
:10213000E4B2611150F82100406914F01F01C84059
:10214000C00703D58C21084800F0B3F80548E4B275
:10215000611150F82100006914F01F01C84010F00F
:10216000010010BD180BFF1FC05D000010B42B4A0A
:1021700013684FF400740200D2B2520914FA02F24A
:102180001A43264B1A60264AC0B2431152F8232044
:10219000012310F01F04A340C2F8A030204AC0B2AF
:1021A000431152F82320C0B210F01F0342F823104D
:1021B00010BC704710B4194A13684FF40074020041
:1021C000D2B2520914FA02F21A43144B1A60144A9A
:1021D000C0B2431152F82320012310F01F04A34082
:1021E000C2F8A03031F4E0610D4AC0B2431152F898
:1021F0002320C0B210F01F0352F8232012F4E06233
:102200001143074AC0B2431152F82320C0B210F064
:102210001F0342F8231010BC7047000038800440B0
:10222000880BFF1F10B50400002C15D0B4F1807F7F
:1022300003D329210F4800F03CF800200E49086024
:102240000E48046000200E49086005200A49086015
:1022500009480068C003FBD510BD10B5040020007C
:10226000441E002804D007480068FFF7DBFFF6E7AC
:1022700010BD00008C5C000010E000E014E000E005
:1022800018E000E01466FF1FDFF800F0350CFF1FB8
:10229000DFF800F0590CFF1FBFF34F8F474800686D
:1022A00010F4E0604649084344490860BFF34F8F8B
:1022B000FEE738B504000D00002000F08FF82A007A
:1022C0002100404800F0C2F8002000F0A4F84FF4CC
:1022D0007A70FFF7C2FFF2E738B504000D00210065
:1022E00049B2032000F0CEF9200032BD10B5002421
:1022F000042000F0F3F9042000F026FA002841D170
:10230000002000F06BF8042000F01EFA012801D133
:1023100001200400002000F07EF82B4800F096F821
:102320004FF4FA70FFF799FFE4B2012CEBD10420CF
:1023300000F00AFA0028E6D1042000F005FA00288F
:1023400006D1002000F067F86420FFF786FFF3E76E
:10235000042000F0F9F9012806D1002000F05BF814
:102360003220FFF77AFFF3E7184800F06FF8FFF725
:102370008BFF6420FFF771FF0020FFF789FFFFF755
:102380008BFFC0E710BD10B511480468012000F0B4
:1023900025F8012000F03FF80E48E4B20F2101FBC0
:1023A00004F100EB0102E4B221000B4800F04EF80A
:1023B0004FF47A70FFF751FFEBE700000CED00E0FF
:1023C0000400FA05985E00004C5F0000CC5E00003F
:1023D00004ED00E01004FF1F0C5D000010B50400C8
:1023E00064B2042C07DA01220121174864B2005DAF
:1023F000FFF728FE0EE0042004002000441E40B237
:10240000002807D0012201210F4864B2005DFFF7C8
:1024100019FEF2E710BD10B5040064B2042C05DA11
:10242000094864B2005DFFF764FE0CE0042004007C
:102430002000441E40B2002805D0034864B2005D6D
:10244000FFF757FEF4E710BDBC0BFF1F0EB400B53D
:1024500082B003A9009102466B46012103487844EB
:102460000A3000F089F906BC5DF810FBBD3A0000A7
:102470002DE9F84304000D0064B2002C08D0022CB2
:102480002CD018D3042C4FD03BD3052C5FD071E057
:10249000DFF83002006850F48060DFF8281208602E
:1024A0004FF440716620FFF761FE4FF440716720E2
:1024B000FFF75CFE5EE0DFF80C02006850F400609D
:1024C000DFF8001208604FF440714320FFF74EFE22
:1024D0004FF440714420FFF749FE4BE0DFF8E40180
:1024E000006850F48050DFF8DC1108604FF4407150
:1024F0006320FFF73BFE4FF440716220FFF736FE8A
:1025000038E0DFF8C001006850F40050DFF8B41183
:1025100008604FF440715020FFF728FE4FF44071DF
:102520005120FFF723FE25E0DFF89C01006850F4FE
:102530008060DFF8941108604FF440714E20FFF77F
:1025400015FE4FF440714F20FFF710FE12E0DFF848
:102550007801006850F40060DFF86C1108604FF4F7
:1025600040718920FFF702FE4FF440718820FFF789
:10257000FDFDFFE7DFF8540164B250F82400C07895
:1025800010F0F300DFF8441164B251F82410C87061
:10259000DFF8380164B250F824008078DFF82C119D
:1025A00064B251F82410887064B2002C02D064B276
:1025B000012C07D1DFF8180100684FF47A71484305
:1025C000814606E0DFF80C0100684FF47A71484359
:1025D00081462801B9FBF0F00600B6B2B6F5005FFF
:1025E00002DB41F6FF700600B9FBF5F0B6B2B0EBC6
:1025F00006100700BFB2202F03DBDC213648FFF7AF
:1026000058FE324864B250F82400007810F0E00020
:102610008046C6F3042050EA08002C4964B251F801
:1026200024100870294864B250F8240046702748E6
:1026300064B250F82400807A10F0E000804617F071
:102640001F0050EA0800214964B251F82410887232
:102650001E4864B250F82400007C50F088001B49EA
:1026600064B251F824100874184864B250F8240079
:10267000C07850F00C00154964B251F82410C870AD
:10268000BDE8F183114A40B252F8202012791206B7
:10269000F8D50E4A40B252F82020D171704770B57B
:1026A00004000D0016003000461E002809D095F9E0
:1026B0000000010049B2200040B2FFF7E3FF6D1CAB
:1026C000F1E770BD34800440288004409C0BFF1F5C
:1026D0001466FF1F1C66FF1FFC5D000010B50400A0
:1026E00064B2082C0DDA00220021224864B2005D99
:1026F000FFF7A8FC03211F4864B2005DFFF75AFDF5
:1027000014E0082004002000441E40B200280DD030
:1027100000220021174864B2005DFFF793FC0321FB
:10272000144864B2005DFFF745FDECE710BD10B53D
:102730000400104864B2005DFFF7F7FC002801D1E7
:10274000002000E0012010BD10B50400200040B2C0
:10275000FFF7EDFF00280AD10A20FFF77EFD2000D9
:1027600040B2FFF7E4FF002801D1002000E0012083
:1027700010BD0000B40BFF1F2DE9F04FA1B0824641
:1027800001AE002017461D467160B0620DF144098C
:102790000AE017F8011B7068D0470028706000F04D
:1027A000B382B06A401CB0623878010001D1B06ACF
:1027B000ACE22528EDD1002030617061B061F0619C
:1027C0003062706201E040F0010017F8011F20291B
:1027D000F9D023290DD02B2904D02D2906D030295A
:1027E0000AD00CE040F0020080B2EEE740F00400B6
:1027F000FAE740F00800F7E740F01000F4E72A2974
:102800000ED12968296051F8042B2960002A32630F
:1028100004D5514240F00400316380B27F1C13E0C4
:10282000002131630BE0316B6FF00043994205D01A
:1028300001EB810302EB4301303931637F1C3A78AD
:10284000A2F130010A29EED339782E2903D04FF0B6
:10285000FF31F1621FE017F8011F2A2907D129680B
:1028600029607F1C51F8042B2960F26213E00021DB
:10287000F1620BE0F16A6FF00043994205D001EB81
:10288000810302EB43013039F1627F1C3A78A2F1F7
:1028900030010A29EED3B0860FF6DC20397800F03B
:1028A00079FD08B117F8010B8DF83A009DF83A0050
:1028B000682802BF39786829622005D06C2804BFD7
:1028C00038786C2803D171208DF83A007F1C11A84C
:1028D000F06017F8014BB4F1250024D0203802280D
:1028E00040F2C380133800F0E7800B3800F05481C9
:1028F000401E00F02B81401E022840F2B680001FCF
:1029000000F02481401F00F08180401E00F0D48040
:10291000401E26D0C01E0BD0801E00F0CD80C01EF1
:1029200000F0CA8042E125208DF84400012046E1F4
:102930002868286050F8048B2860C6F80880F46A7C
:10294000002C04D5404600F031FD044607E0224645
:102950000021404600F046FD08B1A0EB0804746178
:102960002EE129682960002251F8040B29604FF0FC
:102970003C0E0021CDE9000111A8B060DDE90001A5
:102980009142F46808BF904201D1F26AC2B100F0EE
:102990000F033033DBB23A2BA8BF2733AEF101026D
:1029A0000009A354964640EA0170090900229142A9
:1029B00008BF904204D0B26804EB0E039A42E6D3FB
:1029C00004EB0E01B160CEF13C00F16A7061884207
:1029D00007DA081AF0614FF6EF71B08E0840B08642
:1029E000EEE0002940F1EC8096F8341001F014017B
:1029F000102940F0E580316B3269891AF269891A31
:102A0000081A0128C0F2DC80F061D9E09DF83A0094
:102A100062281AD0682806D06A280CD06C281CD0EE
:102A2000712808D019E02868286050F8041B286035
:102A3000B06A0880C4E02868286050F8042B286039
:102A4000B06AC117C2E90001BAE02868286050F8EE
:102A5000041B2860B06A0870B2E02868286050F84B
:102A6000041B2860B06A0860AAE02868C01D20F036
:102A700007022A60D2E9000108322A60CDE900018C
:102A8000002902D530692D2109E0B08E810702D5D9
:102A900030692B2103E0C00705D53069202109F8F2
:102AA0000010401C306111A831690844B060214613
:102AB000684600F0EBF983E09DF83A006C280DD0F1
:102AC000712818BF6A2809D12868C01D20F00702A4
:102AD0002A60D2E9000108322A6005E029682960ED
:102AE00051F8040B29600021CDE900019DF83A005E
:102AF000682803D1DDE9000180B20BE0622803D130
:102B0000DDE90001C0B205E0742818BF7A2804D1BD
:102B1000DDE900010021CDE9000196F8340000074D
:102B200031D5DDE900230020834208BF82422AD04C
:102B300044F02000782826D13069302109F80010AF
:102B4000401C411C316109F800401CE09DF83A002E
:102B5000294600F0DEF8CDE90001DDE9002300217F
:102B60008B4202DA30692D2109E0B08E810702D54F
:102B700030692B2103E0C00705D53069202109F811
:102B80000010401C306111A831690844B060214632
:102B9000684600F0F5F813E00120306128682860ED
:102BA00050F8041B28608DF8441009E025208DF8AA
:102BB0004400012030611CB189F8014002203061DD
:102BC000306B3169401AF169401A7169401A316AF3
:102BD000401AB169401A716AA0EB010896F83400F6
:102BE000400711D42020B8F1010F8DF840000BDB15
:102BF0004446012310AA6946504600F0A5FB002870
:102C000040F08280641EF4D1D6F810B0BBF1000F02
:102C100011AC0CD014F8011B7068D047002870600C
:102C200072D0B06A401CBBF1010BB062F2D130200F
:102C30008DF84000F469012C09DB012310AA6946D4
:102C4000504600F081FB00285ED1641EF5D1D6F815
:102C500014B0B468BBF1000F0CD014F8011B7068FD
:102C6000D047002870604FD0B06A401CBBF1010B08
:102C7000B062F2D130208DF84000346A012C09DBBB
:102C8000012310AA6946504600F05EFB00283BD1A4
:102C9000641EF5D1B0687169D6F818B04418BBF15C
:102CA000000F0BD014F8011B7068D047706058B348
:102CB000B06A401CBBF1010BB062F3D130208DF83B
:102CC0004000746A012C08DB012310AA69465046B3
:102CD00000F03AFBC0B9641EF6D196F83400400704
:102CE0007FF562AD2020B8F1010F8DF84000FFF6AE
:102CF0005BAD012310AA6946504600F025FB18B9C8
:102D0000B8F10108F5D14FE54FF0FF3021B0BDE833
:102D1000F08F622826D068281DD06A2808D06C2839
:102D200027D0712804D0742823D07A280CD020E032
:102D30000868C01D20F007000860D0E900230830B3
:102D400008601946104670470A680A6052F8040B7A
:102D50000A60002170470A680A6052F8040B0A6092
:102D600000B20BE00A680A6052F8040B0A6040B235
:102D700004E00A680A6052F8040B0A60C117704741
:102D80002DE9F343054608462F696F2808BF08243C
:102D900005D041F02001782914BF0A2410243C26D4
:102DA000D5E90023642818BF69289046994606D1C2
:102DB00000218B4203DAD8F1000869EB49090020B1
:102DC000814508BF80450CD1286B50B9082C38D1FB
:102DD00095F83800000734D530203B2687F83B00B3
:102DE0002FE0701E00900646404649462246E317F3
:102DF00000F024FB02F13000C0B23A2803DB9DF85A
:102E0000041051390818B855494640462246E31780
:102E100000F014FB804689460020814508BF8045AC
:102E200003D0E868B9198842DBD3082C09D195F89A
:102E30003800000705D5B85D302802D0761E302056
:102E4000B855B919E960C6F13C00296BA861884200
:102E500008DA081A28624FF6EF71288F0840288791
:102E6000BDE8F38300290ED595F8381001F0140160
:102E7000102908D1696B6A69891A2A6A891A0E1A97
:102E8000012EA8BF2E62BDE8F38300002DE9F34FA9
:102E90008BB0D0E90089006B002801AF48BF062045
:102EA00005D404BF41F02000672802D101200B990E
:102EB000086340F2FF720B984168C1F30A509042D8
:102EC00020D1080302BF0B98006800280AD10B9993
:102ED000032088619DF8300061381A2858D30FF21A
:102EE000AC4109E00B99032088619DF830006138FE
:102EF0001A284AD30FF28C410B98C068032200F0C5
:102F000015FBFFE0012807DA0B9800F04AFB0128C7
:102F100002DB00230026ECE00B9ADFF854B1526884
:102F200040F2FE3161F31E520B994A6040F2FE31CD
:102F3000401A00B247F2975148434E4990FBF1F6D0
:102F4000404649460022002300F04EFB36B238BF0F
:102F500089F00049C6F10707012F92461BDBF807ED
:102F600007D552465B464046494600F055FB804631
:102F700089465046594652465B467F1000F04CFB4E
:102F8000002F82468B46EAD126E00FF2F431B3E7F8
:102F90000FF2F431B0E77F420024374D12E0F8071A
:102FA00007D552465B462046294600F035FB0446CD
:102FB0000D465046594652465B4600F02DFB7F10A9
:102FC00082468B46002FEAD14046494622462B4690
:102FD00000F0F4FB804689469DF830000B99DFF83D
:102FE0009CB0096B40F02005662D0CBF06F10A006D
:102FF00006204718142FA8BF132730208DF804008F
:103000000DF10504012F3BDB4046494600F002FD6F
:10301000014604F1080204234FF00A0CB1FBFCFC4A
:103020000CEB8C04A1EB4401303102F8011C0A21A5
:10303000BCFBF1FE0EEB8E04ACEB440430345B1EA3
:10304000714602F8024DE7D1083F012F02F1080452
:10305000D8DB00F0F5FC02460B464046494600F03E
:10306000FDFC00225B4600F0D7FA80468946CBE79C
:1030700000002440A08601000000F03F84D7974163
:103080000DF10500201A0DF1050702E0401E761E25
:103090007F1C39783029F9D0662D08BF711C03D008
:1030A000652D0CBF012100210B9A126B8B181BB2EE
:1030B0009842B8BF03461BB219001AD4814204DA01
:1030C000785C3528A8BF392000DA30207A18521EE3
:1030D00000E05B1E12F80149491E8442F9D03928EC
:1030E00002D1785C401C7854002902D57F1E5B1CFD
:1030F000761C36B29DF830100B9800961BB23A46FB
:1031000000F003F80DB0BDE8F08F2DE9F04786B070
:1031100006468A4690461D4600F07DFD012D406A18
:10312000376B90F8009002DA01250FF264284AF01C
:103130002000BDF93840662808BF641C13D06728FA
:1031400040F08A8014F1040F75DBBC4273DA96F804
:103150003800641C000702D4BD42B8BF2F4624B219
:103160003F1B48BF002724B2F068B169012C23DA65
:103170004A1C30234354012F03DA96F83800000725
:1031800003D5F06800F80290521CE742B8BF7C42B9
:1031900024B260427062E719AF42B261B8BF3D46E7
:1031A000F068B3692DB2F5612A464146184400F033
:1031B000BDF9781BB062B0E022469542084416DAA9
:1031C0002A46414600F0B2F9B1696918601B012F27
:1031D000B161706203DA96F83800000705D5F0682F
:1031E00000F80190F069401CF061B76295E041463B
:1031F00000F09CF9B06920182D1B012F03DA96F816
:103200003810090703D5F16801F80090401CB0613F
:103210002DB2AF42B8BF3D46F068B3692DB22A4621
:1032200008EB0401184400F081F9B0692818B06176
:10323000781B706271E0BD4204DA96F83810090715
:1032400058BF2F467F1E48BF0027BAF1670F0CBF3B
:103250004FF0650A4FF0450AB169F368481CB06148
:10326000012F18F8012B5A5403DA96F83810090781
:1032700017D5F168431CB36101F80090012F10DBF2
:103280006D1E2DB2AF42B8BF3D46F0682DB22A4642
:103290004146184400F04AF9B0692818B061781B1B
:1032A0007062F068B1690144200081F800A004D484
:1032B0002B20487001F1020804E02D224A7001F130
:1032C00002086442002502AF08E00A22684600F0C6
:1032D000BBFC019807F8010B6D1C009C21B2012971
:1032E000F3DA022D06DA4AF02000652804BF302008
:1032F00008F8010B4DB9302008F8010B07E06D1EEE
:1033000002A8405D303008F8010B012DF7DAF068B3
:10331000B1690844A8EB0000F06196F8380000F0AD
:10332000140010280DD17069B1690818716A081865
:10333000F1690818B16A0818716B8842BCBF081A95
:10334000306206B0BDE8F087F8B504460D46164673
:103350001F46002077B116F8011BA868A047A86097
:1033600030B1E86A401CE86200207F1EF3D1F2BD54
:103370004FF0FF30F2BD0000686A6C747A4C0000B8
:103380006E616E004E414E00696E6600494E460009
:10339000300000000278C9B28A421AB11CBF10F88E
:1033A000012FF9E718BF00207047000000F101036A
:1033B000810704D010F8011B89B18107FAD1026896
:1033C000B2F10131914311F0803F04BF50F8042F56
:1033D000F6E710F8011B11B110F8011BFBE7C01A4A
:1033E00070470000C9B2830706D0521E22D310F8DE
:1033F000013B9942F7D11FE0083A13D302F10402CE
:1034000041EA012141EA014150F8043B121F21BF6A
:103410004B40A3F1013C2CEA030C1CF0803FF3D09D
:10342000C9B2001F083210F8013B521E28BF91EAB2
:10343000030FF8D818BF0120401E70471B4213D15C
:10344000094236D12AB18446B0FBF2F002FB10C229
:10345000704700F001BCFCD30022002370470B0032
:103460000200002100207047904271EB030CF6D35C
:1034700070B5B1FA81F4B3FA83F52C1BA340C4F103
:10348000200532FA05F63343A2405FF00046E640DD
:1034900002E05B085FEA3202841A71EB030524BF85
:1034A000204629467641F4D302000B00300000216B
:1034B00070BD012ACFD970B5140C20D0B1FA81F4B7
:1034C000B2FA82F5C4F120046419B4F12006D6D30F
:1034D000B2405FF00044F440002502E052085FEA89
:1034E0003303C61A71EB020E24BF304671466441A5
:1034F0006D41F3D302000B002000290070BD0C4683
:10350000B1FBF2F102FB11452D0445EA1045B5FB74
:10351000F2F402FB145580B240EA0545B5FBF2F027
:1035200002FB105240EA044070BD000062B38B07FA
:1035300008D0521E11F8013B00F8013B00F0248036
:103540008B07F6D1830740F0208000BF103A07D3E5
:1035500030B4B1E83810103AA0E83810F9D230BCD5
:10356000530724BFB1E80810A0E8081044BF51F881
:10357000043B40F8043BD20724BF31F8022B20F86B
:10358000022B44BF0B7803707047083A07D3B1E8A9
:103590000810083A40F8043B40F804CBF7D2530730
:1035A000E4E730B4436803F000420121C3F313039E
:1035B0004360002B04BF0368002B08D10DE00368B3
:1035C000DD0F45EA440444605B000360491E446823
:1035D000E302F4D5C4F31303436043681A43426023
:1035E000084630BC704700004FF4001C1CEB410F34
:1035F00094BF1CEB430F09E041EA030C50EA4C0C6A
:1036000052EA0C0C03D2994208BF9042704714BF93
:103610008B42824270470000B0B581EA030C0CF087
:10362000004C40F2FF7515EA11541DBF15EA1357FF
:10363000AC42AF4239E0E41923EA455343F4801326
:10364000C90241F0004141EA505EC7021100A7FBE8
:10365000020200284FF00000EEFB01204FF00001B5
:10366000E3FB072118BF42F0010240180021494145
:10367000E3FB0E01A4F580640F0302D25200404127
:10368000494154F101046CDD470872F1004250F1E8
:10369000000051EB0451A1F580115CBF41EA0C011F
:1036A000B0BD4CEA05510020B0BD05EA1357AC424D
:1036B00014BFAF4241E050EA410E1CBF52EA430E34
:1036C00002E061460020B0BD24423C441BD15FEAC9
:1036D000070EF6D0090302BF01460020AEF1140E1A
:1036E000B1FA81F7AEEB070401FA07FE0C37C7F118
:1036F000200100FA07F7C8404EEA000E23EA4553BE
:1037000043F48013A2E733F00043B3FA83F704BF16
:10371000B2FA82FE77440B3FE41BB7F1200E2FBFB5
:1037200002FA0EF3BB40C7F1200E22FA0EFE38BF9C
:1037300043EA0E03BA40641C82E750EA410E14BF0C
:1037400052EA430E6FF000014FF4001717EB430FDE
:103750008ABF194617EB410FB5E74CEA0551002027
:10376000B0BDD4F10104B4F120070FDAC4F1200791
:10377000520828BF42F0010210FA07F501FA07F7D4
:10378000E1BF2A43E0403843E1400FE0352C98DCAC
:10379000C7F1200452EA400220FA07F218BF42F0B3
:1037A000010231FA07F0A1400A43002172F1004200
:1037B00050F1000051EB0C01B0BD00002DE9F041CB
:1037C00040F2FF7581EA030C0CF0004C15EA11542D
:1037D0001DBF15EA1357AC42AF42E9E0BC41C1F34B
:1037E0001301C3F31303801A994143F4801304D2E5
:1037F000641E4000494180185941C90241EA5051B4
:10380000B1FBF3F603FB1611A2FB0675D7EBC02044
:10381000A94102D2761E80185941C90241EA50518D
:10382000B1FBF3FE03FB1E11A2FB0E75D7EBC0200C
:10383000A94103D2AEF1010E80185941890241EA33
:103840009051760546EA8E2EB1FBF3F603FB161176
:10385000A2FB0675D7EB8020A94102D2761E801804
:103860005941C90241EA50514EEA060EB1FBF3F646
:1038700003FB1611A2FB0675D7EBC020A94102D2AB
:10388000761E80185941C90241EA5051B1FBF3F745
:1038900003FB1711A2FB0735D3EBC020A94167F149
:1038A00000070CBF004247F0010766F3D5274FEA37
:1038B0001E31B80814F5806414DDBD0775F10042AF
:1038C00050EB0E5051EB045111F5801F5CBF41EAE3
:1038D0000C01BDE8F0814CF07F6141F0E041002037
:1038E000BDE8F081BD076D0840EA0E5041F480113B
:1038F000D4F10104B4F120060ADAC4F12006020072
:10390000E04001FA06F3E1401843B24015430EE0EF
:10391000342C14DCC6F1200445EA40056D0820FA79
:1039200006F2154321FA06F0A1400D43002175F17E
:10393000004250F1000051EB0C01BDE8F081002085
:103940005FEA0C01BDE8F081CFB992185B41B3FA90
:1039500083F704BFB2FA82F6BF190B3FB7F1200616
:103960002FBF02FA06F3BB40C7F1200622FA06F683
:1039700038BF3343BA401CB1E419641E2FE77F42BD
:1039800031F00041B1FA81F404BFB0FA80F6A41915
:103990000B3CB4F120062FBF00FA06F1A140C4F1A0
:1039A000200620FA06F638BF3143A0403C1B16E73C
:1039B000AC421ABF05EA1357AF4214E050EA410681
:1039C0001CBF52EA4306BFE750EA41073046614652
:1039D0001CBF41EA0551BDE8F08152EA430C08BF23
:1039E000C143BDE8F08100204FF4001616EB410FF3
:1039F00098BF16EB430F08BF16EB410F24BFC1431E
:103A000005E016EB430F0CBF61464CEA0551BDE8DB
:103A1000F0810000400D40EAC120490080F00D8097
:103A200040F00040490DA1F58061491C05D4D1F159
:103A30001F0154BFC840C01770474FF000007047C7
:103A4000010000BF09D0B0FA80F18840C91CC1F55F
:103A50008461090501EBD02140057047F0B44FF0B7
:103A6000004591EA030F44BF6B4000F0F7B800BF78
:103A7000841A71EB030604D26E40001BB141121987
:103A800073414FF4001C1CEB410F34BF7CEB430629
:103A900084E00C0DA4EB1356362E7DDC012E43DCA6
:103AA00045EAC32343EA525312BFD20292025B0893
:103AB000240545EAC12141EA5051D2EBC020994189
:103AC00025D407D1B0FA80F610FA06F164D00020B0
:103AD000203608E0B1FA81F6B140C6F1200220FAA2
:103AE00002F21143B0404FEAF474B4EB465434F0A0
:103AF00001064FEA74040AD8D6F50016760D04F0D4
:103B00000044F04061FA06F25040F1404840C00ADB
:103B100040EA415021F0004128BF5FEA500550F1D2
:103B2000000044EBD12137E045EAC323DB0A45EA34
:103B3000C121C90AB6F120050EDD42EA0242120C8B
:103B4000C5F1200603FA06F6EB4042EA06056D428F
:103B5000984161F100010DE062FA06F5F24055402E
:103B600063FA06FC82EA0C02F3405A406D4290412F
:103B700061EB030111F4801F05D1641E620502D0C0
:103B80006D004041494121F48011430875F1004323
:103B900050F1000041EB0451F0BC70471CEB410FA9
:103BA00015D223F0004352EA43060BD04FEA4C0CE7
:103BB000BCEB410F04D80C0D661E342EB7DDEBE7CD
:103BC000801A994150EA410608BF0021E4E708BF86
:103BD0001CEB430F28BF6FF00001DDE780B51348F1
:103BE00000F0A6F80FF24C020FF2440101604262AD
:103BF00041600FF24402826381600FF24402C160AF
:103C00000161416181618162C16201634163C2639B
:103C10000164416401BD10B5044800F089F8044610
:103C2000206808B9FFF7DAFF204610BD7466FF1F51
:103C3000000000002E00000066616C73650000004B
:103C4000747275650000000091FBF2F303FB121122
:103C5000C0E900317047000070470000841A71EB22
:103C6000030603D2001BB141121973414FF4001C2B
:103C70001CEB410F34BF7CEB430443E00C0DA4EB81
:103C80001356352E50DC45EAC323DB0A45EAC12131
:103C9000C912B6F120050DDD63FA05F6EB4086EAA0
:103CA0000305124218BF45F00105C01851F100018B
:103CB0000CD213E062FA06F5F2405540F3415A4047
:103CC000B340F3405A408018594107D349085FEA8E
:103CD00030005FEA350528BF45F0010501F5801188
:103CE000420875F1004250F1000041EB0451F0BC74
:103CF0004FF4001C1CEB410F38BF70470020090D2A
:103D0000090570471CEB410F10D252EA43060BD055
:103D1000BCEB410F05D80C0DAB43661E342EB5DD50
:103D200002E0AB4380185941F0BC7047F0BC7047CB
:103D300070470000000000000000000000000000CC
:103D40000000000000000000000000000000000073
:103D500000004E6F6E4D61736B61626C6500000018
:103D600000486172644661756C74000000000000D8
:103D70004D656D4D616E6167656D656E74000042E5
:103D800075734661756C7400000000000000557387
:103D90006167654661756C740000000000000000FA
:103DA0000000000000000000000000000000000013
:103DB0000000000000000000000000000000000003
:103DC00000000000000000000000000000000000F3
:103DD000000000000000000000535643616C6C00BE
:103DE000000000000000000044656275674D6F6EC2
:103DF00069746F7200000000000000000000000005
:103E000000000000000050656E6453560000000082
:103E100000000000005379735469636B00000000D8
:103E200000000000444D4130000000000000000090
:103E3000000000444D41310000000000000000007F
:103E40000000444D4132000000000000000000006E
:103E500000444D413300000000000000000000005D
:103E6000444D413400000000000000000000004408
:103E70004D41350000000000000000000000444DEE
:103E800041360000000000000000000000444D41E9
:103E9000370000000000000000000000444D4138E1
:103EA0000000000000000000000000444D41390007
:103EB00000000000000000000000444D41313000CF
:103EC000000000000000000000444D4131310000BE
:103ED0000000000000000000444D413132000000AD
:103EE00000000000000000444D413133000000009C
:103EF000000000000000444D41313400000000008B
:103F00000000000000444D41313500000000000079
:103F100000000000444D415F4572726F7200000066
:103F20000000004D434D00000000000000000000B4
:103F300000004654464C0000000000000000000055
:103F400000526561645F436F6C6C6973696F6E00EA
:103F50004C56445F4C565700000000000000004CD7
:103F60004C570000000000000000000000005761F6
:103F7000746368646F6700000000000000524E47E1
:103F80000000000000000000000000004932433043
:103F90000000000000000000000000493243310032
:103FA00000000000000000000000535049300000F5
:103FB00000000000000000000053504931000000E4
:103FC00000000000000000005350493200000000D3
:103FD0000000000000000043414E305F4F525F4D33
:103FE000425F6275660043414E305F4275735F4FBA
:103FF000666600000043414E305F4572726F72008A
:104000000000000043414E305F54785F5761726E8C
:10401000696E6743414E305F52785F5761726E69D7
:104020006E6743414E305F57616B655F55700000AE
:1040300000526573657276656435310000000000DA
:104040005265736572766564353200000000004386
:10405000414E315F4F525F4D425F62756600434192
:104060004E315F4275735F4F666600000043414EFC
:10407000315F4572726F72000000000043414E31A3
:104080005F54785F5761726E696E6743414E315F6E
:1040900052785F5761726E696E6743414E315F5768
:1040A000616B655F557000000052657365727665DF
:1040B00064353900000000005265736572766564EE
:1040C0003630000000000055415254305F52585FB6
:1040D00054580000000055415254305F4552520080
:1040E000000000000055415254315F52585F54584F
:1040F0000000000055415254315F4552520000000B
:1041000000000055415254325F52585F545800002D
:10411000000055415254325F4552520000000000E9
:104120000055415254335F52585F5458000000000C
:1041300055415254335F4552520000000000005573
:10414000415254345F52585F5458000000005541AA
:104150005254345F45525200000000000055415255
:1041600054355F52585F5458000000005541525476
:10417000355F4552520000000000004144433000CA
:104180000000000000000000000041444331000036
:10419000000000000000000000434D50300000000F
:1041A0000000000000000000434D503100000000FE
:1041B00000000000000000434D50320000000000ED
:1041C00000000000000046544D30000000000000D8
:1041D000000000000046544D3100000000000000C7
:1041E0000000000046544D320000000000000000B6
:1041F000000000434D5400000000000000000000DB
:1042000000005254430000000000000000000000C5
:1042100000526573657276656438330000000000F3
:104220005049543000000000000000000000005021
:104230004954310000000000000000000000504917
:1042400054320000000000000000000000504954FB
:104250003300000000000000000000005044423025
:104260000000000000000000000000555342300034
:104270000000000000000000000055534244434489
:10428000000000000000000000454E45545F31353D
:1042900038385F54696D6572454E45545F5472619C
:1042A0006E736D69740000454E45545F52656365D9
:1042B000697665000000454E45545F4572726F7225
:1042C00000000000004932533000000000000000F0
:1042D00000000000534448430000000000000000BC
:1042E00000000044414330000000000000000000D6
:1042F00000004441433100000000000000000000C5
:10430000005453493000000000000000000000008D
:104310004D43470000000000000000000000004C7A
:104320005054696D65720000000000000000526585
:1043300073657276656431303200000000504F5270
:10434000544100000000000000000000504F525493
:104350004200000000000000000000504F52544393
:1043600000000000000000000000504F52544400C4
:10437000000000000000000000504F5254450000B3
:1043800000000000000000005265736572766564ED
:104390003130380000000052657365727665643113
:1043A0003039000000005265736572766564313102
:1043B00030000000005265736572766564313131FA
:1043C0000000000052657365727665643131320019
:1043D0000000005265736572766564313133000008
:1043E00000005265736572766564313134000000F7
:1043F00000526573657276656431313500000000E6
:104400005265736572766564313136000000005282
:10441000657365727665643131370000000052655E
:10442000736572766564313138000000005265733F
:1044300065727665643131390000000000F00F408C
:1044400040F00F4080F00F40C0F00F4000F10F40EF
:1044500066000A1D32000701640007106E000406A2
:10446000780004088200040A8C00040C9600040EF4
:10447000A0000410AA000412B4000414BE00041624
:10448000C8000418D200041ADC00041CE100041D5A
:10449000E600041EEB00041FF4000317FA000318E3
:1044A000130101062C0102140001090800900440C8
:1044B00000A0044000B0044000C0044000D004400C
:1044C00000A0064000B0064000C0064000D00640F4
:1044D00000A00E4000B00E406A6E6B6C676D4E4FD0
:1044E00034353637020401012066FF1F7066FF1F56
:1044F0002066FF1F2066FF1F2066FF1FFD0BFF1FAA
:10450000E40BFF1F0000000000000000000000009E
:10451000000000000000000000000000000000009B
:10452000000000008000800000000000000000008B
:1045300000000000000000000000183C3C3C18187F
:1045400018001818000000000066666624000000CD
:1045500000000000000000000000006C6CFE6C6CAD
:104560006CFE6C6C0000000018187CC6C2C07C0693
:1045700086C67C181800000000000000C2C60C1897
:104580003060C686000000000000386C6C3876DCB5
:10459000CCCCCC7600000000003030306000000051
:1045A000000000000000000000000C183030303027
:1045B0003030180C00000000000030180C0C0C0CFF
:1045C0000C0C1830000000000000000000663CFFEA
:1045D0003C66000000000000000000000018187E8B
:1045E000181800000000000000000000000000009B
:1045F000001818183000000000000000000000FE45
:1046000000000000000000000000000000000000AA
:1046100000001818000000000000000002060C183E
:104620003060C0800000000000007CC6C6CED6D638
:10463000E6C6C67C0000000000001838781818187C
:104640001818187E0000000000007CC6060C183008
:1046500060C0C6FE0000000000007CC606063C06E6
:104660000606C67C0000000000000C1C3C6CCCFE62
:104670000C0C0C1E000000000000FEC0C0C0FC0EB0
:104680000606C67C0000000000003860C0C0FCC602
:10469000C6C6C67C000000000000FEC606060C1858
:1046A000303030300000000000007CC6C6C67CC63A
:1046B000C6C6C67C0000000000007CC6C6C67E06DA
:1046C00006060C780000000000000000181800002A
:1046D000001818000000000000000000181800007A
:1046E0000018183000000000000000060C183060B0
:1046F00030180C0600000000000000000000FE0062
:1047000000FE0000000000000000006030180C06F1
:104710000C1830600000000000007CC6C60C1818A1
:1047200018001818000000000000007CC6C6DEDE7D
:10473000DEDCC07C00000000000010386CC6C6FE45
:10474000C6C6C6C6000000000000FC6666667C6641
:10475000666666FC0000000000003C66C2C0C0C087
:10476000C0C2663C000000000000F86C6666666629
:1047700066666CF8000000000000FE6662687868FB
:10478000606266FE000000000000FE6662687868F5
:10479000606060F00000000000003C66C2C0C0DE47
:1047A000C6C6663A000000000000C6C6C6C6FEC601
:1047B000C6C6C6C60000000000003C18181818182D
:1047C0001818183C0000000000001E0C0C0C0C0C0B
:1047D000CCCCCC78000000000000E6666C6C7878E9
:1047E0006C6666E6000000000000F06060606060DB
:1047F000606266FE000000000000C6EEFEFED6C647
:10480000C6C6C6C6000000000000C6E6F6FEDECE44
:10481000C6C6C6C6000000000000386CC6C6C6C6C4
:10482000C6C66C38000000000000FC6666667C604E
:10483000606060F00000000000007CC6C6C6C6C60E
:10484000C6D6DE7C0C0E00000000FC6666667C6C42
:10485000666666E60000000000007CC6C660380C94
:1048600006C6C67C0000000000007E7E5A1818189C
:104870001818183C000000000000C6C6C6C6C6C610
:10488000C6C6C67C000000000000C6C6C6C6C6C6B6
:10489000C66C3810000000000000C6C6C6C6C6D6EA
:1048A000D6FE6C6C000000000000C6C66C6C383888
:1048B0006C6CC6C6000000000000666666663C18A8
:1048C0001818183C000000000000FEC6860C1830C6
:1048D00060C2C6FE0000000000003C3030303030C6
:1048E0003030303C0000000000000080C0E0703834
:1048F0001C0E06020000000000003C0C0C0C0C0C0E
:104900000C0C0C3C0000000010386CC600000000CD
:104910000000000000000000000000000000000097
:104920000000000000FF0000303018000000000010
:1049300000000000000000000000000000780C7C77
:10494000CCCCCC76000000000000E06060786C66A3
:10495000666666DC0000000000000000007CC6C047
:10496000C0C0C67C0000000000001C0C0C3C6CCCDD
:10497000CCCCCC760000000000000000007CC6FE1D
:10498000C0C0C67C000000000000386C6460F060AD
:10499000606060F000000000000000000076CCCCF9
:1049A000CCCCCC7C0CCC78000000E060606C7666EF
:1049B000666666E600000000000018180038181847
:1049C0001818183C0000000000000606000E06063D
:1049D0000606060666663C000000E06060666C78CD
:1049E000786C66E6000000000000381818181818E7
:1049F0001818183C000000000000000000ECFED673
:104A0000D6D6D6D6000000000000000000DC6666A6
:104A1000666666660000000000000000007CC6C6F6
:104A2000C6C6C67C000000000000000000DC666610
:104A30006666667C6060F000000000000076CCCC0A
:104A4000CCCCCC7C0C0C1E000000000000DC76629C
:104A5000606060F00000000000000000007CC660A4
:104A6000380CC67C000000000000103030FC3030F4
:104A70003030361C000000000000000000CCCCCC20
:104A8000CCCCCC760000000000000000006666661A
:104A900066663C18000000000000000000C6C6C6A4
:104AA000D6D6FE6C000000000000000000C66C3886
:104AB00038386CC6000000000000000000C6C6C602
:104AC000C6C6C67E060CF8000000000000FECC182A
:104AD0003060C6FE0000000000000E1818187018A4
:104AE0001818180E000000000000181818180018F8
:104AF00018181818000000000000701818180E1878
:104B00001818187000000000000076DC000000009B
:104B100000000000000000000000000010386CC61B
:104B2000C6C6FE000000000010B582B0DFF83804F1
:104B30000468FBF771FCFDF770FAADF80000FDF7B3
:104B400069FAADF802004FF478420099200000F0B5
:104B500001F813BDF2B50400150000992000FDF71F
:104B60004BF9BDF80000BDF80210484307000120D2
:104B7000DFF8F81308600020DFF8F4130860002065
:104B8000DFF8F01308602C20DFF8EC130870002029
:104B9000DFF8E81308600120DFF8E0130860012067
:104BA000DFF8D013086000200600BE423AD2012090
:104BB000DFF8B81308600120DFF8B41308600020A4
:104BC000DFF8B0130860280080B2000ADFF8A813ED
:104BD00008700020DFF8A41308600120DFF89C13A0
:104BE00008600120DFF88C1308600120DFF87C13D7
:104BF00008600120DFF8781308600020DFF87413E4
:104C00000860DFF8740305700020DFF87013086097
:104C10000120DFF8681308600120DFF858130860EE
:104C2000761CC2E7F1BD2DE9F14781B00C00924638
:104C30001D00DFF84C03D0F80090FDF7EEF90838BE
:104C4000BDF80410884206DBFDF7E4F91038BDF822
:104C50000610884200DAB3E049460198FDF7CCF827
:104C60000120DFF8081308600020DFF80413086053
:104C70000020DFF8001308602C20DFF8FC12087019
:104C80000020DFF8F81208600120DFF8F012086059
:104C90000120DFF8E0120860002080465FFA88F803
:104CA000B8F1100F80F28C80DFF8D802E4B2210155
:104CB00051FA88F10844B0F5007000780600002031
:104CC0000700FFB2082F78DA30063AD50120DFF866
:104CD0009C1208600120DFF8981208600020DFF8BD
:104CE00094120860504680B2000ADFF88C120870F7
:104CF0000020DFF8881208600120DFF880120860C9
:104D00000120DFF8701208600120DFF860120860EF
:104D10000120DFF85C1208600020DFF858120860FC
:104D2000DFF8540280F800A00020DFF8501208607D
:104D30000120DFF8481208600120DFF8381208600F
:104D400038E00120DFF8241208600120DFF820128B
:104D500008600020DFF81C120860280080B2000AFA
:104D6000DFF8141208700020DFF81012086001202C
:104D7000DFF8081208600120DFF8F8110860012050
:104D8000DFF8E81108600120DFF8E4110860002076
:104D9000DFF8E0110860DFF8E00105700020DFF8BF
:104DA000DC1108600120DFF8D41108600120DFF871
:104DB000C411086076007F1C83E718F101086DE7D5
:104DC000BDE8F38771B581B00C0015001E00207896
:104DD00000282AD0FDF721F90838BDF804108842D0
:104DE00007DA0020ADF80400BDF806001030ADF879
:104DF0000600FDF70FF91038BDF80610884205DAF5
:104E00000020ADF806000020ADF8040033009BB28E
:104E10002A0092B221780198FFF705FFBDF804003F
:104E20000830ADF80400641CD1E773BD2DE9FA4FDA
:104E300083B004001500AA4603992000FCF7DCFFAC
:104E40000120DFF8281108600020DFF82411086035
:104E50000020DFF8201108602C20DFF81C110870FA
:104E60000020DFF8181108600120DFF81011086039
:104E70000120DFF800110860002080464046BDF8A0
:104E80000E1080B288426CD21FFA88F8BDF812006A
:104E900000FB08F0BDF80E1090FBF1F0ADF800003B
:104EA000BDF80000BDF81010484301900020070035
:104EB0003800BDF80C1080B288424FD2BFB2BDF8A6
:104EC000100000FB07F0BDF80C1090FBF1F08146DC
:104ED000019810FA89F006001AF80600C0B2C0085E
:104EE000C0B21AF80610C9B28908C9B2490151EA1C
:104EF000C0201AF80610C9B2C908C9B208438346CF
:104F000001201A4908600120194908600020194948
:104F10000860584680B2000A1749087000201749F7
:104F2000086001201549086001201249086001202D
:104F30000E49086001200E49086000200D490860F4
:104F40000D4880F800B000200C49086001200B4992
:104F500008600120074908607F1CA9E718F10108D3
:104F60008CE705B0BDE8F08F8C5F00002810FE4391
:104F70003010FE432C10FE4380F00F402410FE43FF
:104F8000905F000028450000DFF800F0A50DFF1F2E
:104F9000DFF8B41340B231F8201040B20128C0F25B
:104FA000788140B2162880F274810022DFF89C33A9
:104FB0001A7089B2652904DA0022DFF890335A703A
:104FC0007DE089B2C92904DA0122DFF880335A7002
:104FD00075E089B2B1F5967F04DC0222DFF86C330C
:104FE0005A706CE089B2B1F5C87F04DC0322DFF8A7
:104FF0005C335A7063E089B2B1F5FA7F04DC0422B5
:10500000DFF848335A705AE089B2B1F5167F04DCF4
:105010000522DFF838335A7051E089B2B1F52F7F9D
:1050200004DC0622DFF824335A7048E089B2B1F577
:10503000487F04DC0722DFF814335A703FE089B25E
:10504000B1F5617F04DC0822DFF800335A7036E0E6
:1050500089B2B1F57A7F04DC0922DFF8F0325A70A8
:105060002DE089B240F24D42914203DA0A22B74B59
:105070005A7024E089B2B1F5966F03DC0B22B34B72
:105080005A701CE089B240F21552914203DA0C22A8
:10509000AE4B5A7013E089B2B1F5AF6F03DC0D224D
:1050A000AA4B5A700BE089B240F2DD52914203DA0A
:1050B0000E22A64B5A7002E00F22A44B5A7089B2FE
:1050C000332903DA0022A14B9A7071E089B2652975
:1050D00003DA01229D4B9A706AE089B2972903DABC
:1050E00002229A4B9A7063E089B2C92903DA03223B
:1050F000964B9A705CE089B2FB2903DA0422934B49
:105100009A7055E089B2B1F5967F03DC05228F4B8A
:105110009A704DE089B2B1F5AF7F03DC06228B4B6C
:105120009A7045E089B2B1F5C87F03DC0722874B4E
:105130009A703DE089B2B1F5E17F03DC0822834B30
:105140009A7035E089B2B1F5FA7F03DC09227F4B12
:105150009A702DE089B240F22722914203DA0A22A6
:105160007A4B9A7024E089B2B1F5167F03DC0B22EA
:10517000764B9A701CE089B240F28B22914203DA9E
:105180000C22724B9A7013E089B2B1F52F7F03DCC9
:105190000D226E4B9A700BE089B240F2EF229142E1
:1051A00003DA0E22694B9A7002E00F22674B9A7065
:1051B00089B21A2903DA0022644BDA7069E089B2F5
:1051C000332903DA0122614BDA7062E089B24C299B
:1051D00003DA02225D4BDA705BE089B2652903DAFB
:1051E00003225A4BDA7054E089B27E2903DA042292
:1051F000564BDA704DE089B2972903DA0522534BFA
:10520000DA7046E089B2B02903DA06224F4BDA7031
:105210003FE089B2C92903DA07224C4BDA7038E043
:1052200089B2E22903DA0822484BDA7031E089B208
:10523000FB2903DA0922454BDA702AE089B2B1F57D
:105240008A7F03DA0A22414BDA7022E089B2B1F593
:10525000967F03DC0B223D4BDA701AE089B2B1F580
:10526000A37F03DA0C22394BDA7012E089B2B1F570
:10527000AF7F03DC0D22354BDA700AE089B2B1F55D
:10528000BC7F03DA0E22314BDA7002E00F222F4B83
:10529000DA70704710B50400200040B2FFF778FEC6
:1052A0002B48007810F0FD00294908702848007844
:1052B00050F0100026490870B8202649087026488A
:1052C0000078C006FBD424480078C0F38100C0B247
:1052D0000228F8D11D48C3781C4882781B484178C1
:1052E0001A480078FFF750FE174864B200EB8400BC
:1052F000807810F0070019490870134864B200EB79
:105300008400C07810F01F0050F04000144908706D
:10531000114800788006FBD50F4800784006FBD581
:105320000C48007810F03F000A4908700A480078DD
:10533000C0F38100C0B20328F8D1034864B230F84A
:105340002400C0B210BD00002C0BFF1F840BFF1FF8
:10535000014006400040064006400640044006402A
:10536000054006402DE9F84380460C005FEA98109E
:1053700010F00700C0B25FEA40194046103810F044
:105380003F00C0B2C000050015EB09000700E4B201
:1053900017EBC400401E060030003900C0B2C9B28D
:1053A00088420DD3002200213800C0B2FCF74AFE2B
:1053B0004FF481713800C0B2FCF7D8FE7F1CEBE7D8
:1053C000BDE8F1832DE9F84F04000D0016009B465F
:1053D0009DF92870DDF82C80DDF830907FB2002F29
:1053E00002D15FF0010A0DE07FB2012F02D15FF020
:1053F000020A07E07FB2022F02D15FF0040A01E047
:105400005FF0100A7FB2002F05D15A48854202D3BF
:105410005948A8421DD27FB2012F09D15548854273
:1054200006D35648A84203D315F00300032810D131
:105430007FB2022F09D14F48854206D35048A84277
:1054400003D315F00300002803D061214D48FCF779
:1054500030FFB8F5004F03D363214A48FCF729FF1A
:105460004948006850F00200474908604748006812
:1054700050F0020045490860454864B2610145505A
:10548000434864B26101084406610020404964B2A7
:105490006201114488805FFA8AFA3D4864B2610172
:1054A0000844A0F814A07FB2380210F4E0607FB284
:1054B00017F007010843364964B262011144C880FD
:1054C00040464004400C324964B262011144C88233
:1054D00040464004400C2E4964B262011144C88326
:1054E0002C48006830F080002A4908605FFA8AFA88
:1054F000274864B261010844C0F808A0002024498C
:1055000064B262011144C8605FEAC97002D4D8F184
:10551000000000E000201E4964B26201114488616D
:105520004CF20A001A4964B2620111448883584659
:10553000C0B24009313050F08000174964B20855BC
:1055400016495846C0B2FCF711FE5146C9B22800B0
:10555000FFF708FF124800680121A1408843104965
:105560000860104800680121A14008430D49086007
:10557000BDE8F18F10F00F4013F10F4012F10F4012
:1055800010F10F40485D0000408004403C80044022
:105590000090004000800040001002400001010027
:1055A0000C80004024800040012110F01F02914037
:1055B000784A40B2430942F823107047012110F0A5
:1055C0001F029140744A40B2430942F823107047C9
:1055D00010B440B2002808D50A01704B40B210F058
:1055E0000F04234403F8042C03E00A016C4B40B27F
:1055F0001A5410BC704770B46A4C24680125854069
:105600002C43684D2C601C006404640C664D40B251
:1056100046013544EC821C006404640C624D40B2C7
:1056200046013544EC83604C40B2450161515E4C0B
:1056300040B245012C4422615C4C246854F00104C2
:105640005A4D2C6070BC704710B586B05FF4E131E4
:105650000520FCF70DFFFF208DF80C0000208DF8D1
:105660000D000A208DF80E0032208DF80F004FF447
:1056700016700400200080B2000A8DF8100020008F
:105680008DF811001E208DF812005A208DF813009D
:10569000082203A90520FDF702F8FF208DF80C0071
:1056A00002208DF80D0000208DF80E0000208DF8EE
:1056B0000F0000208DF8100020208DF811003520FB
:1056C0008DF812005A208DF81300082203A9052036
:1056D000FCF7E5FF72B601200290BC20019000208B
:1056E00000901B23324A33490020FFF76BFE3249FA
:1056F0001B20FCF73BFD2D480068400840002B496B
:1057000008602848006850F0010026490860002021
:10571000FFF74AFF2548006850F001002349086060
:105720005B20FFF74BFF25491D20FCF71FFD0121E2
:105730005B20FFF74DFF5B20FFF736FF62B606B038
:1057400010BD80B500201E490880BC23184A1949A5
:105750000020FFF750FF01BD80B519480088401CAC
:10576000174908801648008878280BDABC231048AF
:1057700013490988BC22514300EB01020D49002066
:10578000FFF739FF0E480088782802DB01200D4919
:10579000087001BD00E100E080E100E018ED00E0EC
:1057A00000E400E024800040009000400C800040B5
:1057B000F40DFF1F50F00F400201020002010A0029
:1057C0007066FF1F7266FF1FDFF800F0B322000053
:1057D000DFF800F05B220000F020544908705348C5
:1057E00000780006FBD5514800787121084201D0AD
:1057F000002000E00120704780B54D48006850F45B
:1058000000204B490860494800780006FBD5F0208D
:10581000464908700A20FFF7DBFF01BD10B582B0D2
:105820000400A4B24FF4805000FB04F00090092063
:10583000404908709DF802003F4908709DF801003A
:105840003E4908709DF800003D490870FFF7C4FF0D
:10585000002801D100200EE0A4B2002C0AD15FF094
:10586000FF327FF001034FF48161200080B200F02D
:1058700003F800E0012016BDF0B583B006000F006C
:1058800014001D00B6B24FF48050BFB200FB06708A
:105890000190BFB2082097FBF0F100FB11700028C7
:1058A00003D0EA212748FFF78FFFBFB2B7F5805F2B
:1058B00003DDEC212348FFF787FF9DF806001E4912
:1058C00008709DF805001D4908709DF804001C49EA
:1058D000087000949DF803001B4908709DF80200B1
:1058E0001A4908709DF80100194908709DF80000D8
:1058F0001849087007200F49087000959DF80300AB
:10590000154908709DF80200144908709DF80100BF
:10591000134908709DF8000012490870FFF75CFFFA
:10592000002801D1002000E00120FEBD000002405F
:1059300004F001400700024006000240050002405A
:1059400004000240845D00000B0002400A00024097
:1059500009000240080002400F0002400E00024011
:105960000D0002400C000240F0B4114E36683400C5
:105970000F4E366856F47F060D4F3E600E0616F049
:10598000706656EA0076170517F470073E431F0449
:1059900017F470273E43074F3E6000263500EDB2F6
:1059A0009D4201D26D1CFAE7014E3460F0BC704795
:1059B00000F001404480044080B500F095F800F00C
:1059C0002AF800F00AF8FCF791FC012201210420DA
:1059D000FCF738FB00F0CBF8FEE780B50C20FFF7B2
:1059E00059FC33490860324800684FF47A714843E3
:1059F000304908602F4800682F490968C1F30361E6
:105A0000491CB0FBF1F02D4908605FF4E13103203F
:105A1000FCF72EFD01BD2DE9F843294829498842AC
:105A20000DD000208046B8F5826F08D2254850F886
:105A30002800234941F8280018F10108F3E720481D
:105A400000F0DAF82048070020480600204804004B
:105A5000A01B80464046B0F10108002804D03078F1
:105A60003870761C7F1CF5E71A4881461A480500F5
:105A7000B5EB090080464046B0F10108002805D08A
:105A8000002089F8000019F10109F4E713481449CE
:105A9000144A531A98464346B3F10108002B04D028
:105AA0000B780370491C401CF5E7BDE8F18300004A
:105AB0001866FF1F1466FF1F448004401C66FF1F0A
:105AC0000000FF1F000000001004FF1F343D000015
:105AD00028450000F40DFF1F7466FF1F040CFF1F14
:105AE000C8570000B859000080B500F008F80C480D
:105AF00000884FF6FE7108400949088001BDEFF3A8
:105B0000118072B64CF22051064A11804DF62811D0
:105B1000044A1180C0B2002800D162B6704700006C
:105B2000002005400E200540012110F01F02914089
:105B3000254A40B2430942F82310704710B5234864
:105B400000680028FBD02148006804005FF0FF30A7
:105B50001E490860FFF7F5FD10BD80B51C480068C0
:105B600050F001001A490860FFF7F6FD01BDF8B5D5
:105B700018480468184805681848066818480768EF
:105B8000FEF7D2FF4FF478431F2216492800FFF793
:105B900019F91549102000F040F81449672000F069
:105BA0003CF8FFF751FD5720FFF7BEFF1048007883
:105BB0000028FBD03B000F4A21002800FFF736F9F0
:105BC00000200B490870F1E700E100E0A0900440DC
:105BD000248000407C5F0000805F0000845F000044
:105BE000885F0000605F00005B5B00003D5B0000C1
:105BF0007266FF1FF40DFF1F10B504004FF4007014
:105C000094FBF0F100FB1140002803D01E210B484B
:105C1000FCF74FFB0A48046010BD38B504000D00C6
:105C2000074800680749884203D030210348FCF741
:105C300040FB044864B240F8245031BD385E000097
:105C400008ED00E00000FF1F433A5C557365727376
:105C50005C585C4465736B746F705CD6C7C4DCB30E
:105C6000B52020B4FAC2EB5C31312E375C426F6153
:105C700072645C7372635C5643414E5F4C43445F95
:105C8000535437373335532E63000000433A5C5585
:105C9000736572735C585C4465736B746F705CD62B
:105CA000C7C4DCB3B52020B4FAC2EB5C31312E3767
:105CB0005C436869705C7372635C4D4B36305F5354
:105CC00079735469636B2E630000000019E050F88B
:105CD000041BCB0744BFA9F101035918121F00236D
:105CE000042A41F8043BF9D25FEA827C0B4604D5D2
:105CF0004FF0000CA1F800C09B1CD10744BF00214D
:105D0000197050F8042B002AE1D170470A2A2A2A78
:105D10002A64656661756C745F69737220656E7460
:105D200065726564206F6E20766563746F722025DE
:105D3000642A2A2A2A2A0A0A257320496E7465725F
:105D40007275707400000000433A5C55736572739D
:105D50005C585C4465736B746F705CD6C7C4DCB30D
:105D6000B52020B4FAC2EB5C31312E375C43686950
:105D7000705C7372635C4D4B36305F646D612E6393
:105D800000000000433A5C55736572735C585C44D4
:105D900065736B746F705CD6C7C4DCB3B52020B478
:105DA000FAC2EB5C31312E375C436869705C737208
:105DB000635C4D4B36305F666C6173682E63000028
:105DC000433A5C55736572735C585C4465736B74DD
:105DD0006F705CD6C7C4DCB3B52020B4FAC2EB5CEC
:105DE00031312E375C436869705C7372635C4D4B74
:105DF00036305F6770696F2E63000000433A5C5570
:105E0000736572735C585C4465736B746F705CD6B9
:105E1000C7C4DCB3B52020B4FAC2EB5C31312E37F5
:105E20005C436869705C7372635C4D4B36305F75C0
:105E30006172742E63000000433A5C55736572739F
:105E40005C585C4465736B746F705CD6C7C4DCB31C
:105E5000B52020B4FAC2EB5C31312E375C4368695F
:105E6000705C7372635C6D6973632E630000000085
:105E700010B5074979441831064C7C44163404E0C7
:105E80000A68081D114488470146A142F8D110BD97
