:10000000F8FF002011040000FB230000FB23000088
:10001000FB230000FB230000FB230000FB23000068
:10002000FB230000FB230000FB230000FB23000058
:10003000FB230000FB230000FB230000FB23000048
:10004000FB230000FB230000FB230000FB23000038
:10040000FFFFFFFFFFFFFFFFFFFFFFFFFEFFFFFFFD
:1004100062B609F0CDFEFEE710B500200400E4B29C
:10042000082C08DA00220121B4F18000C0B201F0EA
:1004300009FE641CF3E7002201218B2001F002FE7B
:10044000012201218C2001F0FDFD012201218820E3
:1004500001F0F8FD00220121052001F0F3FD00224A
:100460000121892001F0EEFD4FF4A0718B2001F0F5
:10047000BBFE4FF4A0718C2001F0B6FE4FF4A071CA
:10048000882001F0B1FE4FF4A071052001F0ACFE10
:100490000020DFF8241D08600120DFF81C1D086023
:1004A0004FF4FA7001F013FF0120DFF8101D08600F
:1004B0000020DFF80C1D08600020DFF8081D086030
:1004C0001120DFF8041D08700020DFF8001D08600F
:1004D0000120DFF8F81C08600120DFF8E81C086044
:1004E000782001F0F4FE0120DFF8D01C0860002025
:1004F000DFF8CC1C08600020DFF8C81C0860B120C1
:10050000DFF8C41C08700020DFF8C01C0860012060
:10051000DFF8B81C08600120DFF8A81C0860012083
:10052000DFF8981C08600120DFF8941C08600020A8
:10053000DFF8901C08600520DFF88C1C0870002094
:10054000DFF8881C08600120DFF8801C08600120AB
:10055000DFF8701C08600120DFF8601C08600120D3
:10056000DFF85C1C08600020DFF8581C08603A20A7
:10057000DFF8541C08700020DFF8501C08600120D0
:10058000DFF8481C08600120DFF8381C08600120F3
:10059000DFF8281C08600120DFF8241C0860002018
:1005A000DFF8201C08603A20DFF81C1C08700020CF
:1005B000DFF8181C08600120DFF8101C086001201B
:1005C000DFF8001C08600120DFF8F01B0860002045
:1005D000DFF8EC1B08600020DFF8E81B0860B220A1
:1005E000DFF8E41B08700020DFF8E01B0860012042
:1005F000DFF8D81B08600120DFF8C81B0860012065
:10060000DFF8B81B08600120DFF8B41B0860002089
:10061000DFF8B01B08600520DFF8AC1B0870002075
:10062000DFF8A81B08600120DFF8A01B086001208C
:10063000DFF8901B08600120DFF8801B08600120B4
:10064000DFF87C1B08600020DFF8781B08603A2088
:10065000DFF8741B08700020DFF8701B08600120B1
:10066000DFF8681B08600120DFF8581B08600120D4
:10067000DFF8481B08600120DFF8441B08600020F9
:10068000DFF8401B08603A20DFF83C1B08700020B0
:10069000DFF8381B08600120DFF8301B08600120FC
:1006A000DFF8201B08600120DFF8101B0860002025
:1006B000DFF80C1B08600020DFF8081B0860B3207F
:1006C000DFF8041B08700020DFF8001B0860012021
:1006D000DFF8F81A08600120DFF8E81A0860012046
:1006E000DFF8D81A08600120DFF8D41A086000206B
:1006F000DFF8D01A08600520DFF8CC1A0870002057
:10070000DFF8C81A08600120DFF8C01A086001206D
:10071000DFF8B01A08600120DFF8A01A0860012095
:10072000DFF89C1A08600020DFF8981A08603A2069
:10073000DFF8941A08700020DFF8901A0860012092
:10074000DFF8881A08600120DFF8781A08600120B5
:10075000DFF8681A08600120DFF8641A08600020DA
:10076000DFF8601A08603A20DFF85C1A0870002091
:10077000DFF8581A08600120DFF8501A08600120DD
:10078000DFF8401A08600120DFF8301A0860012005
:10079000DFF82C1A08600020DFF8281A086005200E
:1007A000DFF8241A08700020DFF8201A0860012002
:1007B000DFF8181A08600120DFF8081A0860012025
:1007C000DFF8F81908600120DFF8F419086000204C
:1007D000DFF8F01908603A20DFF8EC190870002003
:1007E000DFF8E81908600120DFF8E019086001204F
:1007F000DFF8D01908600120DFF8C0190860012077
:10080000DFF8BC1908600020DFF8B81908603A204A
:10081000DFF8B41908700020DFF8B0190860012073
:10082000DFF8A81908600120DFF898190860012096
:10083000DFF8881908600020DFF8841908600020BC
:10084000DFF880190860B420DFF87C1908700020F8
:10085000DFF8781908600120DFF8701908600120BE
:10086000DFF8601908600120DFF8501908600120E6
:10087000DFF84C1908600020DFF8481908600720ED
:10088000DFF8441908700020DFF8401908600120E3
:10089000DFF8381908600120DFF828190860012006
:1008A000DFF8181908600020DFF81419086000202C
:1008B000DFF810190860C020DFF80C19087000205C
:1008C000DFF8081908600120DFF80019086001202E
:1008D000DFF8F01808600120DFF8E0180860012058
:1008E000DFF8DC1808600020DFF8D818086028203E
:1008F000DFF8D41808700020DFF8D0180860012055
:10090000DFF8C81808600120DFF8B8180860012077
:10091000DFF8A81808600120DFF8A418086000209C
:10092000DFF8A01808600820DFF89C180870002085
:10093000DFF8981808600120DFF89018086001209F
:10094000DFF8801808600120DFF8701808600120C7
:10095000DFF86C1808600020DFF868180860842051
:10096000DFF8641808700020DFF8601808600120C4
:10097000DFF8581808600120DFF8481808600120E7
:10098000DFF8381808600020DFF83418086000200D
:10099000DFF830180860C120DFF82C18087000203C
:1009A000DFF8281808600120DFF82018086001200F
:1009B000DFF8101808600120DFF800180860012037
:1009C000DFF8FC1708600020DFF8F8170860C02087
:1009D000DFF8F41708700020DFF8F0170860012036
:1009E000DFF8E81708600120DFF8D8170860012059
:1009F000DFF8C81708600020DFF8C417086000207F
:100A0000DFF8C0170860C220DFF8BC1708700020AC
:100A1000DFF8B81708600120DFF8B0170860012080
:100A2000DFF8A01708600120DFF8901708600120A8
:100A3000DFF88C1708600020DFF8881708600C20AA
:100A4000DFF8841708700020DFF8801708600120A5
:100A5000DFF8781708600120DFF8681708600120C8
:100A6000DFF8581708600120DFF8541708600020ED
:100A7000DFF8501708600020DFF84C1708700020DE
:100A8000DFF8481708600120DFF8401708600120F0
:100A9000DFF8301708600120DFF820170860002019
:100AA000DFF81C1708600020DFF818170860C32063
:100AB000DFF8141708700020DFF810170860012015
:100AC000DFF8081708600120DFF8F8160860012039
:100AD000DFF8E81608600120DFF8E416086000205F
:100AE000DFF8E01608608C20DFF8DC1608700020C4
:100AF000DFF8D81608600120DFF8D0160860012062
:100B0000DFF8C01608600120DFF8B0160860012089
:100B1000DFF8AC1608600020DFF8A81608602A206D
:100B2000DFF8A41608700020DFF8A0160860012086
:100B3000DFF8981608600120DFF8881608600120A9
:100B4000DFF8781608600020DFF8741608600020CF
:100B5000DFF870160860C420DFF86C1608700020FB
:100B6000DFF8681608600120DFF8601608600120D1
:100B7000DFF8501608600120DFF8401608600120F9
:100B8000DFF83C1608600020DFF8381608608A207D
:100B9000DFF8341608700020DFF8301608600120F6
:100BA000DFF8281608600120DFF818160860012019
:100BB000DFF8081608600120DFF80416086000203E
:100BC000DFF800160860EE20DFF8FC150870002042
:100BD000DFF8F81508600120DFF8F0150860012043
:100BE000DFF8E01508600120DFF8D015086000206C
:100BF000DFF8CC1508600020DFF8C8150860C520B4
:100C0000DFF8C41508700020DFF8C0150860012067
:100C1000DFF8B81508600120DFF8A815086001208A
:100C2000DFF8981508600120DFF8941508600020AF
:100C3000DFF8901508600C20DFF88C150870002094
:100C4000DFF8881508600120DFF8801508600120B2
:100C5000DFF8701508600120DFF8601508600020DB
:100C6000DFF85C1508600020DFF858150860E02008
:100C7000DFF8541508700020DFF8501508600120D7
:100C8000DFF8481508600120DFF8381508600120FA
:100C9000DFF8281508600120DFF82415086000201F
:100CA000DFF8201508600520DFF81C15087000200B
:100CB000DFF8181508600120DFF810150860012022
:100CC000DFF8001508600120DFF8F014086001204B
:100CD000DFF8EC1408600020DFF8E81408601A2040
:100CE000DFF8E41408700020DFF8E0140860012049
:100CF000DFF8D81408600120DFF8C814086001206C
:100D0000DFF8B81408600120DFF8B4140860002090
:100D1000DFF8B01408600C20DFF8AC140870002075
:100D2000DFF8A81408600120DFF8A0140860012093
:100D3000DFF8901408600120DFF8801408600120BB
:100D4000DFF87C1408600020DFF8781408600E20BB
:100D5000DFF8741408700020DFF8701408600120B8
:100D6000DFF8681408600120DFF8581408600120DB
:100D7000DFF8481408600120DFF844140860002000
:100D8000DFF8401408603A20DFF83C1408700020B7
:100D9000DFF8381408600120DFF830140860012003
:100DA000DFF8201408600120DFF81014086001202B
:100DB000DFF80C1408600020DFF808140860342005
:100DC000DFF8041408700020DFF800140860012028
:100DD000DFF8F81308600120DFF8E813086001204D
:100DE000DFF8D81308600120DFF8D4130860002072
:100DF000DFF8D01308602D20DFF8CC130870002036
:100E0000DFF8C81308600120DFF8C0130860012074
:100E1000DFF8B01308600120DFF8A013086001209C
:100E2000DFF89C1308600020DFF8981308602F207B
:100E3000DFF8941308700020DFF890130860012099
:100E4000DFF8881308600120DFF8781308600120BC
:100E5000DFF8681308600120DFF8641308600020E1
:100E6000DFF8601308602D20DFF85C1308700020A5
:100E7000DFF8581308600120DFF8501308600120E4
:100E8000DFF8401308600120DFF83013086001200C
:100E9000DFF82C1308600020DFF8281308602A20F0
:100EA000DFF8241308700020DFF820130860012009
:100EB000DFF8181308600120DFF80813086001202C
:100EC000DFF8F81208600120DFF8F4120860002053
:100ED000DFF8F01208602F20BB4908700020BB49E2
:100EE00008600120B94908600120B6490860012066
:100EF000B24908600120B24908600020B149086089
:100F00003C20B14908700020B04908600120AF4979
:100F100008600120AB4908600120A8490860012051
:100F2000A74908600020A74908600020A64908706A
:100F30000020A64908600120A44908600120A149B9
:100F4000086001209D49086001209D49086000203B
:100F50009C49086001209C49087000209B4908605A
:100F600001209A49086001209649086001209349B0
:100F70000860012092490860002092490860022020
:100F80009149087000209149086001208F4908604C
:100F900001208C49086001208849086001208849A7
:100FA00008600020874908601020874908700020E9
:100FB0008649086001208549086001208149086050
:100FC00001207E49086000207D49086000207D499D
:100FD0000860E1207C49087000207C4908600120FD
:100FE0007A49086001207749086001207349086048
:100FF000012073490860002072490860042072498A
:1010000008700020714908600120704908600120C3
:101010006C4908600120694908600120684908603E
:101020000020684908601B20674908700020674954
:1010300008600120654908600120624908600120BC
:101040005E49086001205E49086000205D49086033
:101050000D205D49087000205C49086001205B4953
:1010600008600120574908600120544908600120A8
:10107000534908600020534908600E205249087007
:1010800000205249086001205049086001204D4964
:101090000860012049490860012049490860002092
:1010A000484908602D2048490870002047490860D9
:1010B00001204649086001204249086001203F495B
:1010C000086001203E49086000203E490860292050
:1010D0003D49087000203D49086001203B490860F7
:1010E0000120384908600120344908600120344952
:1010F000086000203349086024203349087000202C
:101100003249086001203149086001202D490860FA
:1011100001202A4908600120294908600020294946
:10112000086029202849087000202849086001200B
:101130002649086001202349086001201F490860F2
:1011400001201F49086000201E49086028201E4910
:10115000087000201D49086001201C49086001201A
:1011600018490860012015490860012014490860E9
:1011700000201449086026201349087000201349F4
:10118000086001201149086001200E490860012013
:101190000A49086001200A490860002009490860DE
:1011A00031200949087000200849086001200749DA
:1011B0000860012003490BE02420FE433020FE4359
:1011C0001400FE432020FE4300F10F402C20FE437C
:1011D00008600120DFF80C1C08600120DFF8081C03
:1011E00008600020DFF8041C08603B20DFF8001CCA
:1011F00008700020DFF8FC1B08600120DFF8F41BFA
:1012000008600120DFF8E41B08600120DFF8D41B30
:1012100008600120DFF8D01B08600020DFF8CC1B3D
:1012200008600020DFF8C81B08700020DFF8C41B2E
:1012300008600120DFF8BC1B08600120DFF8AC1B50
:1012400008600120DFF89C1B08600120DFF8981B74
:1012500008600020DFF8941B08600020DFF8901B76
:1012600008700020DFF88C1B08600120DFF8841B69
:1012700008600120DFF8741B08600120DFF8641BA0
:1012800008600120DFF8601B08600020DFF85C1BAD
:1012900008600320DFF8581B08700020DFF8541B9B
:1012A00008600120DFF84C1B08600120DFF83C1BC0
:1012B00008600120DFF82C1B08600120DFF8281BE4
:1012C00008600020DFF8241B08601220DFF8201BD4
:1012D00008700020DFF81C1B08600120DFF8141BD9
:1012E00008600120DFF8041B08600120DFF8F41A11
:1012F00008600020DFF8F01A08600020DFF8EC1A20
:1013000008603A20DFF8E81A08700020DFF8E41AD5
:1013100008600120DFF8DC1A08600120DFF8CC1A31
:1013200008600120DFF8BC1A08600120DFF8B81A55
:1013300008600020DFF8B41A08600520DFF8B01A52
:1013400008700020DFF8AC1A08600120DFF8A41A4A
:1013500008600120DFF8941A08600120DFF8841A81
:1013600008600020DFF8801A08600020DFF87C1A8F
:1013700008602920DFF8781A08700020DFF8741A56
:1013800008600120DFF86C1A08600120DFF85C1AA1
:1013900008600120DFF84C1A08600020DFF8481AC6
:1013A00008600020DFF8441A08602C20DFF8401A9B
:1013B00008700020DFF83C1A08600120DFF8341ABA
:1013C00008600120DFF8241A0860DFF8540C007868
:1013D00000F001F810BD10B50400E4B2042C04DBE9
:1013E000C521DFF8400C00F09EFFDFF8340C0470DC
:1013F000E4B2002C09D0022C00F0B982C0F05E816A
:10140000032C00F0EA8300F0EBBC0120DFF8D419D4
:1014100008600020DFF8D01908600020DFF8CC1940
:1014200008603620DFF8C81908700020DFF8C419FA
:1014300008600120DFF8BC1908600120DFF8AC1952
:1014400008600120DFF89C1908600120DFF8981976
:1014500008600020DFF894190860C820DFF89019B0
:1014600008700020DFF88C1908600120DFF884196B
:1014700008600120DFF8741908600120DFF86419A2
:1014800008600020DFF8601908600020DFF85C19B0
:1014900008602A20DFF8581908700020DFF8541976
:1014A00008600120DFF84C1908600120DFF83C19C2
:1014B00008600120DFF82C1908600120DFF82819E6
:1014C00008600020DFF8241908600020DFF82019E8
:1014D00008700020DFF81C1908600120DFF81419DB
:1014E00008600120DFF8041908600120DFF8F41813
:1014F00008600120DFF8F01808600020DFF8EC1821
:1015000008600220DFF8E81808700020DFF8E4180F
:1015100008600120DFF8DC1808600120DFF8CC1833
:1015200008600120DFF8BC1808600120DFF8B81857
:1015300008600020DFF8B41808600020DFF8B01859
:1015400008700020DFF8AC1808600120DFF8A4184C
:1015500008600120DFF8941808600120DFF8841883
:1015600008600120DFF8801808600020DFF87C1890
:1015700008608120DFF8781808700020DFF8741800
:1015800008600120DFF86C1808600120DFF85C18A3
:1015900008600120DFF84C1808600020DFF84818C8
:1015A00008600020DFF8441808602B20DFF840189E
:1015B00008700020DFF83C1808600120DFF83418BC
:1015C00008600120DFF8241808600120DFF81418F3
:1015D00008600120DFF8101808600020DFF80C1800
:1015E00008600020DFF8081808700020DFF80418F1
:1015F00008600120DFF8FC1708600120DFF8EC1715
:1016000008600120DFF8DC1708600120DFF8D81738
:1016100008600020DFF8D41708600320DFF8D01737
:1016200008700020DFF8CC1708600120DFF8C4172D
:1016300008600120DFF8B41708600120DFF8A41764
:1016400008600120DFF8A01708600020DFF89C1771
:1016500008600020DFF8981708700020DFF8941762
:1016600008600120DFF88C1708600120DFF87C1784
:1016700008600120DFF86C1708600120DFF86817A8
:1016800008600020DFF8641708608220DFF8601728
:1016900008700020DFF85C1708600120DFF854179D
:1016A00008600120DFF8441708608020DFF878190F
:1016B00008808020DFF87419088091E30120DFF8AA
:1016C000241708600020DFF8201708600020DFF8EA
:1016D0001C1708603620DFF8181708700020DFF8A4
:1016E000141708600120DFF80C1708600120DFF8EC
:1016F000FC1608600120DFF8EC1608600120DFF816
:10170000E81608600020DFF8E4160860A820DFF87B
:10171000E01608700020DFF8DC1608600120DFF812
:10172000D41608600120DFF8C41608600120DFF835
:10173000B41608600020DFF8B01608600020DFF85B
:10174000AC1608602A20DFF8A81608700020DFF821
:10175000A41608600120DFF89C1608600120DFF85D
:101760008C1608600120DFF87C1608600120DFF885
:10177000781608600020DFF8741608600020DFF893
:10178000701608700020DFF86C1608600120DFF882
:10179000641608600120DFF8541608600120DFF8A5
:1017A000441608600120DFF8401608600020DFF8CA
:1017B0003C1608600320DFF8381608700020DFF8B8
:1017C000341608600120DFF82C1608600120DFF8CD
:1017D0001C1608600120DFF80C1608600120DFF8F5
:1017E000081608600020DFF8041608600020DFF803
:1017F000001608700020DFF8FC1508600120DFF8F3
:10180000F41508600120DFF8E41508600120DFF816
:10181000D41508600120DFF8D01508600020DFF83B
:10182000CC1508608220DFF8C81508700020DFF8AA
:10183000C41508600120DFF8BC1508600120DFF83E
:10184000AC1508600120DFF89C1508600020DFF867
:10185000981508600020DFF8941508602B20DFF849
:10186000901508700020DFF88C1508600120DFF863
:10187000841508600120DFF8741508600120DFF886
:10188000641508600120DFF8601508600020DFF8AB
:101890005C1508600020DFF8581508700020DFF89C
:1018A000541508600120DFF84C1508600120DFF8AE
:1018B0003C1508600120DFF82C1508600120DFF8D6
:1018C000281508600020DFF8241508600220DFF8E2
:1018D000201508700020DFF81C1508600120DFF8D3
:1018E000141508600120DFF8041508600120DFF8F6
:1018F000F41408600120DFF8F01408600020DFF81D
:10190000EC1408600020DFF8E81408700020DFF80D
:10191000E41408600120DFF8DC1408600120DFF81F
:10192000CC1408600120DFF8BC1408600120DFF847
:10193000B81408600020DFF8B41408608120DFF8D4
:10194000B01408700020DFF8AC1408600120DFF844
:10195000A41408600120DFF8941408608020DFF8E8
:10196000C81608808020DFF8C416088038E20120FD
:10197000DFF8701408600020DFF86C1408600020A5
:10198000DFF8681408603620DFF86414087000205F
:10199000DFF8601408600120DFF8581408600120A7
:1019A000DFF8481408600120DFF8381408600120CF
:1019B000DFF8341408600020DFF8301408600820D5
:1019C000DFF82C1408700020DFF8281408600120CC
:1019D000DFF8201408600120DFF8101408600120EF
:1019E000DFF8001408600020DFF8FC130860002016
:1019F000DFF8F81308602A20DFF8F41308700020DD
:101A0000DFF8F01308600120DFF8E8130860012018
:101A1000DFF8D81308600120DFF8C8130860012040
:101A2000DFF8C41308600020DFF8C013086000204E
:101A3000DFF8BC1308700020DFF8B813086001203D
:101A4000DFF8B01308600120DFF8A0130860012060
:101A5000DFF8901308600120DFF88C130860002085
:101A6000DFF8881308600220DFF884130870002074
:101A7000DFF8801308600120DFF878130860012088
:101A8000DFF8681308600120DFF8581308600120B0
:101A9000DFF8541308600020DFF8501308600020BE
:101AA000DFF84C1308700020DFF8481308600120AD
:101AB000DFF8401308600120DFF8301308600120D0
:101AC000DFF8201308600120DFF81C1308600020F5
:101AD000DFF8181308608120DFF814130870002065
:101AE000DFF8101308600120DFF8081308600120F8
:101AF000DFF8F81208600120BA4908600020BA49EE
:101B000008600020B94908602B20B94908700020FE
:101B1000B84908600120B74908600120B34908604E
:101B20000120B04908600120AF4908600020AF499A
:101B300008600020AE4908700020AE49086001200E
:101B4000AC4908600120A94908600120A549086046
:101B50000120A54908600020A44908600320A44989
:101B600008700020A34908600120A24908600120F4
:101B70009E49086001209B49086001209A4908603D
:101B800000209A490860002099490870002099496E
:101B900008600120974908600120944908600120ED
:101BA0009049086001209049086000208F49086032
:101BB00082208F49087000208E49086001208D49DD
:101BC00008600120894908608020DFF85C140880E3
:101BD0008020DFF85814088002E101208149086064
:101BE0000020814908600020804908603620804933
:101BF000087000207F49086001207E4908600120AC
:101C00007A49086001207749086001207649086018
:101C100000207649086068207549087000207549E1
:101C200008600120734908600120704908600120A4
:101C30006C49086000206C49086000206B4908600E
:101C40002A206B49087000206A4908600120694910
:101C50000860012065490860012062490860012090
:101C600061490860002061490860002060490870EF
:101C700000206049086001205E49086001205B493E
:101C8000086001205749086001205749086000207A
:101C900056490860032056490870002055490860DD
:101CA00001205449086001205049086001204D4935
:101CB000086001204C49086000204C490860002061
:101CC0004B49087000204B490860012049490860D1
:101CD000012046490860012042490860012042492C
:101CE00008600020414908608220414908700020B6
:101CF0004049086001203F49086001203B490860D5
:101D00000120384908600020374908600020374921
:101D100008602B20364908700020364908600120F1
:101D20003449086001203149086001202D490860CC
:101D300001202D49086000202C49086000202C4912
:101D4000087000202B49086001202A490860012002
:101D500026490860012023490860012022490860C3
:101D600000202249086002202149087000202149F2
:101D7000086001201F49086001201C4908600120FB
:101D800018490860012018490860002017490860B8
:101D900000201749087000201649086001201549E5
:101DA000086001201149086001200E4908600120E7
:101DB0000D49086000200D49086081200C49087019
:101DC00000200C49086001200A49086001200749E9
:101DD0000860802094490880802094490880FFE7AB
:101DE00010BD00003020FE431400FE432020FE43BF
:101DF00000F10F402C20FE4303B489480078C0074F
:101E00000AD5BDF80000C01CADF80000BDF8020006
:101E1000801CADF8020009E0BDF80000801CADF8A0
:101E20000000BDF80200C01CADF80200012080498E
:101E3000086000207F49086000207F4908602A2050
:101E40007E49087000207E49086001207C490860B6
:101E50000120794908600120754908600120754911
:101E60000860002074490860BDF8000080B2000AD4
:101E700072490870002072490860012070490860AA
:101E800001206D4908600120694908600120694905
:101E90000860002068490860BDF8000067490870C4
:101EA00000206749086001206549086001206249F7
:101EB000086001205E49086001205E49086000203A
:101EC0005D490860BDF80000BDF8041011FA80F00B
:101ED000401E00125949087000205949086001202D
:101EE00057490860012054490860012050490860A2
:101EF00001205049086000204F490860BDF80000EB
:101F0000BDF804100818401E4C49087000204C49C8
:101F1000086001204A490860012047490860012003
:101F20004349086000204349086000204249086096
:101F30002B20424908700020414908600120404997
:101F4000086001203C4908600120394908600120EF
:101F500038490860002038490860BDF8020080B2A6
:101F6000000A3649087000203549086001203449CC
:101F7000086001203049086001202D4908600120D7
:101F80002C49086000202C490860BDF802002B494C
:101F9000087000202A4908600120294908600120B2
:101FA0002549086001202249086001202149086074
:101FB000002021490860BDF80200BDF8061011FAA2
:101FC00080F0401E00121D49087000201C49086066
:101FD00001201B49086001201749086001201449AD
:101FE0000860012013490860002013490860BDF80B
:101FF0000200BDF806100818401E104908700020A5
:102000000F49086001200E49086001200A49086054
:1020100002B0704704480088704704480088704741
:10202000702AFF1F20A300006C0DFF1F6E0DFF1F05
:102030003020FE431400FE432020FE4300F10F40F9
:102040002C20FE4370B504000D0016004FF4807183
:102050002000C0B200F0C8F86DB2002D11D1604868
:10206000E4B2611150F821005D49E4B2621151F807
:1020700022104969012214F01F039A4091434161E3
:1020800036E05748E4B2611150F821005449E4B2F7
:10209000621151F822104969012214F01F039A407D
:1020A00011434161F6B2002E11D14D48E4B26111E5
:1020B00050F821000068012114F01F02914088436C
:1020C0004749E4B2621151F82210086010E0444818
:1020D000E4B2611150F821000068012114F01F02E0
:1020E000914008433E49E4B2621151F82210086061
:1020F00070BD38B504000D003948E4B2611150F8E4
:102100002100406914F01F010200CA40D00703D427
:102110006321344800F007F9EDB2002D11D13048A9
:10212000E4B2611150F821000068012114F01F028F
:10213000914088432A49E4B2621151F822100860A4
:1021400010E02748E4B2611150F821000068012135
:1021500014F01F02914008432149E4B2621151F882
:102160002210086031BD10B504001D48E4B26111B1
:1021700050F82100406914F01F010200CA40D00746
:1021800003D47B21174800F0CEF81548E4B2611162
:1021900050F82100012114F01F029140C16010BDD0
:1021A00010B504000E48E4B2611150F821004069F6
:1021B00014F01F010200CA40D00703D58C21094842
:1021C00000F0B1F80648E4B2611150F8210000694E
:1021D00014F01F010200CA4012F0010010BD0000FF
:1021E0002C0BFF1F94A4000010B4294A12684FF46E
:1021F0000073C0B24409A3401A43254B1A60254A14
:10220000C0B2431152F82320012310F01F04A34051
:10221000C2F8A0301F4AC0B2431152F82320C0B206
:1022200010F01F0342F8231010BC704710B4184A76
:1022300012684FF40073C0B24409A3401A43144B10
:102240001A60144AC0B2431152F82320012310F03F
:102250001F04A340C2F8A03031F4E0610D4AC0B2BF
:10226000431152F82320C0B210F01F0352F823206C
:1022700012F4E0621143074AC0B2431152F823201E
:10228000C0B210F01F0342F8231010BC70470000CA
:1022900038800440880BFF1F10B50400002C15D0B7
:1022A000B4F1807F03D329210F4800F03CF80020CF
:1022B0000E4908600E48046000200E4908600520A1
:1022C0000A49086009480068C003FBD510BD10B575
:1022D00004002000441E002804D007480068FFF7CF
:1022E000DBFFF6E710BD000070A3000010E000E087
:1022F00014E000E018E000E0B028FF1FDFF800F075
:10230000A50DFF1FDFF800F0D50DFF1FBFF34F8FA6
:102310004648006810F4E0604549084343490860B6
:10232000BFF34F8FFEE738B504000D00002000F02A
:102330008DF82A0021003F4800F0C0F8002000F08E
:10234000A2F84FF47A70FFF7C2FFF2E738B5040045
:102350000D00210049B2042000F0CCF9200032BD6C
:1023600010B50024042000F0DFF9042000F012FA78
:10237000002841D1002000F069F8042000F00AFA9A
:10238000012801D101200400002000F07CF82A4837
:1023900000F094F84FF4FA70FFF799FFE4B2012CC3
:1023A000EBD1042000F0F6F90028E6D1042000F07B
:1023B000F1F9002806D1002000F065F86420FFF74D
:1023C00086FFF3E7042000F0E5F9012806D100209C
:1023D00000F059F83220FFF77AFFF3E7174800F0D2
:1023E0006DF8FFF78BFF6420FFF771FF0020FFF708
:1023F00089FFFFF78BFFC0E710BD10B510480468D8
:10240000012000F023F8012000F03DF80D48E4B26F
:102410000F2101FB0402E4B221000B4800F04EF84A
:102420004FF47A70FFF753FFEDE700000CED00E08A
:102430000400FA0554A60000BCA70000D0A60000C6
:1024400004ED00E01804FF1FF0A5000010B5040023
:1024500064B2042C07DA01220121174864B2205C1F
:10246000FFF7F0FD0EE0042004002000441E40B2FF
:10247000002807D0012201210F4864B2205CFFF739
:10248000E1FDF2E710BD10B5040064B2042C05DADA
:10249000094864B2205CFFF766FE0CE004200400EB
:1024A0002000441E40B2002805D0034864B2205CDE
:1024B000FFF759FEF4E710BDC40CFF1F0EB400B5C2
:1024C00082B003A9009102466B460121034878447B
:1024D0000A3000F077F906BC5DF810FBA982000015
:1024E0002DE9F84304000D0064B2002C08D0022C42
:1024F0002CD018D3042C4FD03BD3052C5FD071E0E7
:10250000DFF80C02006850F48060DFF80412086005
:102510004FF440716620FFF767FE4FF4407167206B
:10252000FFF762FE5EE0DFF8E801006850F400604B
:10253000DFF8DC1108604FF440714320FFF754FED0
:102540004FF440714420FFF74FFE4BE0DFF8C0012D
:10255000006850F48050DFF8B81108604FF4407103
:102560006320FFF741FE4FF440716220FFF73CFE0D
:1025700038E0DFF89C01006850F40050DFF890115B
:1025800008604FF440715020FFF72EFE4FF4407169
:102590005120FFF729FE25E0DFF87801006850F4AC
:1025A0008060DFF8701108604FF440714E20FFF733
:1025B0001BFE4FF440714F20FFF716FE12E0DFF8CC
:1025C0005401006850F40060DFF8481108604FF4CF
:1025D00040718920FFF708FE4FF440718820FFF713
:1025E00003FEFFE7DFF8300164B250F82400C07842
:1025F00010F0F300DFF8201164B251F82410C87015
:10260000DFF8140164B250F824008078DFF8081174
:1026100064B251F82410887064B2002C02D064B205
:10262000012C07D1DFF8F40000684FF47A714843B9
:10263000814606E0DFF8E80000684FF47A7148430D
:1026400081462801B9FBF0F00600B6B2B6F5005F8E
:1026500002DB41F6FF700600B9FBF5F0B6B2B0EB55
:1026600006100700BFB2202F03DBDC212D48FFF747
:102670005AFE294864B250F82400007810F0E000B7
:102680008046C6F3042050EA0800234964B251F89A
:1026900024100870204864B250F8240046701E4888
:1026A00064B250F82400807A10F0E000804617F001
:1026B0001F0050EA0800184964B251F824108872CB
:1026C000154864B250F82400007C50F0880012498C
:1026D00064B251F8241008740F4864B250F8240012
:1026E000C07850F00C000C4964B251F82410C87046
:1026F000BDE8F183084A40B252F820201279120650
:10270000F8D5054A40B252F82020D1717047000038
:1027100034800440288004409C0BFF1FB028FF1F1A
:10272000B828FF1F24A5000010B5040064B2082CCF
:102730000DDA00220021224864B2205CFFF782FCFF
:1027400003211F4864B2205CFFF770FD14E00820ED
:1027500004002000441E40B200280DD000220021B9
:10276000174864B2205CFFF76DFC0321144864B283
:10277000205CFFF75BFDECE710BD10B504001048CE
:1027800064B2205CFFF70CFD002801D1002000E0BE
:10279000012010BD10B50400200040B2FFF7EDFF8E
:1027A00000280AD10A20FFF792FD200040B2FFF76F
:1027B000E4FF002801D1002000E0012010BD00004E
:1027C000BC0CFF1F2DE9F04FA1B0824601AE0020E6
:1027D00017461D467160B0620DF144090AE017F812
:1027E000011B7068D0470028706000F0B982B06AA1
:1027F000401CB0623878010001D1B06AB2E22528ED
:10280000EDD1002030617061B061F06130627062C2
:1028100001E040F0010017F8011F2029F9D0232919
:102820000DD02B2904D02D2906D030290AD00CE058
:1028300040F0020080B2EEE740F00400FAE740F01A
:102840000800F7E740F01000F4E72A290ED12968C4
:10285000296051F8042B2960002A326304D55142C3
:1028600040F00400316380B27F1C13E0002131632B
:102870000BE0316B6FF00043994205D001EB81030F
:1028800002EB4301303931637F1C3A78A2F1300109
:102890000A29EED339782E2903D04FF0FF31F162A7
:1028A0001FE017F8011F2A2907D1296829607F1C1A
:1028B00051F8042B2960F26213E00021F1620BE071
:1028C000F16A6FF00043994205D001EB810302EBFE
:1028D00043013039F1627F1C3A78A2F130010A29B4
:1028E000EED3B0860FF68040397800F04BFE08B189
:1028F00017F8010B8DF83A009DF83A00682802BFDE
:1029000039786829622005D06C2804BF38786C2893
:1029100003D171208DF83A007F1C11A8F06017F8E0
:10292000014BB4F125002AD01C3800F0CA80001FEA
:10293000022840F2C680133800F0EA80093800F01F
:10294000C080801E00F05481401E00F02B81401E8C
:10295000022840F2B680001F00F02481401F00F0E2
:102960008180401E00F0D480401E26D0C01E0BD0B7
:10297000801E00F0CD80C01E00F0CA8042E12520FC
:102980008DF84400012046E12868286050F8048B47
:102990002860C6F80880F46A002C04D5404600F090
:1029A000FDFD044607E022460021404600F012FEED
:1029B00008B1A0EB080474612EE1296829600022A7
:1029C00051F8040B29604FF03C0E0021CDE90001C5
:1029D00011A8B060DDE900019142F46808BF90429F
:1029E00001D1F26AC2B100F00F033033DBB23A2BEF
:1029F000A8BF2733AEF101020009A354964640EA6E
:102A0000017009090022914208BF904204D0B268C7
:102A100004EB0E039A42E6D304EB0E01B160CEF153
:102A20003C00F16A7061884207DA081AF0614FF6DB
:102A3000EF71B08E0840B086EEE0002940F1EC80E6
:102A400096F8341001F01401102940F0E580316B44
:102A50003269891AF269891A081A0128C0F2DC80E1
:102A6000F061D9E09DF83A0062281AD0682806D0B3
:102A70006A280CD06C281CD0712808D019E028686E
:102A8000286050F8041B2860B06A0880C4E02868F9
:102A9000286050F8042B2860B06AC117C2E9000111
:102AA000BAE02868286050F8041B2860B06A0870F3
:102AB000B2E02868286050F8041B2860B06A0860FB
:102AC000AAE02868C01D20F007022A60D2E90001B0
:102AD00008322A60CDE90001002902D530692D2194
:102AE00009E0B08E810702D530692B2103E0C007D1
:102AF00005D53069202109F80010401C306111A86B
:102B000031690844B0602146684600F0EBF983E083
:102B10009DF83A006C280DD0712818BF6A2809D199
:102B20002868C01D20F007022A60D2E9000108329F
:102B30002A6005E02968296051F8040B296000210A
:102B4000CDE900019DF83A00682803D1DDE90001D4
:102B500080B20BE0622803D1DDE90001C0B205E0DC
:102B6000742818BF7A2804D1DDE900010021CDE9DD
:102B7000000196F83400000731D5DDE9002300207C
:102B8000834208BF82422AD044F02000782826D110
:102B90003069302109F80010401C411C316109F8EE
:102BA00000401CE09DF83A00294600F0DEF8CDE92F
:102BB0000001DDE9002300218B4202DA30692D217A
:102BC00009E0B08E810702D530692B2103E0C007F0
:102BD00005D53069202109F80010401C306111A88A
:102BE00031690844B0602146684600F0F5F813E00A
:102BF000012030612868286050F8041B28608DF897
:102C0000441009E025208DF84400012030611CB1FA
:102C100089F8014002203061306B3169401AF16956
:102C2000401A7169401A316A401AB169401A716AD2
:102C3000A0EB010896F83400400711D42020B8F129
:102C4000010F8DF840000BDB4446012310AA6946B2
:102C5000504600F071FC002840F08280641EF4D1E0
:102C6000D6F810B0BBF1000F11AC0CD014F8011B5A
:102C70007068D0470028706072D0B06A401CBBF109
:102C8000010BB062F2D130208DF84000F469012CC4
:102C900009DB012310AA6946504600F04DFC0028CC
:102CA0005ED1641EF5D1D6F814B0B468BBF1000F44
:102CB0000CD014F8011B7068D047002870604FD00A
:102CC000B06A401CBBF1010BB062F2D130208DF82C
:102CD0004000346A012C09DB012310AA69465046E2
:102CE00000F02AFC00283BD1641EF5D1B068716960
:102CF000D6F818B04418BBF1000F0BD014F8011B24
:102D00007068D047706058B3B06A401CBBF1010BCB
:102D1000B062F3D130208DF84000746A012C08DBDA
:102D2000012310AA6946504600F006FCC0B9641E93
:102D3000F6D196F8340040077FF55CAD2020B8F15D
:102D4000010F8DF84000FFF655AD012310AA69462A
:102D5000504600F0F1FB18B9B8F10108F5D149E58A
:102D60004FF0FF3021B0BDE8F08F622826D06828F0
:102D70001DD06A2808D06C2827D0712804D0742868
:102D800023D07A280CD020E00868C01D20F007006E
:102D90000860D0E9002308300860194610467047E3
:102DA0000A680A6052F8040B0A60002170470A683A
:102DB0000A6052F8040B0A6000B20BE00A680A606D
:102DC00052F8040B0A6040B204E00A680A6052F844
:102DD000040B0A60C11770472DE9F3430546084606
:102DE0002F696F2808BF082405D041F020017829F9
:102DF00014BF0A2410243C26D5E90023642818BFF8
:102E000069289046994606D100218B4203DAD8F111
:102E1000000869EB49090020814508BF80450CD1B5
:102E2000286B50B9082C38D195F83800000734D5F4
:102E300030203B2687F83B002FE0701E00900646AE
:102E4000404649462246E31700F0F0FB02F130000D
:102E5000C0B23A2803DB9DF8041051390818B85560
:102E6000494640462246E31700F0E0FB804689468B
:102E70000020814508BF804503D0E868B919884221
:102E8000DBD3082C09D195F83800000705D5B85DCB
:102E9000302802D0761E3020B855B919E960C6F145
:102EA0003C00296BA861884208DA081A28624FF6AC
:102EB000EF71288F08402887BDE8F38300290ED5DD
:102EC00095F8381001F01401102908D1696B6A696E
:102ED000891A2A6A891A0E1A012EA8BF2E62BDE825
:102EE000F38300002DE9F24F04468EB0D4E90001CF
:102EF000CDE9020104AF9DF8380040F0200BBBF192
:102F0000610F0AD0206B002848BF062004D408BFF8
:102F1000BBF1670F01D1012020636168C1F30A5042
:102F200040F2FF7290421CD1080304BF20680028C1
:102F300009D10320A0619DF8380061381A2835D3E3
:102F40000FF2386108E00320A0619DF83800613875
:102F50001A2828D30FF21C61E068032200F0DEFB80
:102F6000BDE1012815DA204600F013FC012810DB32
:102F700000250020BBF1610F1FD1E16830220A70EB
:102F80008A1CE2609DF83820612A0CBF7822582202
:102F90000FE0626840F2FE3161F31E52451A626032
:102FA0004FF0FF30E6E70FF2C851D5E70FF2C851F6
:102FB000D2E74A706169891C616110B90026002559
:102FC00084E1BBF1610F40F09880206BD4E900AB45
:102FD00000284CBF2126461CDDE902010022002307
:102FE00000F0FAFB36B23ABF8BF00040CDE902A008
:102FF000CDE902AB06F101082D1FB8F1010F8DF8E4
:1030000010200DF1110736DBDDE90201002200235B
:1030100000F0FAFB2FD21C2102A800F00DFCDDE924
:10302000020100F08FFCA8F10708B8F1010F8146FA
:1030300009DB00F0B3FC02460B46DDE9020100F0BB
:10304000C5FCCDE90201F81D072105E009F00F02DA
:1030500000F8012D4FEA2919B9F1010F01DB491ED2
:10306000F4D5491E5CBF002200F8012DF9D5C71D1B
:10307000B8F1010FC8DA0DF11100391AB142B8BF29
:103080000E4636B230000DF111072FD4884206DA11
:1030900004A9014449780829A8BF0F2100DA0021BA
:1030A00004AA024400E0761E12F80139401E8B4249
:1030B000F9D00F2904D104A901444A78521C4A705E
:1030C000002802D504AF761C2D1D36B2701E0DD41B
:1030D00039180A783032D2B23A2A03DB9DF83830F8
:1030E0003A3B9A18401E01F80129F2D5206B0028BE
:1030F00040F1EC80701E2063E8E0DDE9020100226F
:10310000002300F069FB3CBF81F00041CDE90201E2
:103110002DB247F2975068434B49DFF8309190FB4E
:10312000F1F52DB2C5F1070ABAF1010F90461CDB8B
:10313000DDE902675FEACA7007D542464B46304672
:10314000394600F003FD06460F46404649464246D2
:103150004B464FEA6A0A00F0F9FCBAF1000F8046CC
:103160008946E7D1CDE9026724E0CAF1000A0026CA
:10317000374F14E05FEACA7007D542464B463046E7
:10318000394600F0E3FC06460F46404649464246B3
:103190004B4600F0DBFC4FEA6A0A80468946BAF1EA
:1031A000000FE7D1DDE9020132463B4600F0A0FD09
:1031B000CDE90201BBF1660F216BDFF898900CBFDF
:1031C00005F10A0006204618142EA8BF1326302049
:1031D0008DF810000DF11107012E3DDBDDE9020134
:1031E00000F0C6FB07F1080104220A23B0FBF3F349
:1031F00003EB8307A0EB4700303001F8010C0A20F5
:10320000B3FBF0F000EB8007A3EB47033033521E13
:1032100001F8023DE9D1083E012E01F10807DBDB90
:10322000DDE9020100F0A4FB00F0C2FB02460B4600
:10323000DDE9020100F0CAFB00224B4600F086FCEB
:10324000CDE90201CAE700BFA086010000002440CA
:103250000000F03F84D797410DF11100381A0DF1AD
:10326000110702E0401E6D1E7F1C39783029F9D00D
:10327000BBF1660F08BF691C04D0BBF1650F0CBF22
:1032800001210021226B8E1836B2B042B8BF06462B
:1032900036B231001AD4814204DA785C3528A8BFEE
:1032A000392000DA30207A18521E00E0761E12F81B
:1032B0000139491E8342F9D0392802D1785C401C7B
:1032C0007854002902D57F1E761C6D1C2DB29DF806
:1032D0003810009533B23A46204600F003F80FB09C
:1032E000BDE8F08F2DE9F04786B006468A46904645
:1032F0001D4600F046FE012D406A376B90F80090A5
:1033000002DA01250FF278284AF02000BDF9384092
:10331000662808BF641C12D0672878D114F1040F06
:103320007BDBBC4279DA96F83800641C000702D4D3
:10333000BD42B8BF2F4624B23F1B48BF002724B26E
:10334000F068B169012C23DA4A1C30234354012F61
:1033500003DA96F83800000703D5F06800F8029009
:10336000521CE742B8BF7C4224B260427062E71947
:10337000AF42B261B8BF3D46F068B3692DB2F561A6
:103380002A464146184400F0C9F9781BB062BCE0F7
:1033900022469542084416DA2A46414600F0BEF914
:1033A000B1696918601B012FB161706203DA96F888
:1033B0003800000705D5F06800F80190F069401C5E
:1033C000F061B762A1E0414600F0A8F9B0692018A9
:1033D0002D1B012F03DA96F83810090703D5F16881
:1033E00001F80090401CB0612DB2AF42B8BF3D461D
:1033F000F068B3692DB22A4608EB0401184400F0C6
:103400008DF9B0692818B061781B70627DE0BAF15F
:10341000610F14D14FF0700A16E0BD4204DA96F83D
:103420003810090758BF2F467F1E48BF0027BAF142
:10343000670F14BF4FF0450A4FF0650A04E0BAF178
:10344000410F08BF4FF0500AB169F368481CB061E2
:10345000012F18F8012B5A5403DA96F8381009078F
:1034600017D5F168431CB36101F80090012F10DB00
:103470006D1E2DB2AF42B8BF3D46F0682DB22A4650
:103480004146184400F04AF9B0692818B061781B29
:103490007062F068B1690144200081F800A004D492
:1034A0002B20487001F1020804E02D224A7001F13E
:1034B00002086442002502AF08E00A22684600F0D4
:1034C00079FD019807F8010B6D1C009C21B20129C0
:1034D000F3DA022D06DA4AF02000652804BF302016
:1034E00008F8010B4DB9302008F8010B07E06D1EFC
:1034F00002A8405D303008F8010B012DF7DAF068C2
:10350000B1690844A8EB0000F06196F8380000F0BB
:10351000140010280DD17069B1690818716A081873
:10352000F1690818B16A0818716B8842BCBF081AA3
:10353000306206B0BDE8F087F8B504460D46164681
:103540001F46002077B116F8011BA868A047A860A5
:1035500030B1E86A401CE86200207F1EF3D1F2BD62
:103560004FF0FF30F2BD0000686A6C747A4C0000C6
:103570006E616E004E414E00696E6600494E460017
:103580003000FF000278C9B28A421AB11CBF10F89D
:10359000012FF9E718BF00207047000000F1010378
:1035A000810704D010F8011B89B18107FAD10268A4
:1035B000B2F10131914311F0803F04BF50F8042F64
:1035C000F6E710F8011B11B110F8011BFBE7C01A58
:1035D00070470000C9B2830706D0521E22D310F8EC
:1035E000013B9942F7D11FE0083A13D302F10402DC
:1035F00041EA012141EA014150F8043B121F21BF79
:103600004B40A3F1013C2CEA030C1CF0803FF3D0AB
:10361000C9B2001F083210F8013B521E28BF91EAC0
:10362000030FF8D818BF0120401E70471B4213D16A
:10363000094236D12AB18446B0FBF2F002FB10C237
:10364000704700F0BFBCFCD30022002370470B0082
:103650000200002100207047904271EB030CF6D36A
:1036600070B5B1FA81F4B3FA83F52C1BA340C4F111
:10367000200532FA05F63343A2405FF00046E640EB
:1036800002E05B085FEA3202841A71EB030524BF93
:10369000204629467641F4D302000B003000002179
:1036A00070BD012ACFD970B5140C20D0B1FA81F4C5
:1036B000B2FA82F5C4F120046419B4F12006D6D31D
:1036C000B2405FF00044F440002502E052085FEA97
:1036D0003303C61A71EB020E24BF304671466441B3
:1036E0006D41F3D302000B002000290070BD0C4691
:1036F000B1FBF2F102FB11452D0445EA1045B5FB83
:10370000F2F402FB145580B240EA0545B5FBF2F035
:1037100002FB105240EA044070BD000062B38B0708
:1037200008D0521E11F8013B00F8013B00F0248044
:103730008B07F6D1830740F0208000BF103A07D3F3
:1037400030B4B1E83810103AA0E83810F9D230BCE3
:10375000530724BFB1E80810A0E8081044BF51F88F
:10376000043B40F8043BD20724BF31F8022B20F879
:10377000022B44BF0B7803707047083A07D3B1E8B7
:103780000810083A40F8043B40F804CBF7D253073E
:10379000E4E730B4436803F000420121C3F31303AC
:1037A0004360002B04BF0368002B08D10DE00368C1
:1037B000DD0F45EA440444605B000360491E446831
:1037C000E302F4D5C4F31303436043681A43426031
:1037D000084630BC704700004FF4001C1CEB410F42
:1037E00094BF1CEB430F09E041EA030C50EA4C0C78
:1037F00052EA0C0C03D2994208BF9042704714BFA2
:103800008B428242704700004FF4001C1CEB410FBA
:1038100094BF1CEB430F09E041EA030C50EA4C0C47
:1038200052EA0C0C03D28B4208BF8242704714BF8D
:10383000994290427047000070B504460D4660689A
:10384000C0F30A5040F2FF71884207D1606800035C
:1038500004BF2068002817D0022070BD20B9204680
:10386000FFF797FF012866DA012D0FDB40F2FF71A9
:10387000091A8D420AD36068002847BF00202F49EB
:1038800000202F49C4E90001012070BD4142A94236
:10389000616806DA6FF31E51401941EA005060601A
:1038A00040E0401E63684519012205F1350062F3CE
:1038B0001F53352801F00041636003D3616000208D
:1038C000206070BD002015F11F0F04DA206823600E
:1038D0000022203562606A4212D0401E2568804175
:1038E000C2F12003C0439D4045EAD0702568666858
:1038F000D54006FA03F32B4323606368D34063602B
:1039000062680A43B0F1004F626003D80DD120789D
:10391000C0070AD52068401C2060206828B960686C
:10392000401C60604FF0FF3070BD6068884204BF8B
:1039300020680028F6D1002070BD00BF0000F0FF15
:103940000000F07FF446400D40EAC120490006D255
:1039500000F014F8004248BF6FF00040604700F0EC
:103960000DF84FF0004188428CBF08464042604746
:10397000400D40EAC120490080F00D8040F0004039
:10398000490DA1F58061491C05D4D1F11F0154BF37
:10399000C840C01770474FF000007047010040F169
:1039A0000980F446404200F005F851F000416047BC
:1039B000010000BF09D0B0FA80F18840C91CC1F5F0
:1039C0008461090501EBD02140057047F0B44FF048
:1039D000004591EA030F44BF6B4000F0FFBA00BFFF
:1039E000841A71EB030604D26E40001BB141121918
:1039F00073414FF4001C1CEB410F34BF7CEB4306BA
:103A000084E00C0DA4EB1356362E7DDC012E43DC36
:103A100045EAC32343EA525312BFD20292025B0823
:103A2000240545EAC12141EA5051D2EBC020994119
:103A300025D407D1B0FA80F610FA06F164D0002040
:103A4000203608E0B1FA81F6B140C6F1200220FA32
:103A500002F21143B0404FEAF474B4EB465434F030
:103A600001064FEA74040AD8D6F50016760D04F064
:103A70000044F04061FA06F25040F1404840C00A6C
:103A800040EA415021F0004128BF5FEA500550F163
:103A9000000044EBD12137E045EAC323DB0A45EAC5
:103AA000C121C90AB6F120050EDD42EA0242120C1C
:103AB000C5F1200603FA06F6EB4042EA06056D4220
:103AC000984161F100010DE062FA06F5F2405540BF
:103AD00063FA06FC82EA0C02F3405A406D429041C0
:103AE00061EB030111F4801F05D1641E620502D051
:103AF0006D004041494121F48011430875F10043B4
:103B000050F1000041EB0451F0BC70471CEB410F39
:103B100015D223F0004352EA43060BD04FEA4C0C77
:103B2000BCEB410F04D80C0D661E342EB7DDEBE75D
:103B3000801A994150EA410608BF0021E4E708BF16
:103B40001CEB430F28BF6FF00001DDE7B0B581EA41
:103B5000030C0CF0004C40F2FF7515EA11541DBF28
:103B600015EA1357AC42AF4239E0E41923EA455352
:103B700043F48013C90241F0004141EA505EC7029C
:103B80001100A7FB020200284FF00000EEFB01200D
:103B90004FF00001E3FB072118BF42F0010240187B
:103BA00000214941E3FB0E01A4F580640F0302D21A
:103BB00052004041494154F101046CDD470872F163
:103BC000004250F1000051EB0451A1F580115CBF9F
:103BD00041EA0C01B0BD4CEA05510020B0BD05EA38
:103BE0001357AC4214BFAF4241E050EA410E1CBF34
:103BF00052EA430E02E061460020B0BD24423C443C
:103C00001BD15FEA070EF6D0090302BF0146002070
:103C1000AEF1140EB1FA81F7AEEB070401FA07FE1C
:103C20000C37C7F1200100FA07F7C8404EEA000E32
:103C300023EA455343F48013A2E733F00043B3FA79
:103C400083F704BFB2FA82FE77440B3FE41BB7F15F
:103C5000200E2FBF02FA0EF3BB40C7F1200E22FA4E
:103C60000EFE38BF43EA0E03BA40641C82E750EAF6
:103C7000410E14BF52EA430E6FF000014FF40017DB
:103C800017EB430F8ABF194617EB410FB5E74CEA14
:103C900005510020B0BDD4F10104B4F120070FDAC2
:103CA000C4F12007520828BF42F0010210FA07F5BC
:103CB00001FA07F7E1BF2A43E0403843E1400FE053
:103CC000352C98DCC7F1200452EA400220FA07F2B2
:103CD00018BF42F0010231FA07F0A1400A43002167
:103CE00072F1004250F1000051EB0C01B0BD000038
:103CF0002DE9F04140F2FF7581EA030C0CF0004C15
:103D000015EA11541DBF15EA1357AC42AF42E9E062
:103D1000BC41C1F31301C3F31303801A994143F467
:103D2000801304D2641E4000494180185941C902E1
:103D300041EA5051B1FBF3F603FB1611A2FB0675E5
:103D4000D7EBC020A94102D2761E80185941C90282
:103D500041EA5051B1FBF3FE03FB1E11A2FB0E75AD
:103D6000D7EBC020A94103D2AEF1010E8018594112
:103D7000890241EA9051760546EA8E2EB1FBF3F6B0
:103D800003FB1611A2FB0675D7EB8020A94102D2D6
:103D9000761E80185941C90241EA50514EEA060E7A
:103DA000B1FBF3F603FB1611A2FB0675D7EBC0209F
:103DB000A94102D2761E80185941C90241EA5051E8
:103DC000B1FBF3F703FB1711A2FB0735D3EBC020C0
:103DD000A94167F100070CBF004247F0010766F3F5
:103DE000D5274FEA1E31B80814F5806414DDBD07ED
:103DF00075F1004250EB0E5051EB045111F5801F4C
:103E00005CBF41EA0C01BDE8F0814CF07F6141F0FC
:103E1000E0410020BDE8F081BD076D0840EA0E508A
:103E200041F48011D4F10104B4F120060ADAC4F19E
:103E300020060200E04001FA06F3E1401843B240D8
:103E400015430EE0342C14DCC6F1200445EA40058D
:103E50006D0820FA06F2154321FA06F0A1400D4341
:103E6000002175F1004250F1000051EB0C01BDE85A
:103E7000F08100205FEA0C01BDE8F081CFB9921813
:103E80005B41B3FA83F704BFB2FA82F6BF190B3F66
:103E9000B7F120062FBF02FA06F3BB40C7F1200698
:103EA00022FA06F638BF3343BA401CB1E419641E47
:103EB0002FE77F4231F00041B1FA81F404BFB0FA3C
:103EC00080F6A4190B3CB4F120062FBF00FA06F1CE
:103ED000A140C4F1200620FA06F638BF3143A040C5
:103EE0003C1B16E7AC421ABF05EA1357AF4214E079
:103EF00050EA41061CBF52EA4306BFE750EA4107B9
:103F0000304661461CBF41EA0551BDE8F08152EAE6
:103F1000430C08BFC143BDE8F08100204FF40016F8
:103F200016EB410F98BF16EB430F08BF16EB410F7E
:103F300024BFC14305E016EB430F0CBF61464CEABA
:103F40000551BDE8F081000080B5134800F0B0F8DD
:103F50000FF24C020FF244010160426241600FF225
:103F60004402826381600FF24402C16001614161D9
:103F700081618162C16201634163C2630164416422
:103F800001BD10B5044800F093F80446206808B954
:103F9000FFF7DAFF204610BD742AFF1F0000000063
:103FA0002E00000066616C73650000007472756518
:103FB0000000000091FBF2F303FB1211C0E9003195
:103FC0007047000070470000F0B44FF0004591EAE0
:103FD000030C44BF6B40FFF703BD00BF841A71EBB5
:103FE000030603D2001BB141121973414FF4001CA8
:103FF0001CEB410F34BF7CEB430443E00C0DA4EBFE
:104000001356352E50DC45EAC323DB0A45EAC121AD
:10401000C912B6F120050DDD63FA05F6EB4086EA1C
:104020000305124218BF45F00105C01851F1000107
:104030000CD213E062FA06F5F2405540F3415A40C3
:10404000B340F3405A408018594107D349085FEA0A
:1040500030005FEA350528BF45F0010501F5801104
:10406000420875F1004250F1000041EB0451F0BCF0
:104070004FF4001C1CEB410F38BF70470020090DA6
:10408000090570471CEB410F10D252EA43060BD0D2
:10409000BCEB410F05D80C0DAB43661E342EB5DDCD
:1040A00002E0AB4380185941F0BC7047F0BC704748
:1040B00070470000F8B504000D001600E570267189
:1040C00000202070002060700020A070E0780700C1
:1040D00020798742C0F2BC80DFF83C0C50F8270002
:1040E000502862D0DFF8300C00EB870050F8040C49
:1040F00050285AD0DFF8200C00EB87004068502889
:1041000053D0DFF8140C00EB870050F8080C50284F
:104110004BD0DFF8040C50F827000B2845DBDFF804
:10412000F80B00EB870050F8040C0B283DDBDFF8A0
:10413000E80B00EB870040680B2836DBDFF8D80B74
:1041400000EB870050F8080C0B282EDBDFF8C80BBB
:1041500050F82700DFF8C01B01EB87014968401ABF
:10416000012873DADFF8B00B00EB870050F8040C7D
:10417000DFF8A41B51F82710401A012866DBDFF88E
:10418000980B00EB870050F8080CDFF88C1B51F8F7
:104190002710401A022859DB2770DFF87C0B50F8F3
:1041A000270060700120A07052E0DFF86C0B50F81F
:1041B000270050284AD1DFF8600B00EB870050F849
:1041C000040C502842D0DFF8500B00EB8700406809
:1041D00050283BD0DFF8400B00EB870050F8080C6C
:1041E000502833D0DFF8300B00EB87008068502870
:1041F0002CD0DFF8240B50F827000B2826DBDFF843
:10420000180B00EB870050F8040C0B281EDBDFF8BE
:10421000080B00EB870040680B2817DBDFF8F80A73
:1042200000EB870050F8080C0B280FDBDFF8E80ADA
:1042300000EB870080680B2808DB2770DFF8D80ABE
:1042400050F8270060700120A07001E07F1E3FE75A
:10425000A078002804D000213720FDF74AFF03E0B2
:1042600001213720FDF745FFF1BDF8B504000D0031
:104270001600E5702671002020700020607000207C
:10428000A070E07807002079B84280F2BD80DFF8A6
:104290008C0A50F82700002863D0DFF8800A00EB72
:1042A000870050F8040C00285BD0DFF8700A00EBA0
:1042B00087004068002854D0DFF8600A00EB8700D0
:1042C00050F8080C00284CD0DFF8500A50F82700AE
:1042D000462846DADFF8440A00EB870050F8040C61
:1042E00046283EDADFF8340A00EB870040684628AB
:1042F00037DADFF8280A00EB870050F8080C462868
:104300002FDADFF8180A50F82700DFF8101A01EB4F
:1043100087014968401A002874D4DFF8000A00EBCE
:10432000870050F8040CDFF8F41951F82710401AF0
:10433000002867D5DFF8E40900EB870050F8080C87
:10434000DFF8D81951F82710401A10F1010F59DA87
:104350002770DFF8C80950F8270060700120A070AE
:1043600052E0DFF8B80950F8270000284AD1DFF8FA
:10437000AC0900EB870050F8040C002842D0DFF8AD
:104380009C0900EB8700406800283BD0DFF88C09CF
:1043900000EB870050F8080C002833D0DFF87C09C8
:1043A00000EB8700806800282CD0DFF8700950F8F7
:1043B0002700462826DADFF8640900EB870050F86A
:1043C000040C46281EDADFF8540900EB8700406829
:1043D000462817DADFF8440900EB870050F8080C8C
:1043E00046280FDADFF8340900EB8700806846289A
:1043F00008DA2770DFF8240950F8270060700120E0
:10440000A07001E07F1E3EE7A078002804D00021C4
:104410003420FDF76EFE03E001213420FDF769FE34
:10442000F1BDF8B50400002020700020A07000202D
:1044300060700020E07019223921DFF8E408FFF7EE
:1044400039FE19223921DFF8540CFFF70EFFDFF88F
:10445000D408C078002840F0B081DFF8C808407860
:10446000002840F0AA81DFF8C0080068072807DBB1
:10447000DFF8B8080068192802DA012020709CE1F2
:10448000DFF89C088078002800F0C980DFF80C0C69
:104490008078002840F0C380DFF884080078352851
:1044A00080F2BD80DFF8F80B0068DFF8F81B0968C0
:1044B000884208DADFF8F00B0068DFF8E81B0968CB
:1044C0008842C0F2AC8000200500502D05DA0020A3
:1044D000DFF8D81B48556D1CF7E7DFF8C80B0068FC
:1044E000DFF8C41B096888420ADBDFF8B80B0068F4
:1044F000DFF8AC1B0968884202DB2820070024E0B3
:10450000DFF8A00B0068DFF8A01B096888420ADA10
:10451000DFF88C0B0068DFF8901B0968884202DA2C
:104520001E20070011E0DFF87C0B0068DFF8701B2D
:104530000968884209DADFF8700B0068DFF8601B51
:104540000968884201DA14200700DFF8D4074078B0
:104550000600B74231DADFF8C80700780500DFF857
:10456000500B0068A84226DADFF8480B502101FB07
:1045700005F10844805DFF281BD1DFF8380B50217E
:1045800001FB05F10844304410F8500C002810D10C
:10459000DFF8200B502101FB05F10844304410F8EE
:1045A000A00C002805D12800401EDFF8001B88550C
:1045B00001E06D1ED3E7761ECBE7DFF86407407895
:1045C0000600B74280F2F980DFF8E00A805D00283B
:1045D00023D0DFF8D80A304410F8010C00281CD092
:1045E000DFF8C80A30444078002816D0DFF8BC0A4B
:1045F000805DDFF8B81A31444978401A00280CD49D
:10460000DFF8A80A805DDFF8A41A314411F8011C14
:10461000401A002801D50120A070761ED1E7DFF8EE
:1046200000078078002840F0C880DFF8700A8078A2
:10463000002800F0C280DFF8640A0078352880F294
:10464000BC80DFF8740A0068DFF8581A09688842ED
:1046500008DADFF8680A0068DFF8481A0968884253
:10466000C0F2AB8000200500502D05DA0020DFF8F5
:10467000501A48556D1CF7E7DFF8280A0068DFF884
:104680003C1A096888420ADBDFF8180A0068DFF87C
:10469000281A0968884202DB2820070024E0DFF896
:1046A000040A0068DFF8141A096888420ADADFF899
:1046B000080A0068DFF8041A0968884202DA322022
:1046C000070011E0DFF8DC090068DFF8EC19096881
:1046D000884209DADFF8E4090068DFF8DC190968C4
:1046E000884201DA3C200700DFF8B0094078060074
:1046F000BE4231DADFF8A40900780500DFF8B0091E
:104700000068A84226DADFF8AC09502101FB05F168
:104710000844805DFF281BD1DFF89809502101FB78
:1047200005F10844304410F8500C002810D1DFF88F
:104730008409502101FB05F10844304410F8A00C15
:10474000002805D12800401EDFF87419885501E0C3
:104750006D1ED3E7761CCBE7DFF8400940780600F2
:10476000BE422ADADFF85809805D002823D0DFF83E
:104770005009304410F8010C00281CD0DFF8400923
:1047800030444078002816D0DFF83409805DDFF827
:10479000301931444978401A01280CDADFF8200931
:1047A000805DDFF81C19314411F8011C401A012802
:1047B00001DB01206070761CD2E7F1BD0021DFF83B
:1047C000042911700021DFF8002911700021DFF8A1
:1047D000FC2811700021DFF8F8281170DFF82C1A7E
:1047E0000978002900F09980DFF83015D1F8E81039
:1047F000002911D0DFF82415D1F8E41000290BD0DE
:10480000DFF81815D1F8E010002905D0DFF80C15F5
:10481000D1F8DC10002917D1DFF8FC14D1F8E8102A
:10482000502976D0DFF8F014D1F8E410502970D078
:10483000DFF8E414D1F8E01050296AD0DFF8D8147A
:10484000D1F8DC10502964D0DFF85018897800299D
:1048500009D0DFF8CC148978002904D10121DFF8D0
:104860006428117059E0DFF834188978002909D1DB
:10487000DFF8AC148978002904D00121DFF848283A
:1048800011704AE0DFF814188978002909D0DFF8A0
:1048900090148978002904D00121DFF830281170A4
:1048A0003BE039210800DFF884140968814234DADA
:1048B000DFF8201851F82010DFF8182802EB8002EA
:1048C00052F8042C891A01290BDBDFF8081851F87B
:1048D0002010DFF8002802EB800252F8042C891A1D
:1048E0000AE0DFF8F01701EB800151F8041CDFF853
:1048F000E42752F82020891A032908DBDFF8D417AF
:1049000001EB80014968DFF8CC2742F82010401EF7
:10491000C9E70121DFF8F428D170704730B4DFF81F
:104920007C279278002A00F0AB80DFF8F42392789D
:10493000002A00F0A580DFF8F0231268042A80F234
:104940009F80DFF8CC281278002A40F09980DFF8A9
:104950004C271278DFF8C8331B78D21A012A07DBFC
:10496000DFF838271278DFF8B8331B78D21A06E060
:10497000DFF8AC231278DFF824371B78D21A082A24
:1049800079DADFF89823DFF814371B7802EB83021B
:1049900052F8042CDFF84037DFF88443247803EB27
:1049A000840353F8043CD21A012A13DBDFF86C238A
:1049B000DFF8E8361B7802EB830252F8042CDFF8AC
:1049C0001837DFF85C43247803EB840353F8043C86
:1049D000D21A10E0DFF80027D14B1B7802EB8302DC
:1049E00052F8042CCD4BDFF8B446247803EB840353
:1049F00053F8043CD21AC94BDFF8A046247853F888
:104A00002430DFF8D446C64D2D7854F825401B1BC2
:104A1000012B0DDBC14BDFF88446247853F824309A
:104A2000DFF8B446BE4D2D7854F825401B1B0CE032
:104A3000DFF8A436BA4C247853F82430B74CDFF8AA
:104A40005C562D7854F825401B1B9A4213DBDFF887
:104A5000C4271278521CDFF8BC371A70DFF8B4276D
:104A60001278022AC0F25581012202700022DFF87A
:104A7000A4371A704DE10022DFF898371A7048E128
:104A8000DFF818269278002A00F09C80A44A9278D9
:104A9000002A40F09780A44A1268022A80F292808D
:104AA000DFF874271268032A80F28C80DFF86C2705
:104AB0001268052AC0F28680DFF81C26D2F8E020B2
:104AC000502A00F07F80DFF81026D2F8DC20502A30
:104AD00078D0DFF80426D2F8D820502A72D0DFF838
:104AE000F825D2F8D420502A6CD0DFF8B0251278FF
:104AF000D21E11008D4A12688A4280F20A81874ACA
:104B000052F82120002A5BD0844A02EB810252F83D
:104B1000042C002A54D0814A02EB81025268002AF8
:104B20004ED07E4A02EB810252F8082C002A47D070
:104B30007A4A52F82120DFF864355B789A423FDAEE
:104B4000764A02EB810252F8042CDFF850355B788C
:104B50009A4235DA714A02EB81025268DFF83C353D
:104B60005B789A422CDA6D4A02EB810252F8082CEB
:104B7000DFF828355B789A4222DA684A52F8212019
:104B8000664B03EB81035B68D21A012A18DA634A89
:104B900002EB810252F8042C604B53F82130D21AF8
:104BA000012A0DDB5D4A02EB810252F8082C5B4BB7
:104BB00053F82130D21A022A02DB01224270A8E007
:104BC000491E97E7DFF8D4249278002A40F0A180AC
:104BD000534A9278002A00F09C80534A1268022AB5
:104BE00080F29780DFF834261268032A80F29180E1
:104BF000DFF824261268052AC0F28B80474AD2F8D3
:104C0000E020002A00F08580444AD2F8DC20002A07
:104C100000F07F80414AD2F8D820002A79D03F4A5C
:104C2000D2F8D420002A74D03D4A1278D21E110046
:104C30003E4A12688A426CDADFF89C2452F821203E
:104C4000502A64D0DFF8902402EB810252F8042C41
:104C5000502A5CD0DFF8802402EB81025268502A8F
:104C600055D0DFF8742402EB810252F8082C502A48
:104C70004DD02B4A5278DFF8603453F821309A42F5
:104C800045DA274A5278DFF8503403EB810353F8B2
:104C9000043C9A423BDA224A5278DFF83C3403EB78
:104CA000810353F8083C9A4231DA1D4A5278DFF802
:104CB000283403EB81035B689A4228DADFF8182472
:104CC00052F82120DFF8103403EB81035B68D21A1D
:104CD000002A1CD4DFF8002402EB810252F8042CD5
:104CE000DFF8F43353F82130D21A002A0FD5DFF859
:104CF000E82302EB810252F8082CDFF8DC3353F88A
:104D00002130D21A012A02DA0122827001E0491E02
:104D10008EE730BC704700003010FF1F2411FF1FCA
:104D2000C428FF1FD828FF1F1C13FF1F0C13FF1FD1
:104D300030B400210022DFF8D8442478002C00F0A1
:104D40009881DFF848496478002C40F09281DFF8C0
:104D50003C49E478002C40F08C81002423003C2B5B
:104D600005DA5024DFF8B854EC545B1CF7E7DFF8A1
:104D7000B444246823000D2B41DBDFF8A8442468E9
:104D8000A3420AD1DFF85043DFF898542D6804EBB2
:104D90008504A468E41E200016E0DFF884441C4467
:104DA0006478502C06D0DFF878441C446478E41E04
:104DB000200009E0DFF82043DFF868542D6804EB99
:104DC0008504A468E41E20004E2816DAB94C50254C
:104DD00005FB03F52C44245CFF2C0CD1B54C50256D
:104DE00005FB03F52C4404446478002C03D1DFF860
:104DF0003044E05401E0401CE6E75B1EBBE70024C2
:104E000023003C2B05DA0024DFF88458EC545B1CAB
:104E1000F7E7DFF81044246823000D2B42DBDFF8AE
:104E200004442468A3420AD1DFF8B042DFF8F45307
:104E30002D6804EB8504A468E41C200016E0DFF86C
:104E400050481C446478002C06D0DFF844481C44C9
:104E50006478E41C200009E0DFF88042DFF8C453E6
:104E60002D6804EB8504A468E41C2000022817DBED
:104E7000904C502505FB03F52C44245CFF2C0DD1F0
:104E80008C4C502505FB03F52C44044414F8014CCC
:104E9000002C03D1DFF8F847E05401E0401EE5E7BD
:104EA0005B1EBAE7DFF87C43246823000D2B0DDB83
:104EB000DFF8DC47E45C002C00D0491CDFF86043DD
:104EC000E45C502C00D0521C5B1EEFE7734CA478BE
:104ED000002C76D0DFF8BC47A478002C71D00024D9
:104EE000DFF8B4576C706D4C6478DFF8A8576D78B4
:104EF0002C19022594FBF5F4DFF89C576C70DFF851
:104F000098476478252C2EDBDFF88C4764782A2CB0
:104F100029DADFF8104324680C3CD2B2A41A042C1E
:104F20000CDADFF8004324680C3CC9B2641A042C84
:104F300004DB0124DFF85457AC7062E0DFF8E44290
:104F400024680C3CD2B2A41A042C5ADBDFF8D442F9
:104F500024680C3CC9B2641A042C52DA0124DFF82C
:104F60002C572C704DE0DFF8304764782A2C11DB89
:104F7000DFF8B04224680C3CC9B2641A032C04DB8D
:104F80000124DFF80857AC703BE00124DFF8FC5641
:104F90002C7036E0DFF800476478252C31DADFF832
:104FA000844224680C3CD2B2A41A032C04DB0124F2
:104FB000DFF8D8562C7024E00124DFF8D056AC700E
:104FC0001FE0364CA478002C09D1DFF8C846A4783D
:104FD000002C04D00124DFF8B4562C7011E02F4CC3
:104FE000A478002C09D1DFF8AC46A478002C04D0BA
:104FF0000124DFF89856AC7003E00124DFF88C56EA
:10500000AC70DFF88846A478002C16D0DFF87C4618
:105010006478002C11D1DFF87446E478002C0CD1B0
:105020000124DFF86856EC700024DFF86056AC709D
:105030000024DFF858562C702EE0DFF85046247814
:10504000002C29D0DFF844466478002C24D1DFF806
:105050003C46E478002C1FD10124DFF830566C70F8
:105060000024DFF82856AC700024DFF820562C709E
:1050700012E0DFF89C41A478002C04D00124DFF872
:105080000C566C7008E0DFF888416478002C03D07F
:105090000124DFF8F855EC7030BC7047BC28FF1FC6
:1050A0002C13FF1F3813FF1F2813FF1FB029FF1FEA
:1050B0004813FF1FAC15FF1F3013FF1F2413FF1FE2
:1050C0006029FF1F612AFF1F622AFF1F632AFF1F3B
:1050D000642AFF1F3C0FFF1F3010FF1F2411FF1F0A
:1050E00080B50020DFF8A41608700020DFF89C16B9
:1050F0004870DFF894068078002840D1DFF89405E6
:10510000807800283BD1DFF888060068002100F095
:105110007BFB03D2DFF87806006804E0DFF8700656
:10512000006890F00040DFF86C1600F07FFB26D29C
:105130003C480068132822DA0120DFF85016087076
:10514000DFF84806007801285FD1DFF84006807854
:1051500000285AD1DFF840060078401CDFF83816E6
:105160000870DFF83406007828284EDB0120DFF8CD
:105170001C1688700020DFF82016087045E000201B
:10518000DFF814160870DFF800068078002819D1BF
:10519000DFF800058078002814D0DFF8F4050068F7
:1051A000002100F031FB03D2DFF8E405006804E0E1
:1051B000DFF8DC05006890F00040DFF8E01500F053
:1051C00035FB1ED3DFF8C005807800281DD0DFF83E
:1051D000C4048078002818D1DFF8B40500680021E5
:1051E00000F012FB03D2DFF8A805006804E0DFF846
:1051F000A005006890F00040DFF8A01500F016FB55
:1052000003D20120DFF88415487001BDCC28FF1FB0
:10521000D428FF1F652AFF1F1413FF1F1813FF1F39
:10522000E428FF1F0C13FF1F2DE9F8430026002779
:105230005FF000085FF000090020DFF864150870D7
:105240000020DFF86015087000200600002007002D
:105250000020DFF8541508700020DFF850150870A2
:105260000020DFF84C1508700020DFF848150870A2
:105270000020DFF844150870002080460020814699
:105280000020DFF8381508700020DFF834150870AA
:105290000020DFF830150870DFF8F4040068002102
:1052A00000F0B2FA03D2DFF8E804006804E0DFF8A7
:1052B000E004006890F00040DFF8D81400F0B6FA7F
:1052C00080F0E081DFF800050068042880F2DA81D0
:1052D000DFF8F8040068052880F2D481DFF8F004D4
:1052E0000068022880F2CE81DFF8A003C078002891
:1052F00040F0C881DFF894034078002840F0C28174
:10530000DFF8D0048078002840F0BC81DFF8C404C6
:105310004078002840F0B6813A200400152CC0F2F5
:10532000B980DFF8B40450F82400002842D0DFF838
:10533000A80400EB84004068DFF89C1451F82410A6
:10534000401A01280ADBDFF8900400EB8400406873
:10535000DFF8841451F82410401A09E0DFF87804CB
:1053600050F82400DFF8701401EB84014968401AFA
:10537000032817DBDFF8600400EB84004068002896
:1053800008D0DFF8540400EB84004068DFF8101404
:10539000087017E0DFF84004D0F8E000DFF80014F0
:1053A00008700FE0DFF8300450F82400DFF8F01345
:1053B000087007E0DFF8200400EB84004068DFF8A5
:1053C000E0130870DFF8BC0350F82400DFF8D413B2
:1053D0000870DFF8CC0300780500DFF8C803007818
:1053E000854217DADFF8F403502101FB04F1084489
:1053F000405DFF280CD1DFF8E403502101FB04F1EC
:10540000084428444078002802D10120060001E029
:105410006D1CE2E7681CF6B2002E20D00100DFF818
:1054200084231278C9B2914219D2DFF8B013502206
:1054300002FB04F21144C0B2095C00290DD1DFF86F
:105440009C13502202FB04F21144C0B2014449787B
:10545000FF2902D101210F0001E0401CDEE7FFB26D
:10546000002F15D0F6B2002E12D0DFF844130978C1
:10547000491CDFF83C231170DFF834130978012947
:1054800006D1DFF824130C70691CDFF8202311709B
:10549000641E43E7DFF81803007804281DDBFFB221
:1054A000002F1AD0F6B2002E17D0DFF834030078A0
:1054B000401CDFF82C130870DFF824030078032861
:1054C0000EDB0120DFF81C1308700020DFF810133A
:1054D00008700020B649087002E00020C04908703A
:1054E000C0480078002840F0CD803A200400152CF8
:1054F000C0F2A480BC4850F82400502835D0BA48E7
:1055000000EB84004068B84951F82410401A012883
:1055100008DBB54800EB84004068B34951F824101B
:10552000401A07E0B04850F82400AF4901EB84016D
:105530004968401A032812DBAB4800EB840040683E
:10554000502806D0A84800EB8400406899490870AC
:1055500011E0A548D0F8E000964908700BE0A24899
:1055600050F824009349087005E09F4800EB840040
:10557000406890490870834850F824008E490870AC
:105580008C48007805008C480078A84216DA9348C9
:10559000502101FB04F10844405DFF280CD18F48E5
:1055A000502101FB04F10844284410F8010C0028A4
:1055B00002D10120804601E06D1EE4E72800401E74
:1055C0005FFA88F8B8F1000F1ED07B490978020015
:1055D000D2B2914218D28149502202FB04F2114406
:1055E000C0B2095C00290DD17C49502202FB04F2B3
:1055F0001144C0B2014411F8011CFF2902D101215C
:10560000894601E0401EE0E75FFA88F8B8F1000F34
:1056100012D05FFA89F9B9F1000F0DD06949097804
:10562000491C684A117067490978012904D15E490B
:105630000C70691C5D4A1170641E58E7614800785F
:1056400004281CDB5FFA88F8B8F1000F17D05FFA66
:1056500089F9B9F1000F12D064480078401C634901
:1056600008706248007803280CDB0120604908704C
:1056700000205E49087000205249087002E00020B6
:105680005A49087000F00AF8BDE8F183D828FF1FD6
:105690002029FF1FC428FF1FE028FF1F70B55148B5
:1056A0000078002835D052480078002831D13B20BE
:1056B00006005048006886421CDB4B4850F8260024
:1056C000FEF76CF904000D004B4850F82600FEF779
:1056D00065F94A4A4A4BFEF739FA02000B002000EE
:1056E0002900FEF773F9FEF72DF9264941F8260047
:1056F000761EDEE743480078401C42490870414866
:105700000078142805DB00203E4908700020354948
:10571000087037480078002833D0324800780028D5
:105720002FD13B2006003348006886421ADB2A4806
:1057300050F82600FEF732F904000D002E4850F80C
:105740002600FEF72BF92D4A2D4BFEF7FFF922001C
:105750002B00FEF739FCFEF7F5F80A4941F8260060
:10576000761EE0E727480078401C26490870254847
:105770000078142805DB00202249087000201C490D
:10578000087070BD3C0FFF1FBC28FF1F5C29FF1F66
:105790009428FF1F0100C040662AFF1F00007041CF
:1057A000692AFF1F6A2AFF1F5B2AFF1F5C2AFF1F4F
:1057B000672AFF1F6D2AFF1F6E2AFF1F5E2AFF1F29
:1057C0005F2AFF1F6B2AFF1F1413FF1F1813FF1FF1
:1057D0001C13FF1FCC28FF1F2411FF1FAC15FF1F38
:1057E000682AFF1F5D2AFF1F3010FF1F6C2AFF1F52
:1057F000602AFF1F0C13FF1F1812FF1F9A99999917
:105800009999C93F6F2AFF1F4FF0807C1CEB400F16
:1058100094BF1CEB410F05E040EA010C5FEA4C0C21
:1058200001D28142704718BF884270474FF0807C98
:105830001CEB400F94BF1CEB410F05E040EA010C4C
:105840005FEA4C0C01D28842704718BF8142704712
:10585000002108003C2815DA50210B4A42F820109C
:1058600000210A4A42F820102821094A42F8201053
:10587000022190FBF1F11431DFF8882D42F820105D
:10588000401CE7E7704700003010FF1F2411FF1F86
:105890003C0FFF1F2DE9F0410025002700260024C2
:1058A0000020DFF8641D08600020DFF8601D08603C
:1058B0000020DFF85C1D0860002004002820DFF8CD
:1058C000541DC1F8F0000020DFF84C1DC1F8F000B5
:1058D0005020DFF8481DC1F8F0003C20DFF8241DFF
:1058E000C1F8F000FFF7B4FF3B2005002DB2322DC8
:1058F000C0F28C812DB23B2D04D1DFF8240D00685D
:10590000070006E0DFF80C0D2DB200EB85004068C3
:1059100007003FB2032F01DA022007003FB2022F37
:105920002ADBDFF8000D502115FB01F108443FB2DE
:10593000C05DFF281ED1DFF8EC0C502115FB01F1F2
:1059400008443FB2384410F8010C002812D1DFF8A7
:10595000D40C502115FB01F108443FB2384410F833
:10596000020C002806D13FB2DFF8AC0C2DB240F893
:10597000257001E07F1ED1E72DB23B2D04D1DFF869
:10598000A00C0068070006E0DFF8880C2DB200EBE1
:105990008500406807003FB24E2F01DB4E20070014
:1059A0003FB24F2F28DADFF87C0C502115FB01F1B4
:1059B00008443FB2C05DFF281CD1DFF8680C5021BD
:1059C00015FB01F108443FB238444078002811D15A
:1059D000DFF8500C502115FB01F108443FB2384468
:1059E0008078002806D13FB2DFF8300C2DB240F8A5
:1059F000257001E07F1CD3E7DFF81C0C2DB250F8B6
:105A0000250000281AD0DFF8140C2DB250F825001C
:105A1000502813D0DFF8000C2DB250F82500DFF825
:105A2000FC1B2DB251F825100818022190FBF1F053
:105A3000DFF8E01B2DB241F82500C8E0DFF8D80BF5
:105A40002DB250F8250000284AD0DFF8D00B2DB237
:105A500050F82500502843D1DFF8B00B0068401CF7
:105A6000DFF8A81B0860DFF8B40B2DB250F8250052
:105A7000DFF8A41B2DB251F82510401ADFF89C1B4B
:105A80002DB201EB85014968DFF88C2B2DB202EBBA
:105A900085025268891A491D88420CDBDFF8740BB5
:105AA0002DB200EB85004068801CDFF8681B2DB22A
:105AB00041F825008BE0DFF8600B2DB250F825008F
:105AC000DFF8401B2DB251F82510022291FBF2F1B4
:105AD0000818401DDFF83C1B2DB241F8250076E088
:105AE000DFF8340B2DB250F82500002843D1DFF841
:105AF0002C0B2DB250F8250050283CD0DFF81C0BA1
:105B00002DB250F82500DFF8101B2DB251F82510EA
:105B1000401ADFF8081B2DB201EB85014968DFF858
:105B2000F82A2DB202EB85025268891A491C884274
:105B30000CDBDFF8E00A2DB200EB85004068401E68
:105B4000DFF8D01A2DB241F8250040E0DFF8CC0A8A
:105B50002DB250F82500DFF8AC1A2DB251F82510FF
:105B6000022291FBF2F1401A401FDFF8A81A2DB271
:105B700041F825002BE0DFF8A00A2DB250F82500EF
:105B8000002824D1DFF8940A2DB250F825005028BF
:105B90001DD1DFF87C0A0068401CDFF8741A086029
:105BA0002DB23B2D08D1DFF8780A0068DFF8641ABF
:105BB0002DB241F825000AE0DFF8580A2DB200EBBB
:105BC00085004068DFF84C1A2DB241F82500DFF857
:105BD000440AD0F8EC00462804DB4620DFF8401ADF
:105BE000086011E0DFF82C0AD0F8EC000B2804DA8A
:105BF0000A20DFF82C1A086006E0DFF8180AD0F84F
:105C0000EC00DFF81C1A08606D1E6FE631200500FD
:105C10002DB2012DC0F2F484DFF8FC092DB200EBA7
:105C200085004068002800F0B680DFF8F0092DB24A
:105C300000EB85004068502800F0AD80DFF8D809FF
:105C40002DB200EB850040680A304E2801DB4E275C
:105C500007E0DFF8C4092DB200EB8500406810F1C1
:105C60000A07DFF8B4092DB200EB85004068401F39
:105C7000022801DA012606E0DFF89C092DB200EBCC
:105C800085004068461F38003100C9B200B209B231
:105C900088422ADBDFF88C09502115FB01F108440A
:105CA0003FB2C05DFF281ED1DFF87809502115FBF7
:105CB00001F108443FB2384410F8010C002812D119
:105CC000DFF86009502115FB01F108443FB2384468
:105CD00010F8020C002806D13FB2DFF83C092DB2C3
:105CE00040F8257001E07F1ECDE7DFF830092DB2C6
:105CF00000EB850040680A38022801DA012707E036
:105D0000DFF818092DB200EB85004068B0F10A07F2
:105D1000DFF808092DB200EB85004068401D4E28D1
:105D200001DB4E2606E0DFF8F4082DB200EB85001B
:105D30004068461D3000C0B2390000B209B2884246
:105D4000C0F2DA81DFF8DC08502115FB01F10844CC
:105D50003FB2C05DFF281CD1DFF8C808502115FBF9
:105D600001F108443FB238444078002811D1DFF8EF
:105D7000B408502115FB01F108443FB23844807843
:105D8000002806D13FB2DFF894082DB240F8257004
:105D9000B2E17F1CCEE7DFF880082DB200EB850072
:105DA0004068002800F09980DFF870082DB200EB01
:105DB00085004068502840F09080DFF85C082DB2E4
:105DC00000EB850040680A304E2801DB4E2707E0D3
:105DD000DFF844082DB200EB8500406810F10A0797
:105DE000DFF834082DB200EB85004068401F022820
:105DF00001DA012606E0DFF820082DB200EB85006D
:105E00004068461F38003100C9B200B209B288426A
:105E10002ADBDFF81008502115FB01F108443FB2DE
:105E2000C05DFF281ED1DFF8FC07502115FB01F1F2
:105E300008443FB2384410F8010C002812D1DFF8B2
:105E4000E407502115FB01F108443FB2384410F833
:105E5000020C002806D13FB2DFF8BC072DB240F893
:105E6000257001E07F1ECDE7DFF8A8072DB200EB1B
:105E70008500406807003FB24E2F01DB4E2007002F
:105E80003FB24F2F80F23881DFF89807502115FB81
